{
  "_format": "hh-sol-artifact-1",
  "contractName": "BeneficiaryPool",
  "sourceName": "contracts/YieldGate.sol",
  "abi": [
    {
      "inputs": [],
      "name": "claim",
      "outputs": [],
      "stateMutability": "view",
      "type": "function"
    },
    {
      "inputs": [],
      "name": "earned",
      "outputs": [
        {
          "internalType": "uint256",
          "name": "",
          "type": "uint256"
        }
      ],
      "stateMutability": "view",
      "type": "function"
    },
    {
      "inputs": [
        {
          "internalType": "address",
          "name": "_pool",
          "type": "address"
        },
        {
          "internalType": "address",
          "name": "_wethgw",
          "type": "address"
        },
        {
          "internalType": "address",
          "name": "_token",
          "type": "address"
        },
        {
          "internalType": "address",
          "name": "_beneficiary",
          "type": "address"
        }
      ],
      "name": "init",
      "outputs": [],
      "stateMutability": "nonpayable",
      "type": "function"
    },
    {
      "inputs": [
        {
          "internalType": "address",
          "name": "supporter",
          "type": "address"
        }
      ],
      "name": "stake",
      "outputs": [],
      "stateMutability": "payable",
      "type": "function"
    },
    {
      "inputs": [],
      "name": "staked",
      "outputs": [
        {
          "internalType": "uint256",
          "name": "",
          "type": "uint256"
        }
      ],
      "stateMutability": "view",
      "type": "function"
    },
    {
      "inputs": [
        {
          "internalType": "address",
          "name": "",
          "type": "address"
        }
      ],
      "name": "supporters",
      "outputs": [
        {
          "internalType": "uint256",
          "name": "",
          "type": "uint256"
        }
      ],
      "stateMutability": "view",
      "type": "function"
    },
    {
      "inputs": [
        {
          "internalType": "address payable",
          "name": "supporter",
          "type": "address"
        }
      ],
      "name": "unstake",
      "outputs": [],
      "stateMutability": "nonpayable",
      "type": "function"
    }
  ],
  "bytecode": "0x608060405234801561001057600080fd5b5061121f806100206000396000f3fe6080604052600436106100705760003560e01c80634e71d92d1161004e5780634e71d92d146100e5578063647c75e2146100fc578063d6f1926214610139578063f2888dbb1461016457610070565b806306552ff3146100755780630b76619b1461009e57806326476204146100c9575b600080fd5b34801561008157600080fd5b5061009c60048036038101906100979190610b73565b61018d565b005b3480156100aa57600080fd5b506100b361034b565b6040516100c09190610bf3565b60405180910390f35b6100e360048036038101906100de9190610c0e565b6103ee565b005b3480156100f157600080fd5b506100fa61055b565b005b34801561010857600080fd5b50610123600480360381019061011e9190610c0e565b61059c565b6040516101309190610bf3565b60405180910390f35b34801561014557600080fd5b5061014e6105b4565b60405161015b9190610bf3565b60405180910390f35b34801561017057600080fd5b5061018b60048036038101906101869190610c79565b610669565b005b600073ffffffffffffffffffffffffffffffffffffffff16600360009054906101000a900473ffffffffffffffffffffffffffffffffffffffff1673ffffffffffffffffffffffffffffffffffffffff161461021e576040517f08c379a000000000000000000000000000000000000000000000000000000000815260040161021590610d03565b60405180910390fd5b6102426040518060600160405280603881526020016111b26038913985858461090a565b836000806101000a81548173ffffffffffffffffffffffffffffffffffffffff021916908373ffffffffffffffffffffffffffffffffffffffff16021790555082600160006101000a81548173ffffffffffffffffffffffffffffffffffffffff021916908373ffffffffffffffffffffffffffffffffffffffff16021790555081600260006101000a81548173ffffffffffffffffffffffffffffffffffffffff021916908373ffffffffffffffffffffffffffffffffffffffff16021790555080600360006101000a81548173ffffffffffffffffffffffffffffffffffffffff021916908373ffffffffffffffffffffffffffffffffffffffff16021790555050505050565b6000600260009054906101000a900473ffffffffffffffffffffffffffffffffffffffff1673ffffffffffffffffffffffffffffffffffffffff16631da24f3e306040518263ffffffff1660e01b81526004016103a89190610d32565b602060405180830381865afa1580156103c5573d6000803e3d6000fd5b505050506040513d601f19601f820116820180604052508101906103e99190610d79565b905090565b6104506040518060400160405280601181526020017f5374616b696e6720257320666f7220257300000000000000000000000000000081525034600360009054906101000a900473ffffffffffffffffffffffffffffffffffffffff166109ac565b34600460008373ffffffffffffffffffffffffffffffffffffffff1673ffffffffffffffffffffffffffffffffffffffff168152602001908152602001600020600082825461049f9190610dd5565b92505081905550600160009054906101000a900473ffffffffffffffffffffffffffffffffffffffff1673ffffffffffffffffffffffffffffffffffffffff1663474cf53d60008054906101000a900473ffffffffffffffffffffffffffffffffffffffff163060006040518463ffffffff1660e01b815260040161052693929190610e7e565b600060405180830381600087803b15801561054057600080fd5b505af1158015610554573d6000803e3d6000fd5b5050505050565b61059a6040518060400160405280600f81526020017f436c61696d696e6720666f72202573000000000000000000000000000000000081525033610a4b565b565b60046020528060005260406000206000915090505481565b60006105be61034b565b600260009054906101000a900473ffffffffffffffffffffffffffffffffffffffff1673ffffffffffffffffffffffffffffffffffffffff166370a08231306040518263ffffffff1660e01b81526004016106199190610d32565b602060405180830381865afa158015610636573d6000803e3d6000fd5b505050506040513d601f19601f8201168201806040525081019061065a9190610d79565b6106649190610eb5565b905090565b6000600460008373ffffffffffffffffffffffffffffffffffffffff1673ffffffffffffffffffffffffffffffffffffffff16815260200190815260200160002054905061070f6040518060400160405280601381526020017f556e7374616b696e6720257320666f722025730000000000000000000000000081525082600360009054906101000a900473ffffffffffffffffffffffffffffffffffffffff166109ac565b6000600460008473ffffffffffffffffffffffffffffffffffffffff1673ffffffffffffffffffffffffffffffffffffffff16815260200190815260200160002081905550600260009054906101000a900473ffffffffffffffffffffffffffffffffffffffff1673ffffffffffffffffffffffffffffffffffffffff1663095ea7b3600160009054906101000a900473ffffffffffffffffffffffffffffffffffffffff16836040518363ffffffff1660e01b81526004016107d3929190610ee9565b6020604051808303816000875af11580156107f2573d6000803e3d6000fd5b505050506040513d601f19601f820116820180604052508101906108169190610f4a565b610855576040517f08c379a000000000000000000000000000000000000000000000000000000000815260040161084c90610fc3565b60405180910390fd5b600160009054906101000a900473ffffffffffffffffffffffffffffffffffffffff1673ffffffffffffffffffffffffffffffffffffffff166380500d2060008054906101000a900473ffffffffffffffffffffffffffffffffffffffff1683856040518463ffffffff1660e01b81526004016108d493929190611038565b600060405180830381600087803b1580156108ee57600080fd5b505af1158015610902573d6000803e3d6000fd5b505050505050565b6109a68484848460405160240161092494939291906110f7565b6040516020818303038152906040527fed8f28f6000000000000000000000000000000000000000000000000000000007bffffffffffffffffffffffffffffffffffffffffffffffffffffffff19166020820180517bffffffffffffffffffffffffffffffffffffffffffffffffffffffff8381831617835250505050610ae7565b50505050565b610a468383836040516024016109c493929190611143565b6040516020818303038152906040527fe3849f79000000000000000000000000000000000000000000000000000000007bffffffffffffffffffffffffffffffffffffffffffffffffffffffff19166020820180517bffffffffffffffffffffffffffffffffffffffffffffffffffffffff8381831617835250505050610ae7565b505050565b610ae38282604051602401610a61929190611181565b6040516020818303038152906040527f319af333000000000000000000000000000000000000000000000000000000007bffffffffffffffffffffffffffffffffffffffffffffffffffffffff19166020820180517bffffffffffffffffffffffffffffffffffffffffffffffffffffffff8381831617835250505050610ae7565b5050565b60008151905060006a636f6e736f6c652e6c6f679050602083016000808483855afa5050505050565b600080fd5b600073ffffffffffffffffffffffffffffffffffffffff82169050919050565b6000610b4082610b15565b9050919050565b610b5081610b35565b8114610b5b57600080fd5b50565b600081359050610b6d81610b47565b92915050565b60008060008060808587031215610b8d57610b8c610b10565b5b6000610b9b87828801610b5e565b9450506020610bac87828801610b5e565b9350506040610bbd87828801610b5e565b9250506060610bce87828801610b5e565b91505092959194509250565b6000819050919050565b610bed81610bda565b82525050565b6000602082019050610c086000830184610be4565b92915050565b600060208284031215610c2457610c23610b10565b5b6000610c3284828501610b5e565b91505092915050565b6000610c4682610b15565b9050919050565b610c5681610c3b565b8114610c6157600080fd5b50565b600081359050610c7381610c4d565b92915050565b600060208284031215610c8f57610c8e610b10565b5b6000610c9d84828501610c64565b91505092915050565b600082825260208201905092915050565b7f616c726561647920696e697469616c697a656400000000000000000000000000600082015250565b6000610ced601383610ca6565b9150610cf882610cb7565b602082019050919050565b60006020820190508181036000830152610d1c81610ce0565b9050919050565b610d2c81610b35565b82525050565b6000602082019050610d476000830184610d23565b92915050565b610d5681610bda565b8114610d6157600080fd5b50565b600081519050610d7381610d4d565b92915050565b600060208284031215610d8f57610d8e610b10565b5b6000610d9d84828501610d64565b91505092915050565b7f4e487b7100000000000000000000000000000000000000000000000000000000600052601160045260246000fd5b6000610de082610bda565b9150610deb83610bda565b9250827fffffffffffffffffffffffffffffffffffffffffffffffffffffffffffffffff03821115610e2057610e1f610da6565b5b828201905092915050565b6000819050919050565b600061ffff82169050919050565b6000819050919050565b6000610e68610e63610e5e84610e2b565b610e43565b610e35565b9050919050565b610e7881610e4d565b82525050565b6000606082019050610e936000830186610d23565b610ea06020830185610d23565b610ead6040830184610e6f565b949350505050565b6000610ec082610bda565b9150610ecb83610bda565b925082821015610ede57610edd610da6565b5b828203905092915050565b6000604082019050610efe6000830185610d23565b610f0b6020830184610be4565b9392505050565b60008115159050919050565b610f2781610f12565b8114610f3257600080fd5b50565b600081519050610f4481610f1e565b92915050565b600060208284031215610f6057610f5f610b10565b5b6000610f6e84828501610f35565b91505092915050565b7f657468677720617070726f76616c206661696c65640000000000000000000000600082015250565b6000610fad601583610ca6565b9150610fb882610f77565b602082019050919050565b60006020820190508181036000830152610fdc81610fa0565b9050919050565b6000610ffe610ff9610ff484610b15565b610e43565b610b15565b9050919050565b600061101082610fe3565b9050919050565b600061102282611005565b9050919050565b61103281611017565b82525050565b600060608201905061104d6000830186610d23565b61105a6020830185610be4565b6110676040830184611029565b949350505050565b600081519050919050565b60005b8381101561109857808201518184015260208101905061107d565b838111156110a7576000848401525b50505050565b6000601f19601f8301169050919050565b60006110c98261106f565b6110d38185610ca6565b93506110e381856020860161107a565b6110ec816110ad565b840191505092915050565b6000608082019050818103600083015261111181876110be565b90506111206020830186610d23565b61112d6040830185610d23565b61113a6060830184610d23565b95945050505050565b6000606082019050818103600083015261115d81866110be565b905061116c6020830185610be4565b6111796040830184610d23565b949350505050565b6000604082019050818103600083015261119b81856110be565b90506111aa6020830184610d23565b939250505056fe4465706c6f79696e672042656e6566696369617279506f6f6c207769746820706f6f6c2025732c2077455448677720257320666f72202573a26469706673582212201c866ea6de02544c02d493dbaa54cb1932efc4b01c1f9b8b7202e976e8c9faaa64736f6c634300080a0033",
  "linkReferences": {},
  "deployedLinkReferences": {}
}