{
  "_format": "hh-sol-artifact-1",
  "contractName": "BeneficiaryPool",
  "sourceName": "contracts/YieldGate.sol",
  "abi": [
    {
      "anonymous": false,
      "inputs": [
        {
          "indexed": true,
          "internalType": "address",
          "name": "beneficiary",
          "type": "address"
        },
        {
          "indexed": false,
          "internalType": "uint256",
          "name": "amount",
          "type": "uint256"
        }
      ],
      "name": "Claimed",
      "type": "event"
    },
    {
      "anonymous": false,
      "inputs": [
        {
          "indexed": true,
          "internalType": "address",
          "name": "beneficiary",
          "type": "address"
        },
        {
          "indexed": true,
          "internalType": "address",
          "name": "supporter",
          "type": "address"
        },
        {
          "indexed": false,
          "internalType": "uint256",
          "name": "amount",
          "type": "uint256"
        }
      ],
      "name": "Staked",
      "type": "event"
    },
    {
      "anonymous": false,
      "inputs": [
        {
          "indexed": true,
          "internalType": "address",
          "name": "beneficiary",
          "type": "address"
        },
        {
          "indexed": true,
          "internalType": "address",
          "name": "supporter",
          "type": "address"
        },
        {
          "indexed": false,
          "internalType": "uint256",
          "name": "amount",
          "type": "uint256"
        }
      ],
      "name": "Unstaked",
      "type": "event"
    },
    {
      "inputs": [],
      "name": "claim",
      "outputs": [],
      "stateMutability": "nonpayable",
      "type": "function"
    },
    {
      "inputs": [],
      "name": "claimable",
      "outputs": [
        {
          "internalType": "uint256",
          "name": "",
          "type": "uint256"
        }
      ],
      "stateMutability": "view",
      "type": "function"
    },
    {
      "inputs": [
        {
          "internalType": "address",
          "name": "_pool",
          "type": "address"
        },
        {
          "internalType": "address",
          "name": "_wethgw",
          "type": "address"
        },
        {
          "internalType": "address",
          "name": "_token",
          "type": "address"
        },
        {
          "internalType": "address",
          "name": "_beneficiary",
          "type": "address"
        }
      ],
      "name": "init",
      "outputs": [],
      "stateMutability": "nonpayable",
      "type": "function"
    },
    {
      "inputs": [
        {
          "internalType": "address",
          "name": "supporter",
          "type": "address"
        }
      ],
      "name": "stake",
      "outputs": [],
      "stateMutability": "payable",
      "type": "function"
    },
    {
      "inputs": [],
      "name": "staked",
      "outputs": [
        {
          "internalType": "uint256",
          "name": "",
          "type": "uint256"
        }
      ],
      "stateMutability": "view",
      "type": "function"
    },
    {
      "inputs": [
        {
          "internalType": "address",
          "name": "",
          "type": "address"
        }
      ],
      "name": "supporters",
      "outputs": [
        {
          "internalType": "uint256",
          "name": "",
          "type": "uint256"
        }
      ],
      "stateMutability": "view",
      "type": "function"
    },
    {
      "inputs": [
        {
          "internalType": "address payable",
          "name": "supporter",
          "type": "address"
        }
      ],
      "name": "unstake",
      "outputs": [],
      "stateMutability": "nonpayable",
      "type": "function"
    }
  ],
  "bytecode": "0x608060405234801561001057600080fd5b50610e88806100206000396000f3fe6080604052600436106100705760003560e01c80634e71d92d1161004e5780634e71d92d146100e5578063647c75e2146100fc578063af38d75714610139578063f2888dbb1461016457610070565b806306552ff3146100755780630b76619b1461009e57806326476204146100c9575b600080fd5b34801561008157600080fd5b5061009c600480360381019061009791906109ab565b61018d565b005b3480156100aa57600080fd5b506100b3610327565b6040516100c09190610a2b565b60405180910390f35b6100e360048036038101906100de9190610a46565b610331565b005b3480156100f157600080fd5b506100fa6104e3565b005b34801561010857600080fd5b50610123600480360381019061011e9190610a46565b61058e565b6040516101309190610a2b565b60405180910390f35b34801561014557600080fd5b5061014e6105a6565b60405161015b9190610a2b565b60405180910390f35b34801561017057600080fd5b5061018b60048036038101906101869190610ab1565b61065b565b005b600073ffffffffffffffffffffffffffffffffffffffff16600360009054906101000a900473ffffffffffffffffffffffffffffffffffffffff1673ffffffffffffffffffffffffffffffffffffffff161461021e576040517f08c379a000000000000000000000000000000000000000000000000000000000815260040161021590610b3b565b60405180910390fd5b836000806101000a81548173ffffffffffffffffffffffffffffffffffffffff021916908373ffffffffffffffffffffffffffffffffffffffff16021790555082600160006101000a81548173ffffffffffffffffffffffffffffffffffffffff021916908373ffffffffffffffffffffffffffffffffffffffff16021790555081600260006101000a81548173ffffffffffffffffffffffffffffffffffffffff021916908373ffffffffffffffffffffffffffffffffffffffff16021790555080600360006101000a81548173ffffffffffffffffffffffffffffffffffffffff021916908373ffffffffffffffffffffffffffffffffffffffff16021790555050505050565b6000600554905090565b600034905080600460008473ffffffffffffffffffffffffffffffffffffffff1673ffffffffffffffffffffffffffffffffffffffff16815260200190815260200160002060008282546103859190610b8a565b92505081905550806005600082825461039e9190610b8a565b92505081905550600160009054906101000a900473ffffffffffffffffffffffffffffffffffffffff1673ffffffffffffffffffffffffffffffffffffffff1663474cf53d8260008054906101000a900473ffffffffffffffffffffffffffffffffffffffff163060006040518563ffffffff1660e01b815260040161042693929190610c42565b6000604051808303818588803b15801561043f57600080fd5b505af1158015610453573d6000803e3d6000fd5b50505050508173ffffffffffffffffffffffffffffffffffffffff16600360009054906101000a900473ffffffffffffffffffffffffffffffffffffffff1673ffffffffffffffffffffffffffffffffffffffff167f5dac0c1b1112564a045ba943c9d50270893e8e826c49be8e7073adc713ab7bd7836040516104d79190610a2b565b60405180910390a35050565b60006104ed6105a6565b905061051b81600360009054906101000a900473ffffffffffffffffffffffffffffffffffffffff16610792565b600360009054906101000a900473ffffffffffffffffffffffffffffffffffffffff1673ffffffffffffffffffffffffffffffffffffffff167fd8138f8a3f377c5259ca548e70e4c2de94f129f5a11036a15b69513cba2b426a826040516105839190610a2b565b60405180910390a250565b60046020528060005260406000206000915090505481565b60006105b0610327565b600260009054906101000a900473ffffffffffffffffffffffffffffffffffffffff1673ffffffffffffffffffffffffffffffffffffffff166370a08231306040518263ffffffff1660e01b815260040161060b9190610c79565b602060405180830381865afa158015610628573d6000803e3d6000fd5b505050506040513d601f19601f8201168201806040525081019061064c9190610cc0565b6106569190610ced565b905090565b6000600460008373ffffffffffffffffffffffffffffffffffffffff1673ffffffffffffffffffffffffffffffffffffffff1681526020019081526020016000205490506000600460008473ffffffffffffffffffffffffffffffffffffffff1673ffffffffffffffffffffffffffffffffffffffff1681526020019081526020016000208190555080600560008282546106f69190610ced565b925050819055506107078183610792565b8173ffffffffffffffffffffffffffffffffffffffff16600360009054906101000a900473ffffffffffffffffffffffffffffffffffffffff1673ffffffffffffffffffffffffffffffffffffffff167fd8654fcc8cf5b36d30b3f5e4688fc78118e6d68de60b9994e09902268b57c3e3836040516107869190610a2b565b60405180910390a35050565b600260009054906101000a900473ffffffffffffffffffffffffffffffffffffffff1673ffffffffffffffffffffffffffffffffffffffff1663095ea7b3600160009054906101000a900473ffffffffffffffffffffffffffffffffffffffff16846040518363ffffffff1660e01b8152600401610811929190610d21565b6020604051808303816000875af1158015610830573d6000803e3d6000fd5b505050506040513d601f19601f820116820180604052508101906108549190610d82565b610893576040517f08c379a000000000000000000000000000000000000000000000000000000000815260040161088a90610dfb565b60405180910390fd5b600160009054906101000a900473ffffffffffffffffffffffffffffffffffffffff1673ffffffffffffffffffffffffffffffffffffffff166380500d2060008054906101000a900473ffffffffffffffffffffffffffffffffffffffff1684846040518463ffffffff1660e01b815260040161091293929190610e1b565b600060405180830381600087803b15801561092c57600080fd5b505af1158015610940573d6000803e3d6000fd5b505050505050565b600080fd5b600073ffffffffffffffffffffffffffffffffffffffff82169050919050565b60006109788261094d565b9050919050565b6109888161096d565b811461099357600080fd5b50565b6000813590506109a58161097f565b92915050565b600080600080608085870312156109c5576109c4610948565b5b60006109d387828801610996565b94505060206109e487828801610996565b93505060406109f587828801610996565b9250506060610a0687828801610996565b91505092959194509250565b6000819050919050565b610a2581610a12565b82525050565b6000602082019050610a406000830184610a1c565b92915050565b600060208284031215610a5c57610a5b610948565b5b6000610a6a84828501610996565b91505092915050565b6000610a7e8261094d565b9050919050565b610a8e81610a73565b8114610a9957600080fd5b50565b600081359050610aab81610a85565b92915050565b600060208284031215610ac757610ac6610948565b5b6000610ad584828501610a9c565b91505092915050565b600082825260208201905092915050565b7f616c726561647920696e697469616c697a656400000000000000000000000000600082015250565b6000610b25601383610ade565b9150610b3082610aef565b602082019050919050565b60006020820190508181036000830152610b5481610b18565b9050919050565b7f4e487b7100000000000000000000000000000000000000000000000000000000600052601160045260246000fd5b6000610b9582610a12565b9150610ba083610a12565b9250827fffffffffffffffffffffffffffffffffffffffffffffffffffffffffffffffff03821115610bd557610bd4610b5b565b5b828201905092915050565b610be98161096d565b82525050565b6000819050919050565b600061ffff82169050919050565b6000819050919050565b6000610c2c610c27610c2284610bef565b610c07565b610bf9565b9050919050565b610c3c81610c11565b82525050565b6000606082019050610c576000830186610be0565b610c646020830185610be0565b610c716040830184610c33565b949350505050565b6000602082019050610c8e6000830184610be0565b92915050565b610c9d81610a12565b8114610ca857600080fd5b50565b600081519050610cba81610c94565b92915050565b600060208284031215610cd657610cd5610948565b5b6000610ce484828501610cab565b91505092915050565b6000610cf882610a12565b9150610d0383610a12565b925082821015610d1657610d15610b5b565b5b828203905092915050565b6000604082019050610d366000830185610be0565b610d436020830184610a1c565b9392505050565b60008115159050919050565b610d5f81610d4a565b8114610d6a57600080fd5b50565b600081519050610d7c81610d56565b92915050565b600060208284031215610d9857610d97610948565b5b6000610da684828501610d6d565b91505092915050565b7f657468677720617070726f76616c206661696c65640000000000000000000000600082015250565b6000610de5601583610ade565b9150610df082610daf565b602082019050919050565b60006020820190508181036000830152610e1481610dd8565b9050919050565b6000606082019050610e306000830186610be0565b610e3d6020830185610a1c565b610e4a6040830184610be0565b94935050505056fea26469706673582212204f4bc00a1daf214e4a5876d53c173c781e00fa5c7cfdb4af7934d4f87c16246f64736f6c634300080a0033",
  "linkReferences": {},
  "deployedLinkReferences": {}
}