{
  "_format": "hh-sol-artifact-1",
  "contractName": "YieldGate",
  "sourceName": "contracts/YieldGate.sol",
  "abi": [
    {
      "inputs": [
        {
          "internalType": "address",
          "name": "_pool",
          "type": "address"
        },
        {
          "internalType": "address",
          "name": "wethGateway",
          "type": "address"
        },
        {
          "internalType": "address",
          "name": "aWETH",
          "type": "address"
        }
      ],
      "stateMutability": "nonpayable",
      "type": "constructor"
    },
    {
      "anonymous": false,
      "inputs": [
        {
          "indexed": true,
          "internalType": "address",
          "name": "beneficiary",
          "type": "address"
        },
        {
          "indexed": false,
          "internalType": "uint256",
          "name": "amount",
          "type": "uint256"
        }
      ],
      "name": "Claimed",
      "type": "event"
    },
    {
      "anonymous": false,
      "inputs": [
        {
          "indexed": true,
          "internalType": "address",
          "name": "beneficiary",
          "type": "address"
        },
        {
          "indexed": true,
          "internalType": "address",
          "name": "supporter",
          "type": "address"
        },
        {
          "indexed": false,
          "internalType": "uint256",
          "name": "amount",
          "type": "uint256"
        }
      ],
      "name": "Staked",
      "type": "event"
    },
    {
      "anonymous": false,
      "inputs": [
        {
          "indexed": true,
          "internalType": "address",
          "name": "beneficiary",
          "type": "address"
        },
        {
          "indexed": true,
          "internalType": "address",
          "name": "supporter",
          "type": "address"
        },
        {
          "indexed": false,
          "internalType": "uint256",
          "name": "amount",
          "type": "uint256"
        }
      ],
      "name": "Unstaked",
      "type": "event"
    },
    {
      "inputs": [
        {
          "internalType": "address",
          "name": "",
          "type": "address"
        }
      ],
      "name": "beneficiaryPools",
      "outputs": [
        {
          "internalType": "contract BeneficiaryPool",
          "name": "",
          "type": "address"
        }
      ],
      "stateMutability": "view",
      "type": "function"
    },
    {
      "inputs": [],
      "name": "claim",
      "outputs": [],
      "stateMutability": "nonpayable",
      "type": "function"
    },
    {
      "inputs": [
        {
          "internalType": "address",
          "name": "beneficiary",
          "type": "address"
        }
      ],
      "name": "claimable",
      "outputs": [
        {
          "internalType": "uint256",
          "name": "",
          "type": "uint256"
        }
      ],
      "stateMutability": "view",
      "type": "function"
    },
    {
      "inputs": [
        {
          "internalType": "address",
          "name": "beneficiary",
          "type": "address"
        }
      ],
      "name": "getOrDeployPool",
      "outputs": [
        {
          "internalType": "address",
          "name": "",
          "type": "address"
        }
      ],
      "stateMutability": "nonpayable",
      "type": "function"
    },
    {
      "inputs": [
        {
          "internalType": "address",
          "name": "beneficiary",
          "type": "address"
        }
      ],
      "name": "stake",
      "outputs": [],
      "stateMutability": "payable",
      "type": "function"
    },
    {
      "inputs": [
        {
          "internalType": "address",
          "name": "beneficiary",
          "type": "address"
        }
      ],
      "name": "staked",
      "outputs": [
        {
          "internalType": "uint256",
          "name": "",
          "type": "uint256"
        }
      ],
      "stateMutability": "view",
      "type": "function"
    },
    {
      "inputs": [
        {
          "internalType": "address",
          "name": "supporter",
          "type": "address"
        },
        {
          "internalType": "address",
          "name": "beneficiary",
          "type": "address"
        }
      ],
      "name": "supporterStaked",
      "outputs": [
        {
          "internalType": "uint256",
          "name": "",
          "type": "uint256"
        }
      ],
      "stateMutability": "view",
      "type": "function"
    },
    {
      "inputs": [
        {
          "internalType": "address",
          "name": "beneficiary",
          "type": "address"
        }
      ],
      "name": "unstake",
      "outputs": [],
      "stateMutability": "nonpayable",
      "type": "function"
    }
  ],
  "bytecode": "0x6101006040523480156200001257600080fd5b5060405162001f0838038062001f088339818101604052810190620000389190620001b4565b8273ffffffffffffffffffffffffffffffffffffffff1660a08173ffffffffffffffffffffffffffffffffffffffff16815250508173ffffffffffffffffffffffffffffffffffffffff1660c08173ffffffffffffffffffffffffffffffffffffffff16815250508073ffffffffffffffffffffffffffffffffffffffff1660e08173ffffffffffffffffffffffffffffffffffffffff1681525050604051620000e2906200013c565b604051809103906000f080158015620000ff573d6000803e3d6000fd5b5073ffffffffffffffffffffffffffffffffffffffff1660808173ffffffffffffffffffffffffffffffffffffffff168152505050505062000210565b610d77806200119183390190565b600080fd5b600073ffffffffffffffffffffffffffffffffffffffff82169050919050565b60006200017c826200014f565b9050919050565b6200018e816200016f565b81146200019a57600080fd5b50565b600081519050620001ae8162000183565b92915050565b600080600060608486031215620001d057620001cf6200014a565b5b6000620001e0868287016200019d565b9350506020620001f3868287016200019d565b925050604062000206868287016200019d565b9150509250925092565b60805160a05160c05160e051610f476200024a60003960006109f0015260006109cf015260006109ae0152600061096a0152610f476000f3fe60806040526004361061007b5760003560e01c806398807d841161004e57806398807d841461012d578063a8401be51461016a578063bfb689c3146101a7578063f2888dbb146101e45761007b565b80632647620414610080578063402914f51461009c5780634e71d92d146100d9578063956d67c6146100f0575b600080fd5b61009a60048036038101906100959190610c1f565b61020d565b005b3480156100a857600080fd5b506100c360048036038101906100be9190610c1f565b610307565b6040516100d09190610c65565b60405180910390f35b3480156100e557600080fd5b506100ee610422565b005b3480156100fc57600080fd5b5061011760048036038101906101129190610c1f565b610543565b6040516101249190610cdf565b60405180910390f35b34801561013957600080fd5b50610154600480360381019061014f9190610c1f565b610576565b6040516101619190610c65565b60405180910390f35b34801561017657600080fd5b50610191600480360381019061018c9190610c1f565b610691565b60405161019e9190610d09565b60405180910390f35b3480156101b357600080fd5b506101ce60048036038101906101c99190610d24565b610744565b6040516101db9190610c65565b60405180910390f35b3480156101f057600080fd5b5061020b60048036038101906102069190610c1f565b61086b565b005b600061021882610691565b905060003490508173ffffffffffffffffffffffffffffffffffffffff16632647620482336040518363ffffffff1660e01b81526004016102599190610d09565b60206040518083038185885af1158015610277573d6000803e3d6000fd5b50505050506040513d601f19601f8201168201806040525081019061029c9190610d90565b503373ffffffffffffffffffffffffffffffffffffffff168373ffffffffffffffffffffffffffffffffffffffff167f5dac0c1b1112564a045ba943c9d50270893e8e826c49be8e7073adc713ab7bd7836040516102fa9190610c65565b60405180910390a3505050565b6000806000808473ffffffffffffffffffffffffffffffffffffffff1673ffffffffffffffffffffffffffffffffffffffff16815260200190815260200160002060009054906101000a900473ffffffffffffffffffffffffffffffffffffffff169050600073ffffffffffffffffffffffffffffffffffffffff168173ffffffffffffffffffffffffffffffffffffffff1614156103aa57600091505061041d565b8073ffffffffffffffffffffffffffffffffffffffff1663af38d7576040518163ffffffff1660e01b8152600401602060405180830381865afa1580156103f5573d6000803e3d6000fd5b505050506040513d601f19601f820116820180604052508101906104199190610d90565b9150505b919050565b6000803373ffffffffffffffffffffffffffffffffffffffff1673ffffffffffffffffffffffffffffffffffffffff16815260200190815260200160002060009054906101000a900473ffffffffffffffffffffffffffffffffffffffff1673ffffffffffffffffffffffffffffffffffffffff16634e71d92d6040518163ffffffff1660e01b81526004016020604051808303816000875af11580156104cd573d6000803e3d6000fd5b505050506040513d601f19601f820116820180604052508101906104f19190610d90565b503373ffffffffffffffffffffffffffffffffffffffff167fd8138f8a3f377c5259ca548e70e4c2de94f129f5a11036a15b69513cba2b426a607b6040516105399190610df8565b60405180910390a2565b60006020528060005260406000206000915054906101000a900473ffffffffffffffffffffffffffffffffffffffff1681565b6000806000808473ffffffffffffffffffffffffffffffffffffffff1673ffffffffffffffffffffffffffffffffffffffff16815260200190815260200160002060009054906101000a900473ffffffffffffffffffffffffffffffffffffffff169050600073ffffffffffffffffffffffffffffffffffffffff168173ffffffffffffffffffffffffffffffffffffffff16141561061957600091505061068c565b8073ffffffffffffffffffffffffffffffffffffffff16630b76619b6040518163ffffffff1660e01b8152600401602060405180830381865afa158015610664573d6000803e3d6000fd5b505050506040513d601f19601f820116820180604052508101906106889190610d90565b9150505b919050565b6000806000808473ffffffffffffffffffffffffffffffffffffffff1673ffffffffffffffffffffffffffffffffffffffff16815260200190815260200160002060009054906101000a900473ffffffffffffffffffffffffffffffffffffffff169050600073ffffffffffffffffffffffffffffffffffffffff168173ffffffffffffffffffffffffffffffffffffffff1614610732578091505061073f565b61073b83610962565b9150505b919050565b6000806000808473ffffffffffffffffffffffffffffffffffffffff1673ffffffffffffffffffffffffffffffffffffffff16815260200190815260200160002060009054906101000a900473ffffffffffffffffffffffffffffffffffffffff169050600073ffffffffffffffffffffffffffffffffffffffff168173ffffffffffffffffffffffffffffffffffffffff1614156107e7576000915050610865565b8073ffffffffffffffffffffffffffffffffffffffff1663647c75e2856040518263ffffffff1660e01b81526004016108209190610d09565b602060405180830381865afa15801561083d573d6000803e3d6000fd5b505050506040513d601f19601f820116820180604052508101906108619190610d90565b9150505b92915050565b600061087682610691565b905060008173ffffffffffffffffffffffffffffffffffffffff1663f2888dbb336040518263ffffffff1660e01b81526004016108b39190610e34565b6020604051808303816000875af11580156108d2573d6000803e3d6000fd5b505050506040513d601f19601f820116820180604052508101906108f69190610d90565b90503373ffffffffffffffffffffffffffffffffffffffff168373ffffffffffffffffffffffffffffffffffffffff167fd8654fcc8cf5b36d30b3f5e4688fc78118e6d68de60b9994e09902268b57c3e3836040516109559190610c65565b60405180910390a3505050565b60008061098e7f0000000000000000000000000000000000000000000000000000000000000000610ae7565b90508073ffffffffffffffffffffffffffffffffffffffff166306552ff37f00000000000000000000000000000000000000000000000000000000000000007f00000000000000000000000000000000000000000000000000000000000000007f0000000000000000000000000000000000000000000000000000000000000000876040518563ffffffff1660e01b8152600401610a2f9493929190610e4f565b600060405180830381600087803b158015610a4957600080fd5b505af1158015610a5d573d6000803e3d6000fd5b50505050806000808573ffffffffffffffffffffffffffffffffffffffff1673ffffffffffffffffffffffffffffffffffffffff16815260200190815260200160002060006101000a81548173ffffffffffffffffffffffffffffffffffffffff021916908373ffffffffffffffffffffffffffffffffffffffff16021790555080915050919050565b60006040517f3d602d80600a3d3981f3363d3d373d3d3d363d7300000000000000000000000081528260601b60148201527f5af43d82803e903d91602b57fd5bf3000000000000000000000000000000000060288201526037816000f0915050600073ffffffffffffffffffffffffffffffffffffffff168173ffffffffffffffffffffffffffffffffffffffff161415610bb7576040517f08c379a0000000000000000000000000000000000000000000000000000000008152600401610bae90610ef1565b60405180910390fd5b919050565b600080fd5b600073ffffffffffffffffffffffffffffffffffffffff82169050919050565b6000610bec82610bc1565b9050919050565b610bfc81610be1565b8114610c0757600080fd5b50565b600081359050610c1981610bf3565b92915050565b600060208284031215610c3557610c34610bbc565b5b6000610c4384828501610c0a565b91505092915050565b6000819050919050565b610c5f81610c4c565b82525050565b6000602082019050610c7a6000830184610c56565b92915050565b6000819050919050565b6000610ca5610ca0610c9b84610bc1565b610c80565b610bc1565b9050919050565b6000610cb782610c8a565b9050919050565b6000610cc982610cac565b9050919050565b610cd981610cbe565b82525050565b6000602082019050610cf46000830184610cd0565b92915050565b610d0381610be1565b82525050565b6000602082019050610d1e6000830184610cfa565b92915050565b60008060408385031215610d3b57610d3a610bbc565b5b6000610d4985828601610c0a565b9250506020610d5a85828601610c0a565b9150509250929050565b610d6d81610c4c565b8114610d7857600080fd5b50565b600081519050610d8a81610d64565b92915050565b600060208284031215610da657610da5610bbc565b5b6000610db484828501610d7b565b91505092915050565b6000819050919050565b6000610de2610ddd610dd884610dbd565b610c80565b610c4c565b9050919050565b610df281610dc7565b82525050565b6000602082019050610e0d6000830184610de9565b92915050565b6000610e1e82610bc1565b9050919050565b610e2e81610e13565b82525050565b6000602082019050610e496000830184610e25565b92915050565b6000608082019050610e646000830187610cfa565b610e716020830186610cfa565b610e7e6040830185610cfa565b610e8b6060830184610cfa565b95945050505050565b600082825260208201905092915050565b7f455243313136373a20637265617465206661696c656400000000000000000000600082015250565b6000610edb601683610e94565b9150610ee682610ea5565b602082019050919050565b60006020820190508181036000830152610f0a81610ece565b905091905056fea2646970667358221220352adee439c937c3d5c090b93d6d9d76d995347344f1bfce1d7f482c988576ea64736f6c634300080a0033608060405234801561001057600080fd5b50610d57806100206000396000f3fe6080604052600436106100705760003560e01c80634e71d92d1161004e5780634e71d92d146100f9578063647c75e214610124578063af38d75714610161578063f2888dbb1461018c57610070565b806306552ff3146100755780630b76619b1461009e57806326476204146100c9575b600080fd5b34801561008157600080fd5b5061009c6004803603810190610097919061087a565b6101c9565b005b3480156100aa57600080fd5b506100b3610363565b6040516100c091906108fa565b60405180910390f35b6100e360048036038101906100de9190610915565b61036d565b6040516100f091906108fa565b60405180910390f35b34801561010557600080fd5b5061010e61049e565b60405161011b91906108fa565b60405180910390f35b34801561013057600080fd5b5061014b60048036038101906101469190610915565b6104de565b60405161015891906108fa565b60405180910390f35b34801561016d57600080fd5b506101766104f6565b60405161018391906108fa565b60405180910390f35b34801561019857600080fd5b506101b360048036038101906101ae9190610980565b6105ab565b6040516101c091906108fa565b60405180910390f35b600073ffffffffffffffffffffffffffffffffffffffff16600360009054906101000a900473ffffffffffffffffffffffffffffffffffffffff1673ffffffffffffffffffffffffffffffffffffffff161461025a576040517f08c379a000000000000000000000000000000000000000000000000000000000815260040161025190610a0a565b60405180910390fd5b836000806101000a81548173ffffffffffffffffffffffffffffffffffffffff021916908373ffffffffffffffffffffffffffffffffffffffff16021790555082600160006101000a81548173ffffffffffffffffffffffffffffffffffffffff021916908373ffffffffffffffffffffffffffffffffffffffff16021790555081600260006101000a81548173ffffffffffffffffffffffffffffffffffffffff021916908373ffffffffffffffffffffffffffffffffffffffff16021790555080600360006101000a81548173ffffffffffffffffffffffffffffffffffffffff021916908373ffffffffffffffffffffffffffffffffffffffff16021790555050505050565b6000600554905090565b60008034905080600460008573ffffffffffffffffffffffffffffffffffffffff1673ffffffffffffffffffffffffffffffffffffffff16815260200190815260200160002060008282546103c29190610a59565b9250508190555080600560008282546103db9190610a59565b92505081905550600160009054906101000a900473ffffffffffffffffffffffffffffffffffffffff1673ffffffffffffffffffffffffffffffffffffffff1663474cf53d8260008054906101000a900473ffffffffffffffffffffffffffffffffffffffff163060006040518563ffffffff1660e01b815260040161046393929190610b11565b6000604051808303818588803b15801561047c57600080fd5b505af1158015610490573d6000803e3d6000fd5b505050505080915050919050565b6000806104a96104f6565b90506104d781600360009054906101000a900473ffffffffffffffffffffffffffffffffffffffff16610661565b8091505090565b60046020528060005260406000206000915090505481565b6000610500610363565b600260009054906101000a900473ffffffffffffffffffffffffffffffffffffffff1673ffffffffffffffffffffffffffffffffffffffff166370a08231306040518263ffffffff1660e01b815260040161055b9190610b48565b602060405180830381865afa158015610578573d6000803e3d6000fd5b505050506040513d601f19601f8201168201806040525081019061059c9190610b8f565b6105a69190610bbc565b905090565b600080600460008473ffffffffffffffffffffffffffffffffffffffff1673ffffffffffffffffffffffffffffffffffffffff1681526020019081526020016000205490506000600460008573ffffffffffffffffffffffffffffffffffffffff1673ffffffffffffffffffffffffffffffffffffffff1681526020019081526020016000208190555080600560008282546106479190610bbc565b925050819055506106588184610661565b80915050919050565b600260009054906101000a900473ffffffffffffffffffffffffffffffffffffffff1673ffffffffffffffffffffffffffffffffffffffff1663095ea7b3600160009054906101000a900473ffffffffffffffffffffffffffffffffffffffff16846040518363ffffffff1660e01b81526004016106e0929190610bf0565b6020604051808303816000875af11580156106ff573d6000803e3d6000fd5b505050506040513d601f19601f820116820180604052508101906107239190610c51565b610762576040517f08c379a000000000000000000000000000000000000000000000000000000000815260040161075990610cca565b60405180910390fd5b600160009054906101000a900473ffffffffffffffffffffffffffffffffffffffff1673ffffffffffffffffffffffffffffffffffffffff166380500d2060008054906101000a900473ffffffffffffffffffffffffffffffffffffffff1684846040518463ffffffff1660e01b81526004016107e193929190610cea565b600060405180830381600087803b1580156107fb57600080fd5b505af115801561080f573d6000803e3d6000fd5b505050505050565b600080fd5b600073ffffffffffffffffffffffffffffffffffffffff82169050919050565b60006108478261081c565b9050919050565b6108578161083c565b811461086257600080fd5b50565b6000813590506108748161084e565b92915050565b6000806000806080858703121561089457610893610817565b5b60006108a287828801610865565b94505060206108b387828801610865565b93505060406108c487828801610865565b92505060606108d587828801610865565b91505092959194509250565b6000819050919050565b6108f4816108e1565b82525050565b600060208201905061090f60008301846108eb565b92915050565b60006020828403121561092b5761092a610817565b5b600061093984828501610865565b91505092915050565b600061094d8261081c565b9050919050565b61095d81610942565b811461096857600080fd5b50565b60008135905061097a81610954565b92915050565b60006020828403121561099657610995610817565b5b60006109a48482850161096b565b91505092915050565b600082825260208201905092915050565b7f616c726561647920696e697469616c697a656400000000000000000000000000600082015250565b60006109f46013836109ad565b91506109ff826109be565b602082019050919050565b60006020820190508181036000830152610a23816109e7565b9050919050565b7f4e487b7100000000000000000000000000000000000000000000000000000000600052601160045260246000fd5b6000610a64826108e1565b9150610a6f836108e1565b9250827fffffffffffffffffffffffffffffffffffffffffffffffffffffffffffffffff03821115610aa457610aa3610a2a565b5b828201905092915050565b610ab88161083c565b82525050565b6000819050919050565b600061ffff82169050919050565b6000819050919050565b6000610afb610af6610af184610abe565b610ad6565b610ac8565b9050919050565b610b0b81610ae0565b82525050565b6000606082019050610b266000830186610aaf565b610b336020830185610aaf565b610b406040830184610b02565b949350505050565b6000602082019050610b5d6000830184610aaf565b92915050565b610b6c816108e1565b8114610b7757600080fd5b50565b600081519050610b8981610b63565b92915050565b600060208284031215610ba557610ba4610817565b5b6000610bb384828501610b7a565b91505092915050565b6000610bc7826108e1565b9150610bd2836108e1565b925082821015610be557610be4610a2a565b5b828203905092915050565b6000604082019050610c056000830185610aaf565b610c1260208301846108eb565b9392505050565b60008115159050919050565b610c2e81610c19565b8114610c3957600080fd5b50565b600081519050610c4b81610c25565b92915050565b600060208284031215610c6757610c66610817565b5b6000610c7584828501610c3c565b91505092915050565b7f657468677720617070726f76616c206661696c65640000000000000000000000600082015250565b6000610cb46015836109ad565b9150610cbf82610c7e565b602082019050919050565b60006020820190508181036000830152610ce381610ca7565b9050919050565b6000606082019050610cff6000830186610aaf565b610d0c60208301856108eb565b610d196040830184610aaf565b94935050505056fea26469706673582212200b5e11fc0d650fe3db2b460573f1809c42e8dd071c105caa07239abbe8b0ba4564736f6c634300080a0033",
  "linkReferences": {},
  "deployedLinkReferences": {}
}