{
  "_format": "hh-sol-artifact-1",
  "contractName": "YieldGate",
  "sourceName": "contracts/YieldGate.sol",
  "abi": [
    {
      "inputs": [
        {
          "internalType": "address",
          "name": "wethGateway",
          "type": "address"
        },
        {
          "internalType": "address",
          "name": "aWETH",
          "type": "address"
        }
      ],
      "stateMutability": "nonpayable",
      "type": "constructor"
    },
    {
      "inputs": [
        {
          "internalType": "address",
          "name": "",
          "type": "address"
        }
      ],
      "name": "beneficiaryPools",
      "outputs": [
        {
          "internalType": "contract BeneficiaryPool",
          "name": "",
          "type": "address"
        }
      ],
      "stateMutability": "view",
      "type": "function"
    },
    {
      "inputs": [
        {
          "internalType": "address",
          "name": "beneficiary",
          "type": "address"
        }
      ],
      "name": "earned",
      "outputs": [
        {
          "internalType": "uint256",
          "name": "",
          "type": "uint256"
        }
      ],
      "stateMutability": "view",
      "type": "function"
    },
    {
      "inputs": [
        {
          "internalType": "address",
          "name": "beneficiary",
          "type": "address"
        }
      ],
      "name": "getOrDeployPool",
      "outputs": [
        {
          "internalType": "address",
          "name": "",
          "type": "address"
        }
      ],
      "stateMutability": "nonpayable",
      "type": "function"
    },
    {
      "inputs": [
        {
          "internalType": "address",
          "name": "beneficiary",
          "type": "address"
        }
      ],
      "name": "staked",
      "outputs": [
        {
          "internalType": "uint256",
          "name": "",
          "type": "uint256"
        }
      ],
      "stateMutability": "view",
      "type": "function"
    }
  ],
  "bytecode": "0x60806040523480156200001157600080fd5b5060405162001ae238038062001ae28339818101604052810190620000379190620002a7565b620000686040518060600160405280602d815260200162001ab5602d913983836200015d60201b620003a51760201c565b81600160006101000a81548173ffffffffffffffffffffffffffffffffffffffff021916908373ffffffffffffffffffffffffffffffffffffffff16021790555080600260006101000a81548173ffffffffffffffffffffffffffffffffffffffff021916908373ffffffffffffffffffffffffffffffffffffffff160217905550604051620000f8906200022f565b604051809103906000f08015801562000115573d6000803e3d6000fd5b506000806101000a81548173ffffffffffffffffffffffffffffffffffffffff021916908373ffffffffffffffffffffffffffffffffffffffff1602179055505050620003e7565b620002018383836040516024016200017893929190620003a3565b6040516020818303038152906040527ffcec75e0000000000000000000000000000000000000000000000000000000007bffffffffffffffffffffffffffffffffffffffffffffffffffffffff19166020820180517bffffffffffffffffffffffffffffffffffffffffffffffffffffffff83818316178352505050506200020660201b60201c565b505050565b60008151905060006a636f6e736f6c652e6c6f679050602083016000808483855afa5050505050565b610ca38062000e1283390190565b600080fd5b600073ffffffffffffffffffffffffffffffffffffffff82169050919050565b60006200026f8262000242565b9050919050565b620002818162000262565b81146200028d57600080fd5b50565b600081519050620002a18162000276565b92915050565b60008060408385031215620002c157620002c06200023d565b5b6000620002d18582860162000290565b9250506020620002e48582860162000290565b9150509250929050565b600081519050919050565b600082825260208201905092915050565b60005b838110156200032a5780820151818401526020810190506200030d565b838111156200033a576000848401525b50505050565b6000601f19601f8301169050919050565b60006200035e82620002ee565b6200036a8185620002f9565b93506200037c8185602086016200030a565b620003878162000340565b840191505092915050565b6200039d8162000262565b82525050565b60006060820190508181036000830152620003bf818662000351565b9050620003d0602083018562000392565b620003df604083018462000392565b949350505050565b610a1b80620003f76000396000f3fe608060405234801561001057600080fd5b506004361061004b5760003560e01c80628cc26214610050578063956d67c61461008057806398807d84146100b0578063a8401be5146100e0575b600080fd5b61006a6004803603810190610065919061070d565b610110565b6040516100779190610753565b60405180910390f35b61009a6004803603810190610095919061070d565b6101e7565b6040516100a791906107cd565b60405180910390f35b6100ca60048036038101906100c5919061070d565b61021a565b6040516100d79190610753565b60405180910390f35b6100fa60048036038101906100f5919061070d565b6102f1565b60405161010791906107f7565b60405180910390f35b6000600360008373ffffffffffffffffffffffffffffffffffffffff1673ffffffffffffffffffffffffffffffffffffffff16815260200190815260200160002060009054906101000a900473ffffffffffffffffffffffffffffffffffffffff1673ffffffffffffffffffffffffffffffffffffffff1663d6f192626040518163ffffffff1660e01b8152600401602060405180830381865afa1580156101bc573d6000803e3d6000fd5b505050506040513d601f19601f820116820180604052508101906101e0919061083e565b9050919050565b60036020528060005260406000206000915054906101000a900473ffffffffffffffffffffffffffffffffffffffff1681565b6000600360008373ffffffffffffffffffffffffffffffffffffffff1673ffffffffffffffffffffffffffffffffffffffff16815260200190815260200160002060009054906101000a900473ffffffffffffffffffffffffffffffffffffffff1673ffffffffffffffffffffffffffffffffffffffff16630b76619b6040518163ffffffff1660e01b8152600401602060405180830381865afa1580156102c6573d6000803e3d6000fd5b505050506040513d601f19601f820116820180604052508101906102ea919061083e565b9050919050565b600080600360008473ffffffffffffffffffffffffffffffffffffffff1673ffffffffffffffffffffffffffffffffffffffff16815260200190815260200160002060009054906101000a900473ffffffffffffffffffffffffffffffffffffffff169050600073ffffffffffffffffffffffffffffffffffffffff168173ffffffffffffffffffffffffffffffffffffffff161461039357809150506103a0565b61039c83610444565b9150505b919050565b61043f8383836040516024016103bd93929190610904565b6040516020818303038152906040527ffcec75e0000000000000000000000000000000000000000000000000000000007bffffffffffffffffffffffffffffffffffffffffffffffffffffffff19166020820180517bffffffffffffffffffffffffffffffffffffffffffffffffffffffff83818316178352505050506105ac565b505050565b60008061047060008054906101000a900473ffffffffffffffffffffffffffffffffffffffff166105d5565b90508073ffffffffffffffffffffffffffffffffffffffff1663184b9559600160009054906101000a900473ffffffffffffffffffffffffffffffffffffffff16600260009054906101000a900473ffffffffffffffffffffffffffffffffffffffff16866040518463ffffffff1660e01b81526004016104f393929190610942565b600060405180830381600087803b15801561050d57600080fd5b505af1158015610521573d6000803e3d6000fd5b5050505080600360008573ffffffffffffffffffffffffffffffffffffffff1673ffffffffffffffffffffffffffffffffffffffff16815260200190815260200160002060006101000a81548173ffffffffffffffffffffffffffffffffffffffff021916908373ffffffffffffffffffffffffffffffffffffffff16021790555080915050919050565b60008151905060006a636f6e736f6c652e6c6f679050602083016000808483855afa5050505050565b60006040517f3d602d80600a3d3981f3363d3d373d3d3d363d7300000000000000000000000081528260601b60148201527f5af43d82803e903d91602b57fd5bf3000000000000000000000000000000000060288201526037816000f0915050600073ffffffffffffffffffffffffffffffffffffffff168173ffffffffffffffffffffffffffffffffffffffff1614156106a5576040517f08c379a000000000000000000000000000000000000000000000000000000000815260040161069c906109c5565b60405180910390fd5b919050565b600080fd5b600073ffffffffffffffffffffffffffffffffffffffff82169050919050565b60006106da826106af565b9050919050565b6106ea816106cf565b81146106f557600080fd5b50565b600081359050610707816106e1565b92915050565b600060208284031215610723576107226106aa565b5b6000610731848285016106f8565b91505092915050565b6000819050919050565b61074d8161073a565b82525050565b60006020820190506107686000830184610744565b92915050565b6000819050919050565b600061079361078e610789846106af565b61076e565b6106af565b9050919050565b60006107a582610778565b9050919050565b60006107b78261079a565b9050919050565b6107c7816107ac565b82525050565b60006020820190506107e260008301846107be565b92915050565b6107f1816106cf565b82525050565b600060208201905061080c60008301846107e8565b92915050565b61081b8161073a565b811461082657600080fd5b50565b60008151905061083881610812565b92915050565b600060208284031215610854576108536106aa565b5b600061086284828501610829565b91505092915050565b600081519050919050565b600082825260208201905092915050565b60005b838110156108a557808201518184015260208101905061088a565b838111156108b4576000848401525b50505050565b6000601f19601f8301169050919050565b60006108d68261086b565b6108e08185610876565b93506108f0818560208601610887565b6108f9816108ba565b840191505092915050565b6000606082019050818103600083015261091e81866108cb565b905061092d60208301856107e8565b61093a60408301846107e8565b949350505050565b600060608201905061095760008301866107e8565b61096460208301856107e8565b61097160408301846107e8565b949350505050565b7f455243313136373a20637265617465206661696c656400000000000000000000600082015250565b60006109af601683610876565b91506109ba82610979565b602082019050919050565b600060208201905081810360008301526109de816109a2565b905091905056fea2646970667358221220c4062e46db1b62ea59ba3564a620073ae66b23738055490859f60e5adeaf5f3f64736f6c634300080a0033608060405234801561001057600080fd5b50610c83806100206000396000f3fe6080604052600436106100705760003560e01c80633a4b66f11161004e5780633a4b66f1146100e05780634e71d92d146100ea578063647c75e214610101578063d6f192621461013e57610070565b80630b76619b14610075578063184b9559146100a05780632def6620146100c9575b600080fd5b34801561008157600080fd5b5061008a610169565b6040516100979190610884565b60405180910390f35b3480156100ac57600080fd5b506100c760048036038101906100c29190610902565b6101d9565b005b3480156100d557600080fd5b506100de610355565b005b6100e8610443565b005b3480156100f657600080fd5b506100ff6104fd565b005b34801561010d57600080fd5b5061012860048036038101906101239190610955565b61053e565b6040516101359190610884565b60405180910390f35b34801561014a57600080fd5b50610153610556565b6040516101609190610884565b60405180910390f35b600080600090506101d26040518060400160405280601781526020017f546f74616c207374616b656420666f722025733a202573000000000000000000815250600260009054906101000a900473ffffffffffffffffffffffffffffffffffffffff16836105c6565b8091505090565b600073ffffffffffffffffffffffffffffffffffffffff16600260009054906101000a900473ffffffffffffffffffffffffffffffffffffffff1673ffffffffffffffffffffffffffffffffffffffff161461026a576040517f08c379a0000000000000000000000000000000000000000000000000000000008152600401610261906109df565b60405180910390fd5b61028e6040518060600160405280603a8152602001610c14603a9139848484610665565b826000806101000a81548173ffffffffffffffffffffffffffffffffffffffff021916908373ffffffffffffffffffffffffffffffffffffffff16021790555081600160006101000a81548173ffffffffffffffffffffffffffffffffffffffff021916908373ffffffffffffffffffffffffffffffffffffffff16021790555080600260006101000a81548173ffffffffffffffffffffffffffffffffffffffff021916908373ffffffffffffffffffffffffffffffffffffffff160217905550505050565b6000600360003373ffffffffffffffffffffffffffffffffffffffff1673ffffffffffffffffffffffffffffffffffffffff1681526020019081526020016000205490506103fb6040518060400160405280601381526020017f556e7374616b696e6720257320666f722025730000000000000000000000000081525082600260009054906101000a900473ffffffffffffffffffffffffffffffffffffffff16610707565b6000600360003373ffffffffffffffffffffffffffffffffffffffff1673ffffffffffffffffffffffffffffffffffffffff1681526020019081526020016000208190555050565b6104a56040518060400160405280601181526020017f5374616b696e6720257320666f7220257300000000000000000000000000000081525034600260009054906101000a900473ffffffffffffffffffffffffffffffffffffffff16610707565b34600360003373ffffffffffffffffffffffffffffffffffffffff1673ffffffffffffffffffffffffffffffffffffffff16815260200190815260200160002060008282546104f49190610a2e565b92505081905550565b61053c6040518060400160405280600f81526020017f436c61696d696e6720666f722025730000000000000000000000000000000000815250336107a6565b565b60036020528060005260406000206000915090505481565b600080600090506105bf6040518060400160405280601081526020017f4561726e65642062792025733a20257300000000000000000000000000000000815250600260009054906101000a900473ffffffffffffffffffffffffffffffffffffffff16836105c6565b8091505090565b6106608383836040516024016105de93929190610b1b565b6040516020818303038152906040527f07c81217000000000000000000000000000000000000000000000000000000007bffffffffffffffffffffffffffffffffffffffffffffffffffffffff19166020820180517bffffffffffffffffffffffffffffffffffffffffffffffffffffffff8381831617835250505050610842565b505050565b6107018484848460405160240161067f9493929190610b59565b6040516020818303038152906040527fed8f28f6000000000000000000000000000000000000000000000000000000007bffffffffffffffffffffffffffffffffffffffffffffffffffffffff19166020820180517bffffffffffffffffffffffffffffffffffffffffffffffffffffffff8381831617835250505050610842565b50505050565b6107a183838360405160240161071f93929190610ba5565b6040516020818303038152906040527fe3849f79000000000000000000000000000000000000000000000000000000007bffffffffffffffffffffffffffffffffffffffffffffffffffffffff19166020820180517bffffffffffffffffffffffffffffffffffffffffffffffffffffffff8381831617835250505050610842565b505050565b61083e82826040516024016107bc929190610be3565b6040516020818303038152906040527f319af333000000000000000000000000000000000000000000000000000000007bffffffffffffffffffffffffffffffffffffffffffffffffffffffff19166020820180517bffffffffffffffffffffffffffffffffffffffffffffffffffffffff8381831617835250505050610842565b5050565b60008151905060006a636f6e736f6c652e6c6f679050602083016000808483855afa5050505050565b6000819050919050565b61087e8161086b565b82525050565b60006020820190506108996000830184610875565b92915050565b600080fd5b600073ffffffffffffffffffffffffffffffffffffffff82169050919050565b60006108cf826108a4565b9050919050565b6108df816108c4565b81146108ea57600080fd5b50565b6000813590506108fc816108d6565b92915050565b60008060006060848603121561091b5761091a61089f565b5b6000610929868287016108ed565b935050602061093a868287016108ed565b925050604061094b868287016108ed565b9150509250925092565b60006020828403121561096b5761096a61089f565b5b6000610979848285016108ed565b91505092915050565b600082825260208201905092915050565b7f616c726561647920696e697469616c697a656400000000000000000000000000600082015250565b60006109c9601383610982565b91506109d482610993565b602082019050919050565b600060208201905081810360008301526109f8816109bc565b9050919050565b7f4e487b7100000000000000000000000000000000000000000000000000000000600052601160045260246000fd5b6000610a398261086b565b9150610a448361086b565b9250827fffffffffffffffffffffffffffffffffffffffffffffffffffffffffffffffff03821115610a7957610a786109ff565b5b828201905092915050565b600081519050919050565b60005b83811015610aad578082015181840152602081019050610a92565b83811115610abc576000848401525b50505050565b6000601f19601f8301169050919050565b6000610ade82610a84565b610ae88185610982565b9350610af8818560208601610a8f565b610b0181610ac2565b840191505092915050565b610b15816108c4565b82525050565b60006060820190508181036000830152610b358186610ad3565b9050610b446020830185610b0c565b610b516040830184610875565b949350505050565b60006080820190508181036000830152610b738187610ad3565b9050610b826020830186610b0c565b610b8f6040830185610b0c565b610b9c6060830184610b0c565b95945050505050565b60006060820190508181036000830152610bbf8186610ad3565b9050610bce6020830185610875565b610bdb6040830184610b0c565b949350505050565b60006040820190508181036000830152610bfd8185610ad3565b9050610c0c6020830184610b0c565b939250505056fe4465706c6f79696e672042656e6566696369617279506f6f6c207769746820706f6f6c20257320616e6420746f6b656e20257320666f72202573a2646970667358221220926aa7cf30ce9784e077532ae7f670e231ef421f5db8404fe9923ce29667fdb064736f6c634300080a00334465706c6f79696e67205969656c6447617465207769746820706f6f6c20257320616e6420746f6b656e202573",
  "linkReferences": {},
  "deployedLinkReferences": {}
}