{
  "_format": "hh-sol-artifact-1",
  "contractName": "YieldGate",
  "sourceName": "contracts/YieldGate.sol",
  "abi": [
    {
      "inputs": [
        {
          "internalType": "address",
          "name": "_pool",
          "type": "address"
        },
        {
          "internalType": "address",
          "name": "wethGateway",
          "type": "address"
        },
        {
          "internalType": "address",
          "name": "aWETH",
          "type": "address"
        }
      ],
      "stateMutability": "nonpayable",
      "type": "constructor"
    },
    {
      "inputs": [
        {
          "internalType": "address",
          "name": "",
          "type": "address"
        }
      ],
      "name": "beneficiaryPools",
      "outputs": [
        {
          "internalType": "contract BeneficiaryPool",
          "name": "",
          "type": "address"
        }
      ],
      "stateMutability": "view",
      "type": "function"
    },
    {
      "inputs": [
        {
          "internalType": "address",
          "name": "beneficiary",
          "type": "address"
        }
      ],
      "name": "earned",
      "outputs": [
        {
          "internalType": "uint256",
          "name": "",
          "type": "uint256"
        }
      ],
      "stateMutability": "view",
      "type": "function"
    },
    {
      "inputs": [
        {
          "internalType": "address",
          "name": "beneficiary",
          "type": "address"
        }
      ],
      "name": "getOrDeployPool",
      "outputs": [
        {
          "internalType": "address",
          "name": "",
          "type": "address"
        }
      ],
      "stateMutability": "nonpayable",
      "type": "function"
    },
    {
      "inputs": [
        {
          "internalType": "address",
          "name": "beneficiary",
          "type": "address"
        }
      ],
      "name": "stake",
      "outputs": [],
      "stateMutability": "payable",
      "type": "function"
    },
    {
      "inputs": [
        {
          "internalType": "address",
          "name": "beneficiary",
          "type": "address"
        }
      ],
      "name": "staked",
      "outputs": [
        {
          "internalType": "uint256",
          "name": "",
          "type": "uint256"
        }
      ],
      "stateMutability": "view",
      "type": "function"
    },
    {
      "inputs": [
        {
          "internalType": "address",
          "name": "beneficiary",
          "type": "address"
        }
      ],
      "name": "unstake",
      "outputs": [],
      "stateMutability": "nonpayable",
      "type": "function"
    }
  ],
  "bytecode": "0x60806040523480156200001157600080fd5b50604051620022a7380380620022a78339818101604052810190620000379190620002ed565b620000696040518060600160405280603581526020016200227260359139848484620001a060201b6200051f1760201c565b82600160006101000a81548173ffffffffffffffffffffffffffffffffffffffff021916908373ffffffffffffffffffffffffffffffffffffffff16021790555081600260006101000a81548173ffffffffffffffffffffffffffffffffffffffff021916908373ffffffffffffffffffffffffffffffffffffffff16021790555080600360006101000a81548173ffffffffffffffffffffffffffffffffffffffff021916908373ffffffffffffffffffffffffffffffffffffffff1602179055506040516200013a9062000275565b604051809103906000f08015801562000157573d6000803e3d6000fd5b506000806101000a81548173ffffffffffffffffffffffffffffffffffffffff021916908373ffffffffffffffffffffffffffffffffffffffff16021790555050505062000452565b6200024684848484604051602401620001bd9493929190620003fe565b6040516020818303038152906040527fed8f28f6000000000000000000000000000000000000000000000000000000007bffffffffffffffffffffffffffffffffffffffffffffffffffffffff19166020820180517bffffffffffffffffffffffffffffffffffffffffffffffffffffffff83818316178352505050506200024c60201b60201c565b50505050565b60008151905060006a636f6e736f6c652e6c6f679050602083016000808483855afa5050505050565b6111fc806200107683390190565b600080fd5b600073ffffffffffffffffffffffffffffffffffffffff82169050919050565b6000620002b58262000288565b9050919050565b620002c781620002a8565b8114620002d357600080fd5b50565b600081519050620002e781620002bc565b92915050565b60008060006060848603121562000309576200030862000283565b5b60006200031986828701620002d6565b93505060206200032c86828701620002d6565b92505060406200033f86828701620002d6565b9150509250925092565b600081519050919050565b600082825260208201905092915050565b60005b838110156200038557808201518184015260208101905062000368565b8381111562000395576000848401525b50505050565b6000601f19601f8301169050919050565b6000620003b98262000349565b620003c5818562000354565b9350620003d781856020860162000365565b620003e2816200039b565b840191505092915050565b620003f881620002a8565b82525050565b600060808201905081810360008301526200041a8187620003ac565b90506200042b6020830186620003ed565b6200043a6040830185620003ed565b620004496060830184620003ed565b95945050505050565b610c1480620004626000396000f3fe6080604052600436106100545760003560e01c80628cc262146100595780632647620414610096578063956d67c6146100b257806398807d84146100ef578063a8401be51461012c578063f2888dbb14610169575b600080fd5b34801561006557600080fd5b50610080600480360381019061007b91906108ae565b610192565b60405161008d91906108f4565b60405180910390f35b6100b060048036038101906100ab91906108ae565b610269565b005b3480156100be57600080fd5b506100d960048036038101906100d491906108ae565b6102e5565b6040516100e6919061096e565b60405180910390f35b3480156100fb57600080fd5b50610116600480360381019061011191906108ae565b610318565b60405161012391906108f4565b60405180910390f35b34801561013857600080fd5b50610153600480360381019061014e91906108ae565b6103ef565b6040516101609190610998565b60405180910390f35b34801561017557600080fd5b50610190600480360381019061018b91906108ae565b6104a3565b005b6000600460008373ffffffffffffffffffffffffffffffffffffffff1673ffffffffffffffffffffffffffffffffffffffff16815260200190815260200160002060009054906101000a900473ffffffffffffffffffffffffffffffffffffffff1673ffffffffffffffffffffffffffffffffffffffff1663d6f192626040518163ffffffff1660e01b8152600401602060405180830381865afa15801561023e573d6000803e3d6000fd5b505050506040513d601f19601f8201168201806040525081019061026291906109df565b9050919050565b6000610274826103ef565b90508073ffffffffffffffffffffffffffffffffffffffff166326476204336040518263ffffffff1660e01b81526004016102af9190610998565b600060405180830381600087803b1580156102c957600080fd5b505af11580156102dd573d6000803e3d6000fd5b505050505050565b60046020528060005260406000206000915054906101000a900473ffffffffffffffffffffffffffffffffffffffff1681565b6000600460008373ffffffffffffffffffffffffffffffffffffffff1673ffffffffffffffffffffffffffffffffffffffff16815260200190815260200160002060009054906101000a900473ffffffffffffffffffffffffffffffffffffffff1673ffffffffffffffffffffffffffffffffffffffff16630b76619b6040518163ffffffff1660e01b8152600401602060405180830381865afa1580156103c4573d6000803e3d6000fd5b505050506040513d601f19601f820116820180604052508101906103e891906109df565b9050919050565b600080600460008473ffffffffffffffffffffffffffffffffffffffff1673ffffffffffffffffffffffffffffffffffffffff16815260200190815260200160002060009054906101000a900473ffffffffffffffffffffffffffffffffffffffff169050600073ffffffffffffffffffffffffffffffffffffffff168173ffffffffffffffffffffffffffffffffffffffff1614610491578091505061049e565b61049a836105c1565b9150505b919050565b60006104ae826103ef565b90508073ffffffffffffffffffffffffffffffffffffffff1663f2888dbb336040518263ffffffff1660e01b81526004016104e99190610a2d565b600060405180830381600087803b15801561050357600080fd5b505af1158015610517573d6000803e3d6000fd5b505050505050565b6105bb848484846040516024016105399493929190610ae1565b6040516020818303038152906040527fed8f28f6000000000000000000000000000000000000000000000000000000007bffffffffffffffffffffffffffffffffffffffffffffffffffffffff19166020820180517bffffffffffffffffffffffffffffffffffffffffffffffffffffffff838183161783525050505061074d565b50505050565b6000806105ed60008054906101000a900473ffffffffffffffffffffffffffffffffffffffff16610776565b90508073ffffffffffffffffffffffffffffffffffffffff166306552ff3600160009054906101000a900473ffffffffffffffffffffffffffffffffffffffff16600260009054906101000a900473ffffffffffffffffffffffffffffffffffffffff16600360009054906101000a900473ffffffffffffffffffffffffffffffffffffffff16876040518563ffffffff1660e01b81526004016106949493929190610b2d565b600060405180830381600087803b1580156106ae57600080fd5b505af11580156106c2573d6000803e3d6000fd5b5050505080600460008573ffffffffffffffffffffffffffffffffffffffff1673ffffffffffffffffffffffffffffffffffffffff16815260200190815260200160002060006101000a81548173ffffffffffffffffffffffffffffffffffffffff021916908373ffffffffffffffffffffffffffffffffffffffff16021790555080915050919050565b60008151905060006a636f6e736f6c652e6c6f679050602083016000808483855afa5050505050565b60006040517f3d602d80600a3d3981f3363d3d373d3d3d363d7300000000000000000000000081528260601b60148201527f5af43d82803e903d91602b57fd5bf3000000000000000000000000000000000060288201526037816000f0915050600073ffffffffffffffffffffffffffffffffffffffff168173ffffffffffffffffffffffffffffffffffffffff161415610846576040517f08c379a000000000000000000000000000000000000000000000000000000000815260040161083d90610bbe565b60405180910390fd5b919050565b600080fd5b600073ffffffffffffffffffffffffffffffffffffffff82169050919050565b600061087b82610850565b9050919050565b61088b81610870565b811461089657600080fd5b50565b6000813590506108a881610882565b92915050565b6000602082840312156108c4576108c361084b565b5b60006108d284828501610899565b91505092915050565b6000819050919050565b6108ee816108db565b82525050565b600060208201905061090960008301846108e5565b92915050565b6000819050919050565b600061093461092f61092a84610850565b61090f565b610850565b9050919050565b600061094682610919565b9050919050565b60006109588261093b565b9050919050565b6109688161094d565b82525050565b6000602082019050610983600083018461095f565b92915050565b61099281610870565b82525050565b60006020820190506109ad6000830184610989565b92915050565b6109bc816108db565b81146109c757600080fd5b50565b6000815190506109d9816109b3565b92915050565b6000602082840312156109f5576109f461084b565b5b6000610a03848285016109ca565b91505092915050565b6000610a1782610850565b9050919050565b610a2781610a0c565b82525050565b6000602082019050610a426000830184610a1e565b92915050565b600081519050919050565b600082825260208201905092915050565b60005b83811015610a82578082015181840152602081019050610a67565b83811115610a91576000848401525b50505050565b6000601f19601f8301169050919050565b6000610ab382610a48565b610abd8185610a53565b9350610acd818560208601610a64565b610ad681610a97565b840191505092915050565b60006080820190508181036000830152610afb8187610aa8565b9050610b0a6020830186610989565b610b176040830185610989565b610b246060830184610989565b95945050505050565b6000608082019050610b426000830187610989565b610b4f6020830186610989565b610b5c6040830185610989565b610b696060830184610989565b95945050505050565b7f455243313136373a20637265617465206661696c656400000000000000000000600082015250565b6000610ba8601683610a53565b9150610bb382610b72565b602082019050919050565b60006020820190508181036000830152610bd781610b9b565b905091905056fea2646970667358221220c957b03b5e28723dff85346aa0d2e0da28aebfc916cca9c69b77948060da36b964736f6c634300080a0033608060405234801561001057600080fd5b506111dc806100206000396000f3fe6080604052600436106100705760003560e01c80634e71d92d1161004e5780634e71d92d146100e5578063647c75e2146100fc578063d6f1926214610139578063f2888dbb1461016457610070565b806306552ff3146100755780630b76619b1461009e57806326476204146100c9575b600080fd5b34801561008157600080fd5b5061009c60048036038101906100979190610b9a565b61018d565b005b3480156100aa57600080fd5b506100b361034b565b6040516100c09190610c1a565b60405180910390f35b6100e360048036038101906100de9190610c35565b6103bb565b005b3480156100f157600080fd5b506100fa610528565b005b34801561010857600080fd5b50610123600480360381019061011e9190610c35565b610569565b6040516101309190610c1a565b60405180910390f35b34801561014557600080fd5b5061014e610581565b60405161015b9190610c1a565b60405180910390f35b34801561017057600080fd5b5061018b60048036038101906101869190610ca0565b6105f1565b005b600073ffffffffffffffffffffffffffffffffffffffff16600360009054906101000a900473ffffffffffffffffffffffffffffffffffffffff1673ffffffffffffffffffffffffffffffffffffffff161461021e576040517f08c379a000000000000000000000000000000000000000000000000000000000815260040161021590610d2a565b60405180910390fd5b61024260405180606001604052806038815260200161116f60389139858584610892565b836000806101000a81548173ffffffffffffffffffffffffffffffffffffffff021916908373ffffffffffffffffffffffffffffffffffffffff16021790555082600160006101000a81548173ffffffffffffffffffffffffffffffffffffffff021916908373ffffffffffffffffffffffffffffffffffffffff16021790555081600260006101000a81548173ffffffffffffffffffffffffffffffffffffffff021916908373ffffffffffffffffffffffffffffffffffffffff16021790555080600360006101000a81548173ffffffffffffffffffffffffffffffffffffffff021916908373ffffffffffffffffffffffffffffffffffffffff16021790555050505050565b600080600090506103b46040518060400160405280601781526020017f546f74616c207374616b656420666f722025733a202573000000000000000000815250600360009054906101000a900473ffffffffffffffffffffffffffffffffffffffff1683610934565b8091505090565b61041d6040518060400160405280601181526020017f5374616b696e6720257320666f7220257300000000000000000000000000000081525034600360009054906101000a900473ffffffffffffffffffffffffffffffffffffffff166109d3565b34600460008373ffffffffffffffffffffffffffffffffffffffff1673ffffffffffffffffffffffffffffffffffffffff168152602001908152602001600020600082825461046c9190610d79565b92505081905550600160009054906101000a900473ffffffffffffffffffffffffffffffffffffffff1673ffffffffffffffffffffffffffffffffffffffff1663474cf53d60008054906101000a900473ffffffffffffffffffffffffffffffffffffffff163060006040518463ffffffff1660e01b81526004016104f393929190610e31565b600060405180830381600087803b15801561050d57600080fd5b505af1158015610521573d6000803e3d6000fd5b5050505050565b6105676040518060400160405280600f81526020017f436c61696d696e6720666f72202573000000000000000000000000000000000081525033610a72565b565b60046020528060005260406000206000915090505481565b600080600090506105ea6040518060400160405280601081526020017f4561726e65642062792025733a20257300000000000000000000000000000000815250600360009054906101000a900473ffffffffffffffffffffffffffffffffffffffff1683610934565b8091505090565b6000600460008373ffffffffffffffffffffffffffffffffffffffff1673ffffffffffffffffffffffffffffffffffffffff1681526020019081526020016000205490506106976040518060400160405280601381526020017f556e7374616b696e6720257320666f722025730000000000000000000000000081525082600360009054906101000a900473ffffffffffffffffffffffffffffffffffffffff166109d3565b6000600460008473ffffffffffffffffffffffffffffffffffffffff1673ffffffffffffffffffffffffffffffffffffffff16815260200190815260200160002081905550600260009054906101000a900473ffffffffffffffffffffffffffffffffffffffff1673ffffffffffffffffffffffffffffffffffffffff1663095ea7b3600160009054906101000a900473ffffffffffffffffffffffffffffffffffffffff16836040518363ffffffff1660e01b815260040161075b929190610e68565b6020604051808303816000875af115801561077a573d6000803e3d6000fd5b505050506040513d601f19601f8201168201806040525081019061079e9190610ec9565b6107dd576040517f08c379a00000000000000000000000000000000000000000000000000000000081526004016107d490610f42565b60405180910390fd5b600160009054906101000a900473ffffffffffffffffffffffffffffffffffffffff1673ffffffffffffffffffffffffffffffffffffffff166380500d2060008054906101000a900473ffffffffffffffffffffffffffffffffffffffff1683856040518463ffffffff1660e01b815260040161085c93929190610fb7565b600060405180830381600087803b15801561087657600080fd5b505af115801561088a573d6000803e3d6000fd5b505050505050565b61092e848484846040516024016108ac9493929190611076565b6040516020818303038152906040527fed8f28f6000000000000000000000000000000000000000000000000000000007bffffffffffffffffffffffffffffffffffffffffffffffffffffffff19166020820180517bffffffffffffffffffffffffffffffffffffffffffffffffffffffff8381831617835250505050610b0e565b50505050565b6109ce83838360405160240161094c939291906110c2565b6040516020818303038152906040527f07c81217000000000000000000000000000000000000000000000000000000007bffffffffffffffffffffffffffffffffffffffffffffffffffffffff19166020820180517bffffffffffffffffffffffffffffffffffffffffffffffffffffffff8381831617835250505050610b0e565b505050565b610a6d8383836040516024016109eb93929190611100565b6040516020818303038152906040527fe3849f79000000000000000000000000000000000000000000000000000000007bffffffffffffffffffffffffffffffffffffffffffffffffffffffff19166020820180517bffffffffffffffffffffffffffffffffffffffffffffffffffffffff8381831617835250505050610b0e565b505050565b610b0a8282604051602401610a8892919061113e565b6040516020818303038152906040527f319af333000000000000000000000000000000000000000000000000000000007bffffffffffffffffffffffffffffffffffffffffffffffffffffffff19166020820180517bffffffffffffffffffffffffffffffffffffffffffffffffffffffff8381831617835250505050610b0e565b5050565b60008151905060006a636f6e736f6c652e6c6f679050602083016000808483855afa5050505050565b600080fd5b600073ffffffffffffffffffffffffffffffffffffffff82169050919050565b6000610b6782610b3c565b9050919050565b610b7781610b5c565b8114610b8257600080fd5b50565b600081359050610b9481610b6e565b92915050565b60008060008060808587031215610bb457610bb3610b37565b5b6000610bc287828801610b85565b9450506020610bd387828801610b85565b9350506040610be487828801610b85565b9250506060610bf587828801610b85565b91505092959194509250565b6000819050919050565b610c1481610c01565b82525050565b6000602082019050610c2f6000830184610c0b565b92915050565b600060208284031215610c4b57610c4a610b37565b5b6000610c5984828501610b85565b91505092915050565b6000610c6d82610b3c565b9050919050565b610c7d81610c62565b8114610c8857600080fd5b50565b600081359050610c9a81610c74565b92915050565b600060208284031215610cb657610cb5610b37565b5b6000610cc484828501610c8b565b91505092915050565b600082825260208201905092915050565b7f616c726561647920696e697469616c697a656400000000000000000000000000600082015250565b6000610d14601383610ccd565b9150610d1f82610cde565b602082019050919050565b60006020820190508181036000830152610d4381610d07565b9050919050565b7f4e487b7100000000000000000000000000000000000000000000000000000000600052601160045260246000fd5b6000610d8482610c01565b9150610d8f83610c01565b9250827fffffffffffffffffffffffffffffffffffffffffffffffffffffffffffffffff03821115610dc457610dc3610d4a565b5b828201905092915050565b610dd881610b5c565b82525050565b6000819050919050565b600061ffff82169050919050565b6000819050919050565b6000610e1b610e16610e1184610dde565b610df6565b610de8565b9050919050565b610e2b81610e00565b82525050565b6000606082019050610e466000830186610dcf565b610e536020830185610dcf565b610e606040830184610e22565b949350505050565b6000604082019050610e7d6000830185610dcf565b610e8a6020830184610c0b565b9392505050565b60008115159050919050565b610ea681610e91565b8114610eb157600080fd5b50565b600081519050610ec381610e9d565b92915050565b600060208284031215610edf57610ede610b37565b5b6000610eed84828501610eb4565b91505092915050565b7f657468677720617070726f76616c206661696c65640000000000000000000000600082015250565b6000610f2c601583610ccd565b9150610f3782610ef6565b602082019050919050565b60006020820190508181036000830152610f5b81610f1f565b9050919050565b6000610f7d610f78610f7384610b3c565b610df6565b610b3c565b9050919050565b6000610f8f82610f62565b9050919050565b6000610fa182610f84565b9050919050565b610fb181610f96565b82525050565b6000606082019050610fcc6000830186610dcf565b610fd96020830185610c0b565b610fe66040830184610fa8565b949350505050565b600081519050919050565b60005b83811015611017578082015181840152602081019050610ffc565b83811115611026576000848401525b50505050565b6000601f19601f8301169050919050565b600061104882610fee565b6110528185610ccd565b9350611062818560208601610ff9565b61106b8161102c565b840191505092915050565b60006080820190508181036000830152611090818761103d565b905061109f6020830186610dcf565b6110ac6040830185610dcf565b6110b96060830184610dcf565b95945050505050565b600060608201905081810360008301526110dc818661103d565b90506110eb6020830185610dcf565b6110f86040830184610c0b565b949350505050565b6000606082019050818103600083015261111a818661103d565b90506111296020830185610c0b565b6111366040830184610dcf565b949350505050565b60006040820190508181036000830152611158818561103d565b90506111676020830184610dcf565b939250505056fe4465706c6f79696e672042656e6566696369617279506f6f6c207769746820706f6f6c2025732c2077455448677720257320666f72202573a264697066735822122002d11e4009efeba70f1e006a7204e11313f02c07503c0573bc9e58c6e84eec4d64736f6c634300080a00334465706c6f79696e67205969656c6447617465207769746820706f6f6c2025732c207745544867772025732c20746f6b656e202573",
  "linkReferences": {},
  "deployedLinkReferences": {}
}