{
  "_format": "hh-sol-artifact-1",
  "contractName": "YieldGate",
  "sourceName": "contracts/YieldGate.sol",
  "abi": [
    {
      "inputs": [
        {
          "internalType": "address",
          "name": "_pool",
          "type": "address"
        },
        {
          "internalType": "address",
          "name": "wethGateway",
          "type": "address"
        },
        {
          "internalType": "address",
          "name": "aWETH",
          "type": "address"
        }
      ],
      "stateMutability": "nonpayable",
      "type": "constructor"
    },
    {
      "inputs": [
        {
          "internalType": "address",
          "name": "",
          "type": "address"
        }
      ],
      "name": "beneficiaryPools",
      "outputs": [
        {
          "internalType": "contract BeneficiaryPool",
          "name": "",
          "type": "address"
        }
      ],
      "stateMutability": "view",
      "type": "function"
    },
    {
      "inputs": [],
      "name": "claim",
      "outputs": [],
      "stateMutability": "nonpayable",
      "type": "function"
    },
    {
      "inputs": [
        {
          "internalType": "address",
          "name": "beneficiary",
          "type": "address"
        }
      ],
      "name": "claimable",
      "outputs": [
        {
          "internalType": "uint256",
          "name": "",
          "type": "uint256"
        }
      ],
      "stateMutability": "view",
      "type": "function"
    },
    {
      "inputs": [
        {
          "internalType": "address",
          "name": "beneficiary",
          "type": "address"
        }
      ],
      "name": "getOrDeployPool",
      "outputs": [
        {
          "internalType": "address",
          "name": "",
          "type": "address"
        }
      ],
      "stateMutability": "nonpayable",
      "type": "function"
    },
    {
      "inputs": [
        {
          "internalType": "address",
          "name": "beneficiary",
          "type": "address"
        }
      ],
      "name": "stake",
      "outputs": [],
      "stateMutability": "payable",
      "type": "function"
    },
    {
      "inputs": [
        {
          "internalType": "address",
          "name": "beneficiary",
          "type": "address"
        }
      ],
      "name": "staked",
      "outputs": [
        {
          "internalType": "uint256",
          "name": "",
          "type": "uint256"
        }
      ],
      "stateMutability": "view",
      "type": "function"
    },
    {
      "inputs": [
        {
          "internalType": "address",
          "name": "supporter",
          "type": "address"
        },
        {
          "internalType": "address",
          "name": "beneficiary",
          "type": "address"
        }
      ],
      "name": "supporterStaked",
      "outputs": [
        {
          "internalType": "uint256",
          "name": "",
          "type": "uint256"
        }
      ],
      "stateMutability": "view",
      "type": "function"
    },
    {
      "inputs": [
        {
          "internalType": "address",
          "name": "beneficiary",
          "type": "address"
        }
      ],
      "name": "unstake",
      "outputs": [],
      "stateMutability": "nonpayable",
      "type": "function"
    }
  ],
  "bytecode": "0x6101006040523480156200001257600080fd5b5060405162001d7638038062001d768339818101604052810190620000389190620001b4565b8273ffffffffffffffffffffffffffffffffffffffff1660a08173ffffffffffffffffffffffffffffffffffffffff16815250508173ffffffffffffffffffffffffffffffffffffffff1660c08173ffffffffffffffffffffffffffffffffffffffff16815250508073ffffffffffffffffffffffffffffffffffffffff1660e08173ffffffffffffffffffffffffffffffffffffffff1681525050604051620000e2906200013c565b604051809103906000f080158015620000ff573d6000803e3d6000fd5b5073ffffffffffffffffffffffffffffffffffffffff1660808173ffffffffffffffffffffffffffffffffffffffff168152505050505062000210565b610d948062000fe283390190565b600080fd5b600073ffffffffffffffffffffffffffffffffffffffff82169050919050565b60006200017c826200014f565b9050919050565b6200018e816200016f565b81146200019a57600080fd5b50565b600081519050620001ae8162000183565b92915050565b600080600060608486031215620001d057620001cf6200014a565b5b6000620001e0868287016200019d565b9350506020620001f3868287016200019d565b925050604062000206868287016200019d565b9150509250925092565b60805160a05160c05160e051610d986200024a60003960006108970152600061087601526000610855015260006108110152610d986000f3fe60806040526004361061007b5760003560e01c806398807d841161004e57806398807d841461012d578063a8401be51461016a578063bfb689c3146101a7578063f2888dbb146101e45761007b565b80632647620414610080578063402914f51461009c5780634e71d92d146100d9578063956d67c6146100f0575b600080fd5b61009a60048036038101906100959190610ac6565b61020d565b005b3480156100a857600080fd5b506100c360048036038101906100be9190610ac6565b61028a565b6040516100d09190610b0c565b60405180910390f35b3480156100e557600080fd5b506100ee6103a5565b005b3480156100fc57600080fd5b5061011760048036038101906101129190610ac6565b610465565b6040516101249190610b86565b60405180910390f35b34801561013957600080fd5b50610154600480360381019061014f9190610ac6565b610498565b6040516101619190610b0c565b60405180910390f35b34801561017657600080fd5b50610191600480360381019061018c9190610ac6565b6105b3565b60405161019e9190610bb0565b60405180910390f35b3480156101b357600080fd5b506101ce60048036038101906101c99190610bcb565b610666565b6040516101db9190610b0c565b60405180910390f35b3480156101f057600080fd5b5061020b60048036038101906102069190610ac6565b61078d565b005b6000610218826105b3565b90508073ffffffffffffffffffffffffffffffffffffffff16632647620434336040518363ffffffff1660e01b81526004016102549190610bb0565b6000604051808303818588803b15801561026d57600080fd5b505af1158015610281573d6000803e3d6000fd5b50505050505050565b6000806000808473ffffffffffffffffffffffffffffffffffffffff1673ffffffffffffffffffffffffffffffffffffffff16815260200190815260200160002060009054906101000a900473ffffffffffffffffffffffffffffffffffffffff169050600073ffffffffffffffffffffffffffffffffffffffff168173ffffffffffffffffffffffffffffffffffffffff16141561032d5760009150506103a0565b8073ffffffffffffffffffffffffffffffffffffffff1663af38d7576040518163ffffffff1660e01b8152600401602060405180830381865afa158015610378573d6000803e3d6000fd5b505050506040513d601f19601f8201168201806040525081019061039c9190610c37565b9150505b919050565b6000803373ffffffffffffffffffffffffffffffffffffffff1673ffffffffffffffffffffffffffffffffffffffff16815260200190815260200160002060009054906101000a900473ffffffffffffffffffffffffffffffffffffffff1673ffffffffffffffffffffffffffffffffffffffff16634e71d92d6040518163ffffffff1660e01b8152600401600060405180830381600087803b15801561044b57600080fd5b505af115801561045f573d6000803e3d6000fd5b50505050565b60006020528060005260406000206000915054906101000a900473ffffffffffffffffffffffffffffffffffffffff1681565b6000806000808473ffffffffffffffffffffffffffffffffffffffff1673ffffffffffffffffffffffffffffffffffffffff16815260200190815260200160002060009054906101000a900473ffffffffffffffffffffffffffffffffffffffff169050600073ffffffffffffffffffffffffffffffffffffffff168173ffffffffffffffffffffffffffffffffffffffff16141561053b5760009150506105ae565b8073ffffffffffffffffffffffffffffffffffffffff16630b76619b6040518163ffffffff1660e01b8152600401602060405180830381865afa158015610586573d6000803e3d6000fd5b505050506040513d601f19601f820116820180604052508101906105aa9190610c37565b9150505b919050565b6000806000808473ffffffffffffffffffffffffffffffffffffffff1673ffffffffffffffffffffffffffffffffffffffff16815260200190815260200160002060009054906101000a900473ffffffffffffffffffffffffffffffffffffffff169050600073ffffffffffffffffffffffffffffffffffffffff168173ffffffffffffffffffffffffffffffffffffffff16146106545780915050610661565b61065d83610809565b9150505b919050565b6000806000808473ffffffffffffffffffffffffffffffffffffffff1673ffffffffffffffffffffffffffffffffffffffff16815260200190815260200160002060009054906101000a900473ffffffffffffffffffffffffffffffffffffffff169050600073ffffffffffffffffffffffffffffffffffffffff168173ffffffffffffffffffffffffffffffffffffffff161415610709576000915050610787565b8073ffffffffffffffffffffffffffffffffffffffff1663647c75e2856040518263ffffffff1660e01b81526004016107429190610bb0565b602060405180830381865afa15801561075f573d6000803e3d6000fd5b505050506040513d601f19601f820116820180604052508101906107839190610c37565b9150505b92915050565b6000610798826105b3565b90508073ffffffffffffffffffffffffffffffffffffffff1663f2888dbb336040518263ffffffff1660e01b81526004016107d39190610c85565b600060405180830381600087803b1580156107ed57600080fd5b505af1158015610801573d6000803e3d6000fd5b505050505050565b6000806108357f000000000000000000000000000000000000000000000000000000000000000061098e565b90508073ffffffffffffffffffffffffffffffffffffffff166306552ff37f00000000000000000000000000000000000000000000000000000000000000007f00000000000000000000000000000000000000000000000000000000000000007f0000000000000000000000000000000000000000000000000000000000000000876040518563ffffffff1660e01b81526004016108d69493929190610ca0565b600060405180830381600087803b1580156108f057600080fd5b505af1158015610904573d6000803e3d6000fd5b50505050806000808573ffffffffffffffffffffffffffffffffffffffff1673ffffffffffffffffffffffffffffffffffffffff16815260200190815260200160002060006101000a81548173ffffffffffffffffffffffffffffffffffffffff021916908373ffffffffffffffffffffffffffffffffffffffff16021790555080915050919050565b60006040517f3d602d80600a3d3981f3363d3d373d3d3d363d7300000000000000000000000081528260601b60148201527f5af43d82803e903d91602b57fd5bf3000000000000000000000000000000000060288201526037816000f0915050600073ffffffffffffffffffffffffffffffffffffffff168173ffffffffffffffffffffffffffffffffffffffff161415610a5e576040517f08c379a0000000000000000000000000000000000000000000000000000000008152600401610a5590610d42565b60405180910390fd5b919050565b600080fd5b600073ffffffffffffffffffffffffffffffffffffffff82169050919050565b6000610a9382610a68565b9050919050565b610aa381610a88565b8114610aae57600080fd5b50565b600081359050610ac081610a9a565b92915050565b600060208284031215610adc57610adb610a63565b5b6000610aea84828501610ab1565b91505092915050565b6000819050919050565b610b0681610af3565b82525050565b6000602082019050610b216000830184610afd565b92915050565b6000819050919050565b6000610b4c610b47610b4284610a68565b610b27565b610a68565b9050919050565b6000610b5e82610b31565b9050919050565b6000610b7082610b53565b9050919050565b610b8081610b65565b82525050565b6000602082019050610b9b6000830184610b77565b92915050565b610baa81610a88565b82525050565b6000602082019050610bc56000830184610ba1565b92915050565b60008060408385031215610be257610be1610a63565b5b6000610bf085828601610ab1565b9250506020610c0185828601610ab1565b9150509250929050565b610c1481610af3565b8114610c1f57600080fd5b50565b600081519050610c3181610c0b565b92915050565b600060208284031215610c4d57610c4c610a63565b5b6000610c5b84828501610c22565b91505092915050565b6000610c6f82610a68565b9050919050565b610c7f81610c64565b82525050565b6000602082019050610c9a6000830184610c76565b92915050565b6000608082019050610cb56000830187610ba1565b610cc26020830186610ba1565b610ccf6040830185610ba1565b610cdc6060830184610ba1565b95945050505050565b600082825260208201905092915050565b7f455243313136373a20637265617465206661696c656400000000000000000000600082015250565b6000610d2c601683610ce5565b9150610d3782610cf6565b602082019050919050565b60006020820190508181036000830152610d5b81610d1f565b905091905056fea264697066735822122025adde3b3de615bb46b6f88ffa8622e8b85096ef2a75947fea0138c3a1e9be0164736f6c634300080a0033608060405234801561001057600080fd5b50610d74806100206000396000f3fe6080604052600436106100705760003560e01c80634e71d92d1161004e5780634e71d92d146100e5578063647c75e2146100fc578063af38d75714610139578063f2888dbb1461016457610070565b806306552ff3146100755780630b76619b1461009e57806326476204146100c9575b600080fd5b34801561008157600080fd5b5061009c60048036038101906100979190610897565b61018d565b005b3480156100aa57600080fd5b506100b3610327565b6040516100c09190610917565b60405180910390f35b6100e360048036038101906100de9190610932565b610331565b005b3480156100f157600080fd5b506100fa610456565b005b34801561010857600080fd5b50610123600480360381019061011e9190610932565b610501565b6040516101309190610917565b60405180910390f35b34801561014557600080fd5b5061014e610519565b60405161015b9190610917565b60405180910390f35b34801561017057600080fd5b5061018b6004803603810190610186919061099d565b6105ce565b005b600073ffffffffffffffffffffffffffffffffffffffff16600360009054906101000a900473ffffffffffffffffffffffffffffffffffffffff1673ffffffffffffffffffffffffffffffffffffffff161461021e576040517f08c379a000000000000000000000000000000000000000000000000000000000815260040161021590610a27565b60405180910390fd5b836000806101000a81548173ffffffffffffffffffffffffffffffffffffffff021916908373ffffffffffffffffffffffffffffffffffffffff16021790555082600160006101000a81548173ffffffffffffffffffffffffffffffffffffffff021916908373ffffffffffffffffffffffffffffffffffffffff16021790555081600260006101000a81548173ffffffffffffffffffffffffffffffffffffffff021916908373ffffffffffffffffffffffffffffffffffffffff16021790555080600360006101000a81548173ffffffffffffffffffffffffffffffffffffffff021916908373ffffffffffffffffffffffffffffffffffffffff16021790555050505050565b6000600554905090565b34600460008373ffffffffffffffffffffffffffffffffffffffff1673ffffffffffffffffffffffffffffffffffffffff16815260200190815260200160002060008282546103809190610a76565b9250508190555034600560008282546103999190610a76565b92505081905550600160009054906101000a900473ffffffffffffffffffffffffffffffffffffffff1673ffffffffffffffffffffffffffffffffffffffff1663474cf53d3460008054906101000a900473ffffffffffffffffffffffffffffffffffffffff163060006040518563ffffffff1660e01b815260040161042193929190610b2e565b6000604051808303818588803b15801561043a57600080fd5b505af115801561044e573d6000803e3d6000fd5b505050505050565b6000610460610519565b905061048e81600360009054906101000a900473ffffffffffffffffffffffffffffffffffffffff1661067e565b600360009054906101000a900473ffffffffffffffffffffffffffffffffffffffff1673ffffffffffffffffffffffffffffffffffffffff167fd8138f8a3f377c5259ca548e70e4c2de94f129f5a11036a15b69513cba2b426a826040516104f69190610917565b60405180910390a250565b60046020528060005260406000206000915090505481565b6000610523610327565b600260009054906101000a900473ffffffffffffffffffffffffffffffffffffffff1673ffffffffffffffffffffffffffffffffffffffff166370a08231306040518263ffffffff1660e01b815260040161057e9190610b65565b602060405180830381865afa15801561059b573d6000803e3d6000fd5b505050506040513d601f19601f820116820180604052508101906105bf9190610bac565b6105c99190610bd9565b905090565b6000600460008373ffffffffffffffffffffffffffffffffffffffff1673ffffffffffffffffffffffffffffffffffffffff1681526020019081526020016000205490506000600460008473ffffffffffffffffffffffffffffffffffffffff1673ffffffffffffffffffffffffffffffffffffffff1681526020019081526020016000208190555080600560008282546106699190610bd9565b9250508190555061067a818361067e565b5050565b600260009054906101000a900473ffffffffffffffffffffffffffffffffffffffff1673ffffffffffffffffffffffffffffffffffffffff1663095ea7b3600160009054906101000a900473ffffffffffffffffffffffffffffffffffffffff16846040518363ffffffff1660e01b81526004016106fd929190610c0d565b6020604051808303816000875af115801561071c573d6000803e3d6000fd5b505050506040513d601f19601f820116820180604052508101906107409190610c6e565b61077f576040517f08c379a000000000000000000000000000000000000000000000000000000000815260040161077690610ce7565b60405180910390fd5b600160009054906101000a900473ffffffffffffffffffffffffffffffffffffffff1673ffffffffffffffffffffffffffffffffffffffff166380500d2060008054906101000a900473ffffffffffffffffffffffffffffffffffffffff1684846040518463ffffffff1660e01b81526004016107fe93929190610d07565b600060405180830381600087803b15801561081857600080fd5b505af115801561082c573d6000803e3d6000fd5b505050505050565b600080fd5b600073ffffffffffffffffffffffffffffffffffffffff82169050919050565b600061086482610839565b9050919050565b61087481610859565b811461087f57600080fd5b50565b6000813590506108918161086b565b92915050565b600080600080608085870312156108b1576108b0610834565b5b60006108bf87828801610882565b94505060206108d087828801610882565b93505060406108e187828801610882565b92505060606108f287828801610882565b91505092959194509250565b6000819050919050565b610911816108fe565b82525050565b600060208201905061092c6000830184610908565b92915050565b60006020828403121561094857610947610834565b5b600061095684828501610882565b91505092915050565b600061096a82610839565b9050919050565b61097a8161095f565b811461098557600080fd5b50565b60008135905061099781610971565b92915050565b6000602082840312156109b3576109b2610834565b5b60006109c184828501610988565b91505092915050565b600082825260208201905092915050565b7f616c726561647920696e697469616c697a656400000000000000000000000000600082015250565b6000610a116013836109ca565b9150610a1c826109db565b602082019050919050565b60006020820190508181036000830152610a4081610a04565b9050919050565b7f4e487b7100000000000000000000000000000000000000000000000000000000600052601160045260246000fd5b6000610a81826108fe565b9150610a8c836108fe565b9250827fffffffffffffffffffffffffffffffffffffffffffffffffffffffffffffffff03821115610ac157610ac0610a47565b5b828201905092915050565b610ad581610859565b82525050565b6000819050919050565b600061ffff82169050919050565b6000819050919050565b6000610b18610b13610b0e84610adb565b610af3565b610ae5565b9050919050565b610b2881610afd565b82525050565b6000606082019050610b436000830186610acc565b610b506020830185610acc565b610b5d6040830184610b1f565b949350505050565b6000602082019050610b7a6000830184610acc565b92915050565b610b89816108fe565b8114610b9457600080fd5b50565b600081519050610ba681610b80565b92915050565b600060208284031215610bc257610bc1610834565b5b6000610bd084828501610b97565b91505092915050565b6000610be4826108fe565b9150610bef836108fe565b925082821015610c0257610c01610a47565b5b828203905092915050565b6000604082019050610c226000830185610acc565b610c2f6020830184610908565b9392505050565b60008115159050919050565b610c4b81610c36565b8114610c5657600080fd5b50565b600081519050610c6881610c42565b92915050565b600060208284031215610c8457610c83610834565b5b6000610c9284828501610c59565b91505092915050565b7f657468677720617070726f76616c206661696c65640000000000000000000000600082015250565b6000610cd16015836109ca565b9150610cdc82610c9b565b602082019050919050565b60006020820190508181036000830152610d0081610cc4565b9050919050565b6000606082019050610d1c6000830186610acc565b610d296020830185610908565b610d366040830184610acc565b94935050505056fea2646970667358221220a385174ef7fc3c5d2e6f6f86d95afdb8847b7b34da5a65d208fd9684e73c478e64736f6c634300080a0033",
  "linkReferences": {},
  "deployedLinkReferences": {}
}