{
  "address": "0xDe14AAd407aDB019ee31a18DcCfE6c5D13049F72",
  "abi": [
    {
      "inputs": [
        {
          "internalType": "address",
          "name": "_pool",
          "type": "address"
        },
        {
          "internalType": "address",
          "name": "wethGateway",
          "type": "address"
        },
        {
          "internalType": "address",
          "name": "aWETH",
          "type": "address"
        }
      ],
      "stateMutability": "nonpayable",
      "type": "constructor"
    },
    {
      "anonymous": false,
      "inputs": [
        {
          "indexed": true,
          "internalType": "address",
          "name": "beneficiary",
          "type": "address"
        },
        {
          "indexed": true,
          "internalType": "address",
          "name": "deployer",
          "type": "address"
        },
        {
          "indexed": false,
          "internalType": "address",
          "name": "pool",
          "type": "address"
        }
      ],
      "name": "PoolDeployed",
      "type": "event"
    },
    {
      "inputs": [],
      "name": "aavePool",
      "outputs": [
        {
          "internalType": "address",
          "name": "",
          "type": "address"
        }
      ],
      "stateMutability": "view",
      "type": "function"
    },
    {
      "inputs": [
        {
          "internalType": "address",
          "name": "",
          "type": "address"
        }
      ],
      "name": "beneficiaryPools",
      "outputs": [
        {
          "internalType": "contract BeneficiaryPool",
          "name": "",
          "type": "address"
        }
      ],
      "stateMutability": "view",
      "type": "function"
    },
    {
      "inputs": [
        {
          "internalType": "address",
          "name": "beneficiary",
          "type": "address"
        }
      ],
      "name": "claimable",
      "outputs": [
        {
          "internalType": "uint256",
          "name": "",
          "type": "uint256"
        }
      ],
      "stateMutability": "view",
      "type": "function"
    },
    {
      "inputs": [
        {
          "internalType": "address",
          "name": "beneficiary",
          "type": "address"
        }
      ],
      "name": "deployPool",
      "outputs": [
        {
          "internalType": "address",
          "name": "",
          "type": "address"
        }
      ],
      "stateMutability": "nonpayable",
      "type": "function"
    },
    {
      "inputs": [
        {
          "internalType": "address",
          "name": "beneficiary",
          "type": "address"
        }
      ],
      "name": "staked",
      "outputs": [
        {
          "internalType": "uint256",
          "name": "",
          "type": "uint256"
        }
      ],
      "stateMutability": "view",
      "type": "function"
    },
    {
      "inputs": [
        {
          "internalType": "address",
          "name": "supporter",
          "type": "address"
        },
        {
          "internalType": "address",
          "name": "beneficiary",
          "type": "address"
        }
      ],
      "name": "supporterStaked",
      "outputs": [
        {
          "internalType": "uint256",
          "name": "",
          "type": "uint256"
        },
        {
          "internalType": "uint256",
          "name": "",
          "type": "uint256"
        }
      ],
      "stateMutability": "view",
      "type": "function"
    },
    {
      "inputs": [],
      "name": "token",
      "outputs": [
        {
          "internalType": "contract IERC20",
          "name": "",
          "type": "address"
        }
      ],
      "stateMutability": "view",
      "type": "function"
    },
    {
      "inputs": [],
      "name": "wethgw",
      "outputs": [
        {
          "internalType": "contract IWETHGateway",
          "name": "",
          "type": "address"
        }
      ],
      "stateMutability": "view",
      "type": "function"
    }
  ],
  "transactionHash": "0x41a85758753a0c9d7811e77ff97acf8d019b6a885ce096e3ca7dd30506a9c916",
  "args": [
    "0x368EedF3f56ad10b9bC57eed4Dac65B26Bb667f6",
    "0xd5B55D3Ed89FDa19124ceB5baB620328287b915d",
    "0x27B4692C93959048833f40702b22FE3578E77759"
  ],
  "numDeployments": 4,
  "solcInputHash": "a3c9dd7a253caa24239f1c6f08c95174",
  "bytecode": "0x6101006040523480156200001257600080fd5b5060405162002adb38038062002adb83398181016040528101906200003891906200022b565b8273ffffffffffffffffffffffffffffffffffffffff1660a08173ffffffffffffffffffffffffffffffffffffffff16815250508173ffffffffffffffffffffffffffffffffffffffff1660c08173ffffffffffffffffffffffffffffffffffffffff16815250508073ffffffffffffffffffffffffffffffffffffffff1660e08173ffffffffffffffffffffffffffffffffffffffff16815250506000604051620000e490620001b3565b604051809103906000f08015801562000101573d6000803e3d6000fd5b5090508073ffffffffffffffffffffffffffffffffffffffff1663f09a401630336040518363ffffffff1660e01b81526004016200014192919062000298565b600060405180830381600087803b1580156200015c57600080fd5b505af115801562000171573d6000803e3d6000fd5b505050508073ffffffffffffffffffffffffffffffffffffffff1660808173ffffffffffffffffffffffffffffffffffffffff168152505050505050620002c5565b611bad8062000f2e83390190565b600080fd5b600073ffffffffffffffffffffffffffffffffffffffff82169050919050565b6000620001f382620001c6565b9050919050565b6200020581620001e6565b81146200021157600080fd5b50565b6000815190506200022581620001fa565b92915050565b600080600060608486031215620002475762000246620001c1565b5b6000620002578682870162000214565b93505060206200026a8682870162000214565b92505060406200027d8682870162000214565b9150509250925092565b6200029281620001e6565b82525050565b6000604082019050620002af600083018562000287565b620002be602083018462000287565b9392505050565b60805160a05160c05160e051610c2f620002ff60003960006107ba01526000610796015260006105c9015260006101e00152610c2f6000f3fe608060405234801561001057600080fd5b50600436106100885760003560e01c8063a03e4bc31161005b578063a03e4bc31461014d578063bfb689c31461016b578063f29046111461019c578063fc0c546a146101ba57610088565b806329a134941461008d578063402914f5146100bd578063956d67c6146100ed57806398807d841461011d575b600080fd5b6100a760048036038101906100a29190610914565b6101d8565b6040516100b49190610950565b60405180910390f35b6100d760048036038101906100d29190610914565b61035e565b6040516100e49190610984565b60405180910390f35b61010760048036038101906101029190610914565b610479565b60405161011491906109fe565b60405180910390f35b61013760048036038101906101329190610914565b6104ac565b6040516101449190610984565b60405180910390f35b6101556105c7565b6040516101629190610950565b60405180910390f35b61018560048036038101906101809190610a19565b6105eb565b604051610193929190610a59565b60405180910390f35b6101a4610794565b6040516101b19190610aa3565b60405180910390f35b6101c26107b8565b6040516101cf9190610adf565b60405180910390f35b6000806102047f00000000000000000000000000000000000000000000000000000000000000006107dc565b90508073ffffffffffffffffffffffffffffffffffffffff1663f09a401630856040518363ffffffff1660e01b8152600401610241929190610afa565b600060405180830381600087803b15801561025b57600080fd5b505af115801561026f573d6000803e3d6000fd5b50505050806000808573ffffffffffffffffffffffffffffffffffffffff1673ffffffffffffffffffffffffffffffffffffffff16815260200190815260200160002060006101000a81548173ffffffffffffffffffffffffffffffffffffffff021916908373ffffffffffffffffffffffffffffffffffffffff1602179055503373ffffffffffffffffffffffffffffffffffffffff168373ffffffffffffffffffffffffffffffffffffffff167f04c12766244f2559dd215eecd69f70fdfce0e2c2260b5d52cb8b63738622eaa48360405161034d9190610950565b60405180910390a380915050919050565b6000806000808473ffffffffffffffffffffffffffffffffffffffff1673ffffffffffffffffffffffffffffffffffffffff16815260200190815260200160002060009054906101000a900473ffffffffffffffffffffffffffffffffffffffff169050600073ffffffffffffffffffffffffffffffffffffffff168173ffffffffffffffffffffffffffffffffffffffff161415610401576000915050610474565b8073ffffffffffffffffffffffffffffffffffffffff1663af38d7576040518163ffffffff1660e01b8152600401602060405180830381865afa15801561044c573d6000803e3d6000fd5b505050506040513d601f19601f820116820180604052508101906104709190610b4f565b9150505b919050565b60006020528060005260406000206000915054906101000a900473ffffffffffffffffffffffffffffffffffffffff1681565b6000806000808473ffffffffffffffffffffffffffffffffffffffff1673ffffffffffffffffffffffffffffffffffffffff16815260200190815260200160002060009054906101000a900473ffffffffffffffffffffffffffffffffffffffff169050600073ffffffffffffffffffffffffffffffffffffffff168173ffffffffffffffffffffffffffffffffffffffff16141561054f5760009150506105c2565b8073ffffffffffffffffffffffffffffffffffffffff16630b76619b6040518163ffffffff1660e01b8152600401602060405180830381865afa15801561059a573d6000803e3d6000fd5b505050506040513d601f19601f820116820180604052508101906105be9190610b4f565b9150505b919050565b7f000000000000000000000000000000000000000000000000000000000000000081565b60008060008060008573ffffffffffffffffffffffffffffffffffffffff1673ffffffffffffffffffffffffffffffffffffffff16815260200190815260200160002060009054906101000a900473ffffffffffffffffffffffffffffffffffffffff169050600073ffffffffffffffffffffffffffffffffffffffff168173ffffffffffffffffffffffffffffffffffffffff16141561069357600080925092505061078d565b8073ffffffffffffffffffffffffffffffffffffffff166316934fc4866040518263ffffffff1660e01b81526004016106cc9190610950565b602060405180830381865afa1580156106e9573d6000803e3d6000fd5b505050506040513d601f19601f8201168201806040525081019061070d9190610b4f565b8173ffffffffffffffffffffffffffffffffffffffff1663e63b4eda876040518263ffffffff1660e01b81526004016107469190610950565b602060405180830381865afa158015610763573d6000803e3d6000fd5b505050506040513d601f19601f820116820180604052508101906107879190610b4f565b92509250505b9250929050565b7f000000000000000000000000000000000000000000000000000000000000000081565b7f000000000000000000000000000000000000000000000000000000000000000081565b60006040517f3d602d80600a3d3981f3363d3d373d3d3d363d7300000000000000000000000081528260601b60148201527f5af43d82803e903d91602b57fd5bf3000000000000000000000000000000000060288201526037816000f0915050600073ffffffffffffffffffffffffffffffffffffffff168173ffffffffffffffffffffffffffffffffffffffff1614156108ac576040517f08c379a00000000000000000000000000000000000000000000000000000000081526004016108a390610bd9565b60405180910390fd5b919050565b600080fd5b600073ffffffffffffffffffffffffffffffffffffffff82169050919050565b60006108e1826108b6565b9050919050565b6108f1816108d6565b81146108fc57600080fd5b50565b60008135905061090e816108e8565b92915050565b60006020828403121561092a576109296108b1565b5b6000610938848285016108ff565b91505092915050565b61094a816108d6565b82525050565b60006020820190506109656000830184610941565b92915050565b6000819050919050565b61097e8161096b565b82525050565b60006020820190506109996000830184610975565b92915050565b6000819050919050565b60006109c46109bf6109ba846108b6565b61099f565b6108b6565b9050919050565b60006109d6826109a9565b9050919050565b60006109e8826109cb565b9050919050565b6109f8816109dd565b82525050565b6000602082019050610a1360008301846109ef565b92915050565b60008060408385031215610a3057610a2f6108b1565b5b6000610a3e858286016108ff565b9250506020610a4f858286016108ff565b9150509250929050565b6000604082019050610a6e6000830185610975565b610a7b6020830184610975565b9392505050565b6000610a8d826109cb565b9050919050565b610a9d81610a82565b82525050565b6000602082019050610ab86000830184610a94565b92915050565b6000610ac9826109cb565b9050919050565b610ad981610abe565b82525050565b6000602082019050610af46000830184610ad0565b92915050565b6000604082019050610b0f6000830185610941565b610b1c6020830184610941565b9392505050565b610b2c8161096b565b8114610b3757600080fd5b50565b600081519050610b4981610b23565b92915050565b600060208284031215610b6557610b646108b1565b5b6000610b7384828501610b3a565b91505092915050565b600082825260208201905092915050565b7f455243313136373a20637265617465206661696c656400000000000000000000600082015250565b6000610bc3601683610b7c565b9150610bce82610b8d565b602082019050919050565b60006020820190508181036000830152610bf281610bb6565b905091905056fea2646970667358221220d3bdb2de27166b3e9c227df8adf7ce2d344fd40bc16b9a8583b4070d96b7303364736f6c634300080a0033608060405234801561001057600080fd5b50611b8d806100206000396000f3fe6080604052600436106100e85760003560e01c8063567157611161008a5780639b2cb5d8116100595780639b2cb5d8146102c3578063af38d757146102ee578063e63b4eda14610319578063f09a401614610356576100e8565b8063567157611461021b5780637a0ebc8814610246578063884870c714610271578063897b06371461029a576100e8565b806326476204116100c6578063264762041461017e5780632def66201461019a57806338af3eed146101c55780634e71d92d146101f0576100e8565b80630b76619b146100ed5780631674bade1461011857806316934fc414610141575b600080fd5b3480156100f957600080fd5b5061010261037f565b60405161010f9190611315565b60405180910390f35b34801561012457600080fd5b5061013f600480360381019061013a9190611361565b610389565b005b34801561014d57600080fd5b50610168600480360381019061016391906113ec565b61042f565b6040516101759190611315565b60405180910390f35b610198600480360381019061019391906113ec565b610447565b005b3480156101a657600080fd5b506101af6107d2565b6040516101bc9190611315565b60405180910390f35b3480156101d157600080fd5b506101da6109dd565b6040516101e79190611428565b60405180910390f35b3480156101fc57600080fd5b50610205610a03565b6040516102129190611315565b60405180910390f35b34801561022757600080fd5b50610230610b44565b60405161023d9190611315565b60405180910390f35b34801561025257600080fd5b5061025b610b4a565b60405161026891906114a2565b60405180910390f35b34801561027d57600080fd5b50610298600480360381019061029391906114bd565b610b6e565b005b3480156102a657600080fd5b506102c160048036038101906102bc9190611361565b610c1a565b005b3480156102cf57600080fd5b506102d8610cc0565b6040516102e59190611315565b60405180910390f35b3480156102fa57600080fd5b50610303610cc6565b6040516103109190611315565b60405180910390f35b34801561032557600080fd5b50610340600480360381019061033b91906113ec565b610de7565b60405161034d9190611315565b60405180910390f35b34801561036257600080fd5b5061037d600480360381019061037891906114fd565b610dff565b005b6000600654905090565b600160009054906101000a900473ffffffffffffffffffffffffffffffffffffffff1673ffffffffffffffffffffffffffffffffffffffff163373ffffffffffffffffffffffffffffffffffffffff1614610419576040517f08c379a00000000000000000000000000000000000000000000000000000000081526004016104109061159a565b60405180910390fd5b8060038190555061042c60025482610f1e565b50565b60056020528060005260406000206000915090505481565b60003490506000811180156104a8575060025481600560008573ffffffffffffffffffffffffffffffffffffffff1673ffffffffffffffffffffffffffffffffffffffff168152602001908152602001600020546104a591906115e9565b10155b6104e7576040517f08c379a00000000000000000000000000000000000000000000000000000000081526004016104de9061168b565b60405180910390fd5b80600560008473ffffffffffffffffffffffffffffffffffffffff1673ffffffffffffffffffffffffffffffffffffffff168152602001908152602001600020600082825461053691906115e9565b92505081905550806006600082825461054f91906115e9565b9250508190555060008060035411156105b7576003544261057091906115e9565b905080600460008573ffffffffffffffffffffffffffffffffffffffff1673ffffffffffffffffffffffffffffffffffffffff168152602001908152602001600020819055505b60008054906101000a900473ffffffffffffffffffffffffffffffffffffffff1673ffffffffffffffffffffffffffffffffffffffff1663f29046116040518163ffffffff1660e01b8152600401602060405180830381865afa158015610622573d6000803e3d6000fd5b505050506040513d601f19601f8201168201806040525081019061064691906116e9565b73ffffffffffffffffffffffffffffffffffffffff1663474cf53d8360008054906101000a900473ffffffffffffffffffffffffffffffffffffffff1673ffffffffffffffffffffffffffffffffffffffff1663a03e4bc36040518163ffffffff1660e01b8152600401602060405180830381865afa1580156106cd573d6000803e3d6000fd5b505050506040513d601f19601f820116820180604052508101906106f1919061172b565b3060006040518563ffffffff1660e01b8152600401610712939291906117a1565b6000604051808303818588803b15801561072b57600080fd5b505af115801561073f573d6000803e3d6000fd5b50505050508273ffffffffffffffffffffffffffffffffffffffff16600160009054906101000a900473ffffffffffffffffffffffffffffffffffffffff1673ffffffffffffffffffffffffffffffffffffffff167f6c86f3fd5118b3aa8bb4f389a617046de0a3d3d477de1a1673d227f802f616dc84846040516107c59291906117d8565b60405180910390a3505050565b6000803390506000600460008373ffffffffffffffffffffffffffffffffffffffff1673ffffffffffffffffffffffffffffffffffffffff16815260200190815260200160002054905080421161085e576040517f08c379a00000000000000000000000000000000000000000000000000000000081526004016108559061184d565b60405180910390fd5b6000600560008473ffffffffffffffffffffffffffffffffffffffff1673ffffffffffffffffffffffffffffffffffffffff168152602001908152602001600020549050600081116108e5576040517f08c379a00000000000000000000000000000000000000000000000000000000081526004016108dc906118b9565b60405180910390fd5b6000600560008573ffffffffffffffffffffffffffffffffffffffff1673ffffffffffffffffffffffffffffffffffffffff16815260200190815260200160002081905550806006600082825461093c91906118d9565b9250508190555061094d8184610f94565b8273ffffffffffffffffffffffffffffffffffffffff16600160009054906101000a900473ffffffffffffffffffffffffffffffffffffffff1673ffffffffffffffffffffffffffffffffffffffff167fd8654fcc8cf5b36d30b3f5e4688fc78118e6d68de60b9994e09902268b57c3e3836040516109cc9190611315565b60405180910390a380935050505090565b600160009054906101000a900473ffffffffffffffffffffffffffffffffffffffff1681565b6000600160009054906101000a900473ffffffffffffffffffffffffffffffffffffffff1673ffffffffffffffffffffffffffffffffffffffff163373ffffffffffffffffffffffffffffffffffffffff1614610a95576040517f08c379a0000000000000000000000000000000000000000000000000000000008152600401610a8c9061159a565b60405180910390fd5b6000610a9f610cc6565b9050610acd81600160009054906101000a900473ffffffffffffffffffffffffffffffffffffffff16610f94565b600160009054906101000a900473ffffffffffffffffffffffffffffffffffffffff1673ffffffffffffffffffffffffffffffffffffffff167fd8138f8a3f377c5259ca548e70e4c2de94f129f5a11036a15b69513cba2b426a82604051610b359190611315565b60405180910390a28091505090565b60035481565b60008054906101000a900473ffffffffffffffffffffffffffffffffffffffff1681565b600160009054906101000a900473ffffffffffffffffffffffffffffffffffffffff1673ffffffffffffffffffffffffffffffffffffffff163373ffffffffffffffffffffffffffffffffffffffff1614610bfe576040517f08c379a0000000000000000000000000000000000000000000000000000000008152600401610bf59061159a565b60405180910390fd5b8160028190555080600381905550610c168282610f1e565b5050565b600160009054906101000a900473ffffffffffffffffffffffffffffffffffffffff1673ffffffffffffffffffffffffffffffffffffffff163373ffffffffffffffffffffffffffffffffffffffff1614610caa576040517f08c379a0000000000000000000000000000000000000000000000000000000008152600401610ca19061159a565b60405180910390fd5b80600281905550610cbd81600354610f1e565b50565b60025481565b6000610cd061037f565b60008054906101000a900473ffffffffffffffffffffffffffffffffffffffff1673ffffffffffffffffffffffffffffffffffffffff1663fc0c546a6040518163ffffffff1660e01b8152600401602060405180830381865afa158015610d3b573d6000803e3d6000fd5b505050506040513d601f19601f82011682018060405250810190610d5f919061194b565b73ffffffffffffffffffffffffffffffffffffffff166370a08231306040518263ffffffff1660e01b8152600401610d979190611428565b602060405180830381865afa158015610db4573d6000803e3d6000fd5b505050506040513d601f19601f82011682018060405250810190610dd8919061198d565b610de291906118d9565b905090565b60046020528060005260406000206000915090505481565b600073ffffffffffffffffffffffffffffffffffffffff1660008054906101000a900473ffffffffffffffffffffffffffffffffffffffff1673ffffffffffffffffffffffffffffffffffffffff1614610e8e576040517f08c379a0000000000000000000000000000000000000000000000000000000008152600401610e8590611a06565b60405180910390fd5b816000806101000a81548173ffffffffffffffffffffffffffffffffffffffff021916908373ffffffffffffffffffffffffffffffffffffffff16021790555080600160006101000a81548173ffffffffffffffffffffffffffffffffffffffff021916908373ffffffffffffffffffffffffffffffffffffffff160217905550610f1a600080610f1e565b5050565b600160009054906101000a900473ffffffffffffffffffffffffffffffffffffffff1673ffffffffffffffffffffffffffffffffffffffff167f9c92c5fd8f46c80999fdfc6ba5e98e7aa75229504a0426b93b309c6c5377ef0f8383604051610f889291906117d8565b60405180910390a25050565b60008054906101000a900473ffffffffffffffffffffffffffffffffffffffff1673ffffffffffffffffffffffffffffffffffffffff1663fc0c546a6040518163ffffffff1660e01b8152600401602060405180830381865afa158015610fff573d6000803e3d6000fd5b505050506040513d601f19601f82011682018060405250810190611023919061194b565b73ffffffffffffffffffffffffffffffffffffffff1663095ea7b360008054906101000a900473ffffffffffffffffffffffffffffffffffffffff1673ffffffffffffffffffffffffffffffffffffffff1663f29046116040518163ffffffff1660e01b8152600401602060405180830381865afa1580156110a9573d6000803e3d6000fd5b505050506040513d601f19601f820116820180604052508101906110cd91906116e9565b846040518363ffffffff1660e01b81526004016110eb929190611a26565b6020604051808303816000875af115801561110a573d6000803e3d6000fd5b505050506040513d601f19601f8201168201806040525081019061112e9190611a87565b61116d576040517f08c379a000000000000000000000000000000000000000000000000000000000815260040161116490611b00565b60405180910390fd5b60008054906101000a900473ffffffffffffffffffffffffffffffffffffffff1673ffffffffffffffffffffffffffffffffffffffff1663f29046116040518163ffffffff1660e01b8152600401602060405180830381865afa1580156111d8573d6000803e3d6000fd5b505050506040513d601f19601f820116820180604052508101906111fc91906116e9565b73ffffffffffffffffffffffffffffffffffffffff166380500d2060008054906101000a900473ffffffffffffffffffffffffffffffffffffffff1673ffffffffffffffffffffffffffffffffffffffff1663a03e4bc36040518163ffffffff1660e01b8152600401602060405180830381865afa158015611282573d6000803e3d6000fd5b505050506040513d601f19601f820116820180604052508101906112a6919061172b565b84846040518463ffffffff1660e01b81526004016112c693929190611b20565b600060405180830381600087803b1580156112e057600080fd5b505af11580156112f4573d6000803e3d6000fd5b505050505050565b6000819050919050565b61130f816112fc565b82525050565b600060208201905061132a6000830184611306565b92915050565b600080fd5b61133e816112fc565b811461134957600080fd5b50565b60008135905061135b81611335565b92915050565b60006020828403121561137757611376611330565b5b60006113858482850161134c565b91505092915050565b600073ffffffffffffffffffffffffffffffffffffffff82169050919050565b60006113b98261138e565b9050919050565b6113c9816113ae565b81146113d457600080fd5b50565b6000813590506113e6816113c0565b92915050565b60006020828403121561140257611401611330565b5b6000611410848285016113d7565b91505092915050565b611422816113ae565b82525050565b600060208201905061143d6000830184611419565b92915050565b6000819050919050565b600061146861146361145e8461138e565b611443565b61138e565b9050919050565b600061147a8261144d565b9050919050565b600061148c8261146f565b9050919050565b61149c81611481565b82525050565b60006020820190506114b76000830184611493565b92915050565b600080604083850312156114d4576114d3611330565b5b60006114e28582860161134c565b92505060206114f38582860161134c565b9150509250929050565b6000806040838503121561151457611513611330565b5b6000611522858286016113d7565b9250506020611533858286016113d7565b9150509250929050565b600082825260208201905092915050565b7f6f6e6c792062656e656669636961727900000000000000000000000000000000600082015250565b600061158460108361153d565b915061158f8261154e565b602082019050919050565b600060208201905081810360008301526115b381611577565b9050919050565b7f4e487b7100000000000000000000000000000000000000000000000000000000600052601160045260246000fd5b60006115f4826112fc565b91506115ff836112fc565b9250827fffffffffffffffffffffffffffffffffffffffffffffffffffffffffffffffff03821115611634576116336115ba565b5b828201905092915050565b7f616d6f756e7420746f6f206c6f77000000000000000000000000000000000000600082015250565b6000611675600e8361153d565b91506116808261163f565b602082019050919050565b600060208201905081810360008301526116a481611668565b9050919050565b60006116b6826113ae565b9050919050565b6116c6816116ab565b81146116d157600080fd5b50565b6000815190506116e3816116bd565b92915050565b6000602082840312156116ff576116fe611330565b5b600061170d848285016116d4565b91505092915050565b600081519050611725816113c0565b92915050565b60006020828403121561174157611740611330565b5b600061174f84828501611716565b91505092915050565b6000819050919050565b600061ffff82169050919050565b600061178b61178661178184611758565b611443565b611762565b9050919050565b61179b81611770565b82525050565b60006060820190506117b66000830186611419565b6117c36020830185611419565b6117d06040830184611792565b949350505050565b60006040820190506117ed6000830185611306565b6117fa6020830184611306565b9392505050565b7f7374616b65207374696c6c206c6f636b65640000000000000000000000000000600082015250565b600061183760128361153d565b915061184282611801565b602082019050919050565b600060208201905081810360008301526118668161182a565b9050919050565b7f6e6f20737570706f727465720000000000000000000000000000000000000000600082015250565b60006118a3600c8361153d565b91506118ae8261186d565b602082019050919050565b600060208201905081810360008301526118d281611896565b9050919050565b60006118e4826112fc565b91506118ef836112fc565b925082821015611902576119016115ba565b5b828203905092915050565b6000611918826113ae565b9050919050565b6119288161190d565b811461193357600080fd5b50565b6000815190506119458161191f565b92915050565b60006020828403121561196157611960611330565b5b600061196f84828501611936565b91505092915050565b60008151905061198781611335565b92915050565b6000602082840312156119a3576119a2611330565b5b60006119b184828501611978565b91505092915050565b7f616c726561647920696e697469616c697a656400000000000000000000000000600082015250565b60006119f060138361153d565b91506119fb826119ba565b602082019050919050565b60006020820190508181036000830152611a1f816119e3565b9050919050565b6000604082019050611a3b6000830185611419565b611a486020830184611306565b9392505050565b60008115159050919050565b611a6481611a4f565b8114611a6f57600080fd5b50565b600081519050611a8181611a5b565b92915050565b600060208284031215611a9d57611a9c611330565b5b6000611aab84828501611a72565b91505092915050565b7f657468677720617070726f76616c206661696c65640000000000000000000000600082015250565b6000611aea60158361153d565b9150611af582611ab4565b602082019050919050565b60006020820190508181036000830152611b1981611add565b9050919050565b6000606082019050611b356000830186611419565b611b426020830185611306565b611b4f6040830184611419565b94935050505056fea2646970667358221220bfa26072bd395195cee7e4887abc3e5b0dadb2e1e293443698246ce66e8760e264736f6c634300080a0033",
  "devdoc": {
    "kind": "dev",
    "methods": {},
    "version": 1
  },
  "userdoc": {
    "kind": "user",
    "methods": {},
    "version": 1
  },
  "storageLayout": {
    "storage": [
      {
        "astId": 186,
        "contract": "contracts/YieldGate.sol:YieldGate",
        "label": "beneficiaryPools",
        "offset": 0,
        "slot": "0",
        "type": "t_mapping(t_address,t_contract(BeneficiaryPool)798)"
      }
    ],
    "types": {
      "t_address": {
        "encoding": "inplace",
        "label": "address",
        "numberOfBytes": "20"
      },
      "t_contract(BeneficiaryPool)798": {
        "encoding": "inplace",
        "label": "contract BeneficiaryPool",
        "numberOfBytes": "20"
      },
      "t_mapping(t_address,t_contract(BeneficiaryPool)798)": {
        "encoding": "mapping",
        "key": "t_address",
        "label": "mapping(address => contract BeneficiaryPool)",
        "numberOfBytes": "32",
        "value": "t_contract(BeneficiaryPool)798"
      }
    }
  }
}