{
  "address": "0x3103E87eEDC29fBA8620f21f2Ac40F116e9403fE",
  "abi": [
    {
      "inputs": [
        {
          "internalType": "address",
          "name": "_rToken",
          "type": "address"
        },
        {
          "internalType": "uint256",
          "name": "_doublingDuration",
          "type": "uint256"
        }
      ],
      "stateMutability": "nonpayable",
      "type": "constructor"
    },
    {
      "anonymous": false,
      "inputs": [
        {
          "indexed": true,
          "internalType": "address",
          "name": "owner",
          "type": "address"
        },
        {
          "indexed": true,
          "internalType": "address",
          "name": "spender",
          "type": "address"
        },
        {
          "indexed": false,
          "internalType": "uint256",
          "name": "value",
          "type": "uint256"
        }
      ],
      "name": "Approval",
      "type": "event"
    },
    {
      "anonymous": false,
      "inputs": [
        {
          "indexed": true,
          "internalType": "address",
          "name": "previousOwner",
          "type": "address"
        },
        {
          "indexed": true,
          "internalType": "address",
          "name": "newOwner",
          "type": "address"
        }
      ],
      "name": "OwnershipTransferred",
      "type": "event"
    },
    {
      "anonymous": false,
      "inputs": [
        {
          "indexed": true,
          "internalType": "address",
          "name": "from",
          "type": "address"
        },
        {
          "indexed": true,
          "internalType": "address",
          "name": "to",
          "type": "address"
        },
        {
          "indexed": false,
          "internalType": "uint256",
          "name": "value",
          "type": "uint256"
        }
      ],
      "name": "Transfer",
      "type": "event"
    },
    {
      "inputs": [
        {
          "internalType": "address",
          "name": "owner",
          "type": "address"
        },
        {
          "internalType": "address",
          "name": "spender",
          "type": "address"
        }
      ],
      "name": "allowance",
      "outputs": [
        {
          "internalType": "uint256",
          "name": "",
          "type": "uint256"
        }
      ],
      "stateMutability": "view",
      "type": "function"
    },
    {
      "inputs": [
        {
          "internalType": "address",
          "name": "spender",
          "type": "address"
        },
        {
          "internalType": "uint256",
          "name": "amount",
          "type": "uint256"
        }
      ],
      "name": "approve",
      "outputs": [
        {
          "internalType": "bool",
          "name": "",
          "type": "bool"
        }
      ],
      "stateMutability": "nonpayable",
      "type": "function"
    },
    {
      "inputs": [
        {
          "internalType": "address",
          "name": "account",
          "type": "address"
        }
      ],
      "name": "balanceOf",
      "outputs": [
        {
          "internalType": "uint256",
          "name": "",
          "type": "uint256"
        }
      ],
      "stateMutability": "view",
      "type": "function"
    },
    {
      "inputs": [],
      "name": "decimals",
      "outputs": [
        {
          "internalType": "uint8",
          "name": "",
          "type": "uint8"
        }
      ],
      "stateMutability": "view",
      "type": "function"
    },
    {
      "inputs": [
        {
          "internalType": "address",
          "name": "spender",
          "type": "address"
        },
        {
          "internalType": "uint256",
          "name": "subtractedValue",
          "type": "uint256"
        }
      ],
      "name": "decreaseAllowance",
      "outputs": [
        {
          "internalType": "bool",
          "name": "",
          "type": "bool"
        }
      ],
      "stateMutability": "nonpayable",
      "type": "function"
    },
    {
      "inputs": [],
      "name": "doublingDuration",
      "outputs": [
        {
          "internalType": "uint256",
          "name": "",
          "type": "uint256"
        }
      ],
      "stateMutability": "view",
      "type": "function"
    },
    {
      "inputs": [],
      "name": "getPool",
      "outputs": [
        {
          "internalType": "address",
          "name": "",
          "type": "address"
        }
      ],
      "stateMutability": "view",
      "type": "function"
    },
    {
      "inputs": [
        {
          "internalType": "address",
          "name": "asset",
          "type": "address"
        }
      ],
      "name": "getReserveData",
      "outputs": [
        {
          "components": [
            {
              "components": [
                {
                  "internalType": "uint256",
                  "name": "data",
                  "type": "uint256"
                }
              ],
              "internalType": "struct AaveDataTypes.ReserveConfigurationMap",
              "name": "configuration",
              "type": "tuple"
            },
            {
              "internalType": "uint128",
              "name": "liquidityIndex",
              "type": "uint128"
            },
            {
              "internalType": "uint128",
              "name": "currentLiquidityRate",
              "type": "uint128"
            },
            {
              "internalType": "uint128",
              "name": "variableBorrowIndex",
              "type": "uint128"
            },
            {
              "internalType": "uint128",
              "name": "currentVariableBorrowRate",
              "type": "uint128"
            },
            {
              "internalType": "uint128",
              "name": "currentStableBorrowRate",
              "type": "uint128"
            },
            {
              "internalType": "uint40",
              "name": "lastUpdateTimestamp",
              "type": "uint40"
            },
            {
              "internalType": "uint16",
              "name": "id",
              "type": "uint16"
            },
            {
              "internalType": "address",
              "name": "aTokenAddress",
              "type": "address"
            },
            {
              "internalType": "address",
              "name": "stableDebtTokenAddress",
              "type": "address"
            },
            {
              "internalType": "address",
              "name": "variableDebtTokenAddress",
              "type": "address"
            },
            {
              "internalType": "address",
              "name": "interestRateStrategyAddress",
              "type": "address"
            },
            {
              "internalType": "uint128",
              "name": "accruedToTreasury",
              "type": "uint128"
            },
            {
              "internalType": "uint128",
              "name": "unbacked",
              "type": "uint128"
            },
            {
              "internalType": "uint128",
              "name": "isolationModeTotalDebt",
              "type": "uint128"
            }
          ],
          "internalType": "struct AaveDataTypes.ReserveData",
          "name": "data",
          "type": "tuple"
        }
      ],
      "stateMutability": "view",
      "type": "function"
    },
    {
      "inputs": [
        {
          "internalType": "address",
          "name": "spender",
          "type": "address"
        },
        {
          "internalType": "uint256",
          "name": "addedValue",
          "type": "uint256"
        }
      ],
      "name": "increaseAllowance",
      "outputs": [
        {
          "internalType": "bool",
          "name": "",
          "type": "bool"
        }
      ],
      "stateMutability": "nonpayable",
      "type": "function"
    },
    {
      "inputs": [],
      "name": "name",
      "outputs": [
        {
          "internalType": "string",
          "name": "",
          "type": "string"
        }
      ],
      "stateMutability": "view",
      "type": "function"
    },
    {
      "inputs": [],
      "name": "owner",
      "outputs": [
        {
          "internalType": "address",
          "name": "",
          "type": "address"
        }
      ],
      "stateMutability": "view",
      "type": "function"
    },
    {
      "inputs": [],
      "name": "rToken",
      "outputs": [
        {
          "internalType": "contract IERC20Metadata",
          "name": "",
          "type": "address"
        }
      ],
      "stateMutability": "view",
      "type": "function"
    },
    {
      "inputs": [],
      "name": "renounceOwnership",
      "outputs": [],
      "stateMutability": "nonpayable",
      "type": "function"
    },
    {
      "inputs": [
        {
          "internalType": "uint256",
          "name": "_doublingDuration",
          "type": "uint256"
        }
      ],
      "name": "setDoublingDuration",
      "outputs": [],
      "stateMutability": "nonpayable",
      "type": "function"
    },
    {
      "inputs": [
        {
          "internalType": "address",
          "name": "asset",
          "type": "address"
        },
        {
          "internalType": "uint256",
          "name": "amount",
          "type": "uint256"
        },
        {
          "internalType": "address",
          "name": "onBehalfOf",
          "type": "address"
        },
        {
          "internalType": "uint16",
          "name": "",
          "type": "uint16"
        }
      ],
      "name": "supply",
      "outputs": [],
      "stateMutability": "nonpayable",
      "type": "function"
    },
    {
      "inputs": [],
      "name": "symbol",
      "outputs": [
        {
          "internalType": "string",
          "name": "",
          "type": "string"
        }
      ],
      "stateMutability": "view",
      "type": "function"
    },
    {
      "inputs": [],
      "name": "totalSupply",
      "outputs": [
        {
          "internalType": "uint256",
          "name": "",
          "type": "uint256"
        }
      ],
      "stateMutability": "view",
      "type": "function"
    },
    {
      "inputs": [
        {
          "internalType": "address",
          "name": "to",
          "type": "address"
        },
        {
          "internalType": "uint256",
          "name": "amount",
          "type": "uint256"
        }
      ],
      "name": "transfer",
      "outputs": [
        {
          "internalType": "bool",
          "name": "",
          "type": "bool"
        }
      ],
      "stateMutability": "nonpayable",
      "type": "function"
    },
    {
      "inputs": [
        {
          "internalType": "address",
          "name": "from",
          "type": "address"
        },
        {
          "internalType": "address",
          "name": "to",
          "type": "address"
        },
        {
          "internalType": "uint256",
          "name": "amount",
          "type": "uint256"
        }
      ],
      "name": "transferFrom",
      "outputs": [
        {
          "internalType": "bool",
          "name": "",
          "type": "bool"
        }
      ],
      "stateMutability": "nonpayable",
      "type": "function"
    },
    {
      "inputs": [
        {
          "internalType": "address",
          "name": "newOwner",
          "type": "address"
        }
      ],
      "name": "transferOwnership",
      "outputs": [],
      "stateMutability": "nonpayable",
      "type": "function"
    },
    {
      "inputs": [
        {
          "internalType": "address",
          "name": "asset",
          "type": "address"
        },
        {
          "internalType": "uint256",
          "name": "amount",
          "type": "uint256"
        },
        {
          "internalType": "address",
          "name": "to",
          "type": "address"
        }
      ],
      "name": "withdraw",
      "outputs": [
        {
          "internalType": "uint256",
          "name": "",
          "type": "uint256"
        }
      ],
      "stateMutability": "nonpayable",
      "type": "function"
    }
  ],
  "transactionHash": "0xf7b9597c01e8e96799391787f54d9ccde34dcdd8ff92d2d921205a511d146c44",
  "args": [
    "0x7ab4fCFCd4F108cdC43D591C0546aC7cfC36fd6B",
    600
  ],
  "numDeployments": 1,
  "solcInputHash": "54791209b0293625abf313aa86b4aed2",
  "bytecode": "0x60a06040523480156200001157600080fd5b50604051620032cd380380620032cd83398181016040528101906200003791906200035d565b6040518060400160405280601e81526020017f5374616b6520666f7220456172746820546573746e65742061546f6b656e00008152506040518060400160405280600481526020017f61534645000000000000000000000000000000000000000000000000000000008152508160039080519060200190620000bb92919062000208565b508060049080519060200190620000d492919062000208565b505050620000f7620000eb6200013a60201b60201c565b6200014260201b60201c565b8173ffffffffffffffffffffffffffffffffffffffff1660808173ffffffffffffffffffffffffffffffffffffffff168152505080600681905550505062000409565b600033905090565b6000600560009054906101000a900473ffffffffffffffffffffffffffffffffffffffff16905081600560006101000a81548173ffffffffffffffffffffffffffffffffffffffff021916908373ffffffffffffffffffffffffffffffffffffffff1602179055508173ffffffffffffffffffffffffffffffffffffffff168173ffffffffffffffffffffffffffffffffffffffff167f8be0079c531659141344cd1fd0a4f28419497f9722a3daafe3b4186f6b6457e060405160405180910390a35050565b8280546200021690620003d3565b90600052602060002090601f0160209004810192826200023a576000855562000286565b82601f106200025557805160ff191683800117855562000286565b8280016001018555821562000286579182015b828111156200028557825182559160200191906001019062000268565b5b50905062000295919062000299565b5090565b5b80821115620002b45760008160009055506001016200029a565b5090565b600080fd5b600073ffffffffffffffffffffffffffffffffffffffff82169050919050565b6000620002ea82620002bd565b9050919050565b620002fc81620002dd565b81146200030857600080fd5b50565b6000815190506200031c81620002f1565b92915050565b6000819050919050565b620003378162000322565b81146200034357600080fd5b50565b60008151905062000357816200032c565b92915050565b60008060408385031215620003775762000376620002b8565b5b600062000387858286016200030b565b92505060206200039a8582860162000346565b9150509250929050565b7f4e487b7100000000000000000000000000000000000000000000000000000000600052602260045260246000fd5b60006002820490506001821680620003ec57607f821691505b60208210811415620004035762000402620003a4565b5b50919050565b608051612e7e6200044f6000396000818161054c015281816105e9015281816106ed01528181610712015281816107a60152818161080a01526108e90152612e7e6000f3fe608060405234801561001057600080fd5b50600436106101375760003560e01c806340c65f72116100b85780638da5cb5b1161007c5780638da5cb5b1461035257806395d89b4114610370578063a457c2d71461038e578063a9059cbb146103be578063dd62ed3e146103ee578063f2fde38b1461041e57610137565b806340c65f72146102ae578063617ba037146102cc57806369328dec146102e857806370a0823114610318578063715018a61461034857610137565b806323b872dd116100ff57806323b872dd146101e457806330c48cbf14610214578063313ce5671461023057806335ea6a751461024e578063395093511461027e57610137565b8063026b1d5f1461013c57806306fdde031461015a578063095ea7b31461017857806309c30421146101a857806318160ddd146101c6575b600080fd5b61014461043a565b6040516101519190611cd9565b60405180910390f35b610162610442565b60405161016f9190611d8d565b60405180910390f35b610192600480360381019061018d9190611e16565b6104d4565b60405161019f9190611e71565b60405180910390f35b6101b06104f7565b6040516101bd9190611e9b565b60405180910390f35b6101ce6104fd565b6040516101db9190611e9b565b60405180910390f35b6101fe60048036038101906101f99190611eb6565b610507565b60405161020b9190611e71565b60405180910390f35b61022e60048036038101906102299190611f09565b610536565b005b610238610548565b6040516102459190611f52565b60405180910390f35b61026860048036038101906102639190611f6d565b6105de565b6040516102759190612171565b60405180910390f35b61029860048036038101906102939190611e16565b6106b4565b6040516102a59190611e71565b60405180910390f35b6102b66106eb565b6040516102c391906121ec565b60405180910390f35b6102e660048036038101906102e19190612233565b61070f565b005b61030260048036038101906102fd919061229a565b610805565b60405161030f9190611e9b565b60405180910390f35b610332600480360381019061032d9190611f6d565b610939565b60405161033f9190611e9b565b60405180910390f35b610350610a04565b005b61035a610a18565b6040516103679190611cd9565b60405180910390f35b610378610a42565b6040516103859190611d8d565b60405180910390f35b6103a860048036038101906103a39190611e16565b610ad4565b6040516103b59190611e71565b60405180910390f35b6103d860048036038101906103d39190611e16565b610b4b565b6040516103e59190611e71565b60405180910390f35b610408600480360381019061040391906122ed565b610b6e565b6040516104159190611e9b565b60405180910390f35b61043860048036038101906104339190611f6d565b610bf5565b005b600030905090565b6060600380546104519061235c565b80601f016020809104026020016040519081016040528092919081815260200182805461047d9061235c565b80156104ca5780601f1061049f576101008083540402835291602001916104ca565b820191906000526020600020905b8154815290600101906020018083116104ad57829003601f168201915b5050505050905090565b6000806104df610c79565b90506104ec818585610c81565b600191505092915050565b60065481565b6000600254905090565b600080610512610c79565b905061051f858285610e4c565b61052a858585610ed8565b60019150509392505050565b61053e611159565b8060068190555050565b60007f000000000000000000000000000000000000000000000000000000000000000073ffffffffffffffffffffffffffffffffffffffff1663313ce5676040518163ffffffff1660e01b8152600401602060405180830381865afa1580156105b5573d6000803e3d6000fd5b505050506040513d601f19601f820116820180604052508101906105d991906123ba565b905090565b6105e6611b16565b817f000000000000000000000000000000000000000000000000000000000000000073ffffffffffffffffffffffffffffffffffffffff168173ffffffffffffffffffffffffffffffffffffffff1614610675576040517f08c379a000000000000000000000000000000000000000000000000000000000815260040161066c90612433565b60405180910390fd5b3082610100019073ffffffffffffffffffffffffffffffffffffffff16908173ffffffffffffffffffffffffffffffffffffffff168152505050919050565b6000806106bf610c79565b90506106e08185856106d18589610b6e565b6106db9190612482565b610c81565b600191505092915050565b7f000000000000000000000000000000000000000000000000000000000000000081565b837f000000000000000000000000000000000000000000000000000000000000000073ffffffffffffffffffffffffffffffffffffffff168173ffffffffffffffffffffffffffffffffffffffff161461079e576040517f08c379a000000000000000000000000000000000000000000000000000000000815260040161079590612433565b60405180910390fd5b6107eb3330867f000000000000000000000000000000000000000000000000000000000000000073ffffffffffffffffffffffffffffffffffffffff166111d7909392919063ffffffff16565b6107f483611260565b6107fe83856112e8565b5050505050565b6000837f000000000000000000000000000000000000000000000000000000000000000073ffffffffffffffffffffffffffffffffffffffff168173ffffffffffffffffffffffffffffffffffffffff1614610896576040517f08c379a000000000000000000000000000000000000000000000000000000000815260040161088d90612433565b60405180910390fd5b60003390507fffffffffffffffffffffffffffffffffffffffffffffffffffffffffffffffff8514156108cf576108cc81610939565b94505b6108d881611260565b6108e28186611448565b61092d84867f000000000000000000000000000000000000000000000000000000000000000073ffffffffffffffffffffffffffffffffffffffff1661161f9092919063ffffffff16565b84925050509392505050565b600080600760008473ffffffffffffffffffffffffffffffffffffffff1673ffffffffffffffffffffffffffffffffffffffff1681526020019081526020016000205490506000610989846116a5565b90506000824261099991906124d8565b905060008314806109aa5750600082145b806109b55750600081145b156109c5578193505050506109ff565b6006548111156109d55760065490505b6109f9816006546109e69190612482565b600654846116ed9092919063ffffffff16565b93505050505b919050565b610a0c611159565b610a1660006117c9565b565b6000600560009054906101000a900473ffffffffffffffffffffffffffffffffffffffff16905090565b606060048054610a519061235c565b80601f0160208091040260200160405190810160405280929190818152602001828054610a7d9061235c565b8015610aca5780601f10610a9f57610100808354040283529160200191610aca565b820191906000526020600020905b815481529060010190602001808311610aad57829003601f168201915b5050505050905090565b600080610adf610c79565b90506000610aed8286610b6e565b905083811015610b32576040517f08c379a0000000000000000000000000000000000000000000000000000000008152600401610b299061257e565b60405180910390fd5b610b3f8286868403610c81565b60019250505092915050565b600080610b56610c79565b9050610b63818585610ed8565b600191505092915050565b6000600160008473ffffffffffffffffffffffffffffffffffffffff1673ffffffffffffffffffffffffffffffffffffffff16815260200190815260200160002060008373ffffffffffffffffffffffffffffffffffffffff1673ffffffffffffffffffffffffffffffffffffffff16815260200190815260200160002054905092915050565b610bfd611159565b600073ffffffffffffffffffffffffffffffffffffffff168173ffffffffffffffffffffffffffffffffffffffff161415610c6d576040517f08c379a0000000000000000000000000000000000000000000000000000000008152600401610c6490612610565b60405180910390fd5b610c76816117c9565b50565b600033905090565b600073ffffffffffffffffffffffffffffffffffffffff168373ffffffffffffffffffffffffffffffffffffffff161415610cf1576040517f08c379a0000000000000000000000000000000000000000000000000000000008152600401610ce8906126a2565b60405180910390fd5b600073ffffffffffffffffffffffffffffffffffffffff168273ffffffffffffffffffffffffffffffffffffffff161415610d61576040517f08c379a0000000000000000000000000000000000000000000000000000000008152600401610d5890612734565b60405180910390fd5b80600160008573ffffffffffffffffffffffffffffffffffffffff1673ffffffffffffffffffffffffffffffffffffffff16815260200190815260200160002060008473ffffffffffffffffffffffffffffffffffffffff1673ffffffffffffffffffffffffffffffffffffffff168152602001908152602001600020819055508173ffffffffffffffffffffffffffffffffffffffff168373ffffffffffffffffffffffffffffffffffffffff167f8c5be1e5ebec7d5bd14f71427d1e84f3dd0314c0f7b2291e5b200ac8c7c3b92583604051610e3f9190611e9b565b60405180910390a3505050565b6000610e588484610b6e565b90507fffffffffffffffffffffffffffffffffffffffffffffffffffffffffffffffff8114610ed25781811015610ec4576040517f08c379a0000000000000000000000000000000000000000000000000000000008152600401610ebb906127a0565b60405180910390fd5b610ed18484848403610c81565b5b50505050565b600073ffffffffffffffffffffffffffffffffffffffff168373ffffffffffffffffffffffffffffffffffffffff161415610f48576040517f08c379a0000000000000000000000000000000000000000000000000000000008152600401610f3f90612832565b60405180910390fd5b600073ffffffffffffffffffffffffffffffffffffffff168273ffffffffffffffffffffffffffffffffffffffff161415610fb8576040517f08c379a0000000000000000000000000000000000000000000000000000000008152600401610faf906128c4565b60405180910390fd5b610fc383838361188f565b60008060008573ffffffffffffffffffffffffffffffffffffffff1673ffffffffffffffffffffffffffffffffffffffff16815260200190815260200160002054905081811015611049576040517f08c379a000000000000000000000000000000000000000000000000000000000815260040161104090612956565b60405180910390fd5b8181036000808673ffffffffffffffffffffffffffffffffffffffff1673ffffffffffffffffffffffffffffffffffffffff16815260200190815260200160002081905550816000808573ffffffffffffffffffffffffffffffffffffffff1673ffffffffffffffffffffffffffffffffffffffff16815260200190815260200160002060008282546110dc9190612482565b925050819055508273ffffffffffffffffffffffffffffffffffffffff168473ffffffffffffffffffffffffffffffffffffffff167fddf252ad1be2c89b69c2b068fc378daa952ba7f163c4a11628f55a4df523b3ef846040516111409190611e9b565b60405180910390a3611153848484611894565b50505050565b611161610c79565b73ffffffffffffffffffffffffffffffffffffffff1661117f610a18565b73ffffffffffffffffffffffffffffffffffffffff16146111d5576040517f08c379a00000000000000000000000000000000000000000000000000000000081526004016111cc906129c2565b60405180910390fd5b565b61125a846323b872dd60e01b8585856040516024016111f8939291906129e2565b604051602081830303815290604052907bffffffffffffffffffffffffffffffffffffffffffffffffffffffff19166020820180517bffffffffffffffffffffffffffffffffffffffffffffffffffffffff8381831617835250505050611899565b50505050565b600061126b826116a5565b905042600760008473ffffffffffffffffffffffffffffffffffffffff1673ffffffffffffffffffffffffffffffffffffffff1681526020019081526020016000208190555060008114156112c057506112e5565b60006112cb83610939565b90506112e28383836112dd91906124d8565b6112e8565b50505b50565b600073ffffffffffffffffffffffffffffffffffffffff168273ffffffffffffffffffffffffffffffffffffffff161415611358576040517f08c379a000000000000000000000000000000000000000000000000000000000815260040161134f90612a65565b60405180910390fd5b6113646000838361188f565b80600260008282546113769190612482565b92505081905550806000808473ffffffffffffffffffffffffffffffffffffffff1673ffffffffffffffffffffffffffffffffffffffff16815260200190815260200160002060008282546113cb9190612482565b925050819055508173ffffffffffffffffffffffffffffffffffffffff16600073ffffffffffffffffffffffffffffffffffffffff167fddf252ad1be2c89b69c2b068fc378daa952ba7f163c4a11628f55a4df523b3ef836040516114309190611e9b565b60405180910390a361144460008383611894565b5050565b600073ffffffffffffffffffffffffffffffffffffffff168273ffffffffffffffffffffffffffffffffffffffff1614156114b8576040517f08c379a00000000000000000000000000000000000000000000000000000000081526004016114af90612af7565b60405180910390fd5b6114c48260008361188f565b60008060008473ffffffffffffffffffffffffffffffffffffffff1673ffffffffffffffffffffffffffffffffffffffff1681526020019081526020016000205490508181101561154a576040517f08c379a000000000000000000000000000000000000000000000000000000000815260040161154190612b89565b60405180910390fd5b8181036000808573ffffffffffffffffffffffffffffffffffffffff1673ffffffffffffffffffffffffffffffffffffffff1681526020019081526020016000208190555081600260008282546115a191906124d8565b92505081905550600073ffffffffffffffffffffffffffffffffffffffff168373ffffffffffffffffffffffffffffffffffffffff167fddf252ad1be2c89b69c2b068fc378daa952ba7f163c4a11628f55a4df523b3ef846040516116069190611e9b565b60405180910390a361161a83600084611894565b505050565b6116a08363a9059cbb60e01b848460405160240161163e929190612ba9565b604051602081830303815290604052907bffffffffffffffffffffffffffffffffffffffffffffffffffffffff19166020820180517bffffffffffffffffffffffffffffffffffffffffffffffffffffffff8381831617835250505050611899565b505050565b60008060008373ffffffffffffffffffffffffffffffffffffffff1673ffffffffffffffffffffffffffffffffffffffff168152602001908152602001600020549050919050565b6000806000801985870985870292508281108382030391505060008114156117295783828161171f5761171e612bd2565b5b04925050506117c2565b80841161173557600080fd5b60008486880990508281118203915080830392506000600186190186169050808604955080840493506001818260000304019050808302841793506000600287600302189050808702600203810290508087026002038102905080870260020381029050808702600203810290508087026002038102905080870260020381029050808502955050505050505b9392505050565b6000600560009054906101000a900473ffffffffffffffffffffffffffffffffffffffff16905081600560006101000a81548173ffffffffffffffffffffffffffffffffffffffff021916908373ffffffffffffffffffffffffffffffffffffffff1602179055508173ffffffffffffffffffffffffffffffffffffffff168173ffffffffffffffffffffffffffffffffffffffff167f8be0079c531659141344cd1fd0a4f28419497f9722a3daafe3b4186f6b6457e060405160405180910390a35050565b505050565b505050565b60006118fb826040518060400160405280602081526020017f5361666545524332303a206c6f772d6c6576656c2063616c6c206661696c65648152508573ffffffffffffffffffffffffffffffffffffffff166119609092919063ffffffff16565b905060008151111561195b578080602001905181019061191b9190612c2d565b61195a576040517f08c379a000000000000000000000000000000000000000000000000000000000815260040161195190612ccc565b60405180910390fd5b5b505050565b606061196f8484600085611978565b90509392505050565b6060824710156119bd576040517f08c379a00000000000000000000000000000000000000000000000000000000081526004016119b490612d5e565b60405180910390fd5b6119c685611a8c565b611a05576040517f08c379a00000000000000000000000000000000000000000000000000000000081526004016119fc90612dca565b60405180910390fd5b6000808673ffffffffffffffffffffffffffffffffffffffff168587604051611a2e9190612e31565b60006040518083038185875af1925050503d8060008114611a6b576040519150601f19603f3d011682016040523d82523d6000602084013e611a70565b606091505b5091509150611a80828286611aaf565b92505050949350505050565b6000808273ffffffffffffffffffffffffffffffffffffffff163b119050919050565b60608315611abf57829050611b0f565b600083511115611ad25782518084602001fd5b816040517f08c379a0000000000000000000000000000000000000000000000000000000008152600401611b069190611d8d565b60405180910390fd5b9392505050565b604051806101e00160405280611b2a611c85565b815260200160006fffffffffffffffffffffffffffffffff16815260200160006fffffffffffffffffffffffffffffffff16815260200160006fffffffffffffffffffffffffffffffff16815260200160006fffffffffffffffffffffffffffffffff16815260200160006fffffffffffffffffffffffffffffffff168152602001600064ffffffffff168152602001600061ffff168152602001600073ffffffffffffffffffffffffffffffffffffffff168152602001600073ffffffffffffffffffffffffffffffffffffffff168152602001600073ffffffffffffffffffffffffffffffffffffffff168152602001600073ffffffffffffffffffffffffffffffffffffffff16815260200160006fffffffffffffffffffffffffffffffff16815260200160006fffffffffffffffffffffffffffffffff16815260200160006fffffffffffffffffffffffffffffffff1681525090565b6040518060200160405280600081525090565b600073ffffffffffffffffffffffffffffffffffffffff82169050919050565b6000611cc382611c98565b9050919050565b611cd381611cb8565b82525050565b6000602082019050611cee6000830184611cca565b92915050565b600081519050919050565b600082825260208201905092915050565b60005b83811015611d2e578082015181840152602081019050611d13565b83811115611d3d576000848401525b50505050565b6000601f19601f8301169050919050565b6000611d5f82611cf4565b611d698185611cff565b9350611d79818560208601611d10565b611d8281611d43565b840191505092915050565b60006020820190508181036000830152611da78184611d54565b905092915050565b600080fd5b611dbd81611cb8565b8114611dc857600080fd5b50565b600081359050611dda81611db4565b92915050565b6000819050919050565b611df381611de0565b8114611dfe57600080fd5b50565b600081359050611e1081611dea565b92915050565b60008060408385031215611e2d57611e2c611daf565b5b6000611e3b85828601611dcb565b9250506020611e4c85828601611e01565b9150509250929050565b60008115159050919050565b611e6b81611e56565b82525050565b6000602082019050611e866000830184611e62565b92915050565b611e9581611de0565b82525050565b6000602082019050611eb06000830184611e8c565b92915050565b600080600060608486031215611ecf57611ece611daf565b5b6000611edd86828701611dcb565b9350506020611eee86828701611dcb565b9250506040611eff86828701611e01565b9150509250925092565b600060208284031215611f1f57611f1e611daf565b5b6000611f2d84828501611e01565b91505092915050565b600060ff82169050919050565b611f4c81611f36565b82525050565b6000602082019050611f676000830184611f43565b92915050565b600060208284031215611f8357611f82611daf565b5b6000611f9184828501611dcb565b91505092915050565b611fa381611de0565b82525050565b602082016000820151611fbf6000850182611f9a565b50505050565b60006fffffffffffffffffffffffffffffffff82169050919050565b611fea81611fc5565b82525050565b600064ffffffffff82169050919050565b61200a81611ff0565b82525050565b600061ffff82169050919050565b61202781612010565b82525050565b61203681611cb8565b82525050565b6101e0820160008201516120536000850182611fa9565b5060208201516120666020850182611fe1565b5060408201516120796040850182611fe1565b50606082015161208c6060850182611fe1565b50608082015161209f6080850182611fe1565b5060a08201516120b260a0850182611fe1565b5060c08201516120c560c0850182612001565b5060e08201516120d860e085018261201e565b506101008201516120ed61010085018261202d565b5061012082015161210261012085018261202d565b5061014082015161211761014085018261202d565b5061016082015161212c61016085018261202d565b50610180820151612141610180850182611fe1565b506101a08201516121566101a0850182611fe1565b506101c082015161216b6101c0850182611fe1565b50505050565b60006101e082019050612187600083018461203c565b92915050565b6000819050919050565b60006121b26121ad6121a884611c98565b61218d565b611c98565b9050919050565b60006121c482612197565b9050919050565b60006121d6826121b9565b9050919050565b6121e6816121cb565b82525050565b600060208201905061220160008301846121dd565b92915050565b61221081612010565b811461221b57600080fd5b50565b60008135905061222d81612207565b92915050565b6000806000806080858703121561224d5761224c611daf565b5b600061225b87828801611dcb565b945050602061226c87828801611e01565b935050604061227d87828801611dcb565b925050606061228e8782880161221e565b91505092959194509250565b6000806000606084860312156122b3576122b2611daf565b5b60006122c186828701611dcb565b93505060206122d286828701611e01565b92505060406122e386828701611dcb565b9150509250925092565b6000806040838503121561230457612303611daf565b5b600061231285828601611dcb565b925050602061232385828601611dcb565b9150509250929050565b7f4e487b7100000000000000000000000000000000000000000000000000000000600052602260045260246000fd5b6000600282049050600182168061237457607f821691505b602082108114156123885761238761232d565b5b50919050565b61239781611f36565b81146123a257600080fd5b50565b6000815190506123b48161238e565b92915050565b6000602082840312156123d0576123cf611daf565b5b60006123de848285016123a5565b91505092915050565b7f6f6e6c792072546f6b656e20616c6c6f77656400000000000000000000000000600082015250565b600061241d601383611cff565b9150612428826123e7565b602082019050919050565b6000602082019050818103600083015261244c81612410565b9050919050565b7f4e487b7100000000000000000000000000000000000000000000000000000000600052601160045260246000fd5b600061248d82611de0565b915061249883611de0565b9250827fffffffffffffffffffffffffffffffffffffffffffffffffffffffffffffffff038211156124cd576124cc612453565b5b828201905092915050565b60006124e382611de0565b91506124ee83611de0565b92508282101561250157612500612453565b5b828203905092915050565b7f45524332303a2064656372656173656420616c6c6f77616e63652062656c6f7760008201527f207a65726f000000000000000000000000000000000000000000000000000000602082015250565b6000612568602583611cff565b91506125738261250c565b604082019050919050565b600060208201905081810360008301526125978161255b565b9050919050565b7f4f776e61626c653a206e6577206f776e657220697320746865207a65726f206160008201527f6464726573730000000000000000000000000000000000000000000000000000602082015250565b60006125fa602683611cff565b91506126058261259e565b604082019050919050565b60006020820190508181036000830152612629816125ed565b9050919050565b7f45524332303a20617070726f76652066726f6d20746865207a65726f2061646460008201527f7265737300000000000000000000000000000000000000000000000000000000602082015250565b600061268c602483611cff565b915061269782612630565b604082019050919050565b600060208201905081810360008301526126bb8161267f565b9050919050565b7f45524332303a20617070726f766520746f20746865207a65726f20616464726560008201527f7373000000000000000000000000000000000000000000000000000000000000602082015250565b600061271e602283611cff565b9150612729826126c2565b604082019050919050565b6000602082019050818103600083015261274d81612711565b9050919050565b7f45524332303a20696e73756666696369656e7420616c6c6f77616e6365000000600082015250565b600061278a601d83611cff565b915061279582612754565b602082019050919050565b600060208201905081810360008301526127b98161277d565b9050919050565b7f45524332303a207472616e736665722066726f6d20746865207a65726f20616460008201527f6472657373000000000000000000000000000000000000000000000000000000602082015250565b600061281c602583611cff565b9150612827826127c0565b604082019050919050565b6000602082019050818103600083015261284b8161280f565b9050919050565b7f45524332303a207472616e7366657220746f20746865207a65726f206164647260008201527f6573730000000000000000000000000000000000000000000000000000000000602082015250565b60006128ae602383611cff565b91506128b982612852565b604082019050919050565b600060208201905081810360008301526128dd816128a1565b9050919050565b7f45524332303a207472616e7366657220616d6f756e742065786365656473206260008201527f616c616e63650000000000000000000000000000000000000000000000000000602082015250565b6000612940602683611cff565b915061294b826128e4565b604082019050919050565b6000602082019050818103600083015261296f81612933565b9050919050565b7f4f776e61626c653a2063616c6c6572206973206e6f7420746865206f776e6572600082015250565b60006129ac602083611cff565b91506129b782612976565b602082019050919050565b600060208201905081810360008301526129db8161299f565b9050919050565b60006060820190506129f76000830186611cca565b612a046020830185611cca565b612a116040830184611e8c565b949350505050565b7f45524332303a206d696e7420746f20746865207a65726f206164647265737300600082015250565b6000612a4f601f83611cff565b9150612a5a82612a19565b602082019050919050565b60006020820190508181036000830152612a7e81612a42565b9050919050565b7f45524332303a206275726e2066726f6d20746865207a65726f2061646472657360008201527f7300000000000000000000000000000000000000000000000000000000000000602082015250565b6000612ae1602183611cff565b9150612aec82612a85565b604082019050919050565b60006020820190508181036000830152612b1081612ad4565b9050919050565b7f45524332303a206275726e20616d6f756e7420657863656564732062616c616e60008201527f6365000000000000000000000000000000000000000000000000000000000000602082015250565b6000612b73602283611cff565b9150612b7e82612b17565b604082019050919050565b60006020820190508181036000830152612ba281612b66565b9050919050565b6000604082019050612bbe6000830185611cca565b612bcb6020830184611e8c565b9392505050565b7f4e487b7100000000000000000000000000000000000000000000000000000000600052601260045260246000fd5b612c0a81611e56565b8114612c1557600080fd5b50565b600081519050612c2781612c01565b92915050565b600060208284031215612c4357612c42611daf565b5b6000612c5184828501612c18565b91505092915050565b7f5361666545524332303a204552433230206f7065726174696f6e20646964206e60008201527f6f74207375636365656400000000000000000000000000000000000000000000602082015250565b6000612cb6602a83611cff565b9150612cc182612c5a565b604082019050919050565b60006020820190508181036000830152612ce581612ca9565b9050919050565b7f416464726573733a20696e73756666696369656e742062616c616e636520666f60008201527f722063616c6c0000000000000000000000000000000000000000000000000000602082015250565b6000612d48602683611cff565b9150612d5382612cec565b604082019050919050565b60006020820190508181036000830152612d7781612d3b565b9050919050565b7f416464726573733a2063616c6c20746f206e6f6e2d636f6e7472616374000000600082015250565b6000612db4601d83611cff565b9150612dbf82612d7e565b602082019050919050565b60006020820190508181036000830152612de381612da7565b9050919050565b600081519050919050565b600081905092915050565b6000612e0b82612dea565b612e158185612df5565b9350612e25818560208601611d10565b80840191505092915050565b6000612e3d8284612e00565b91508190509291505056fea264697066735822122085ed40e2b8b47c7fc2190981bf8388e74eef2a9802562b58936e0d9c261babbf64736f6c634300080a0033",
  "devdoc": {
    "author": "Sebastian Stammler",
    "details": "Reference token deposited into this contract with function `supply` yields an emulated linear return until a specified doubling time, from which point on it stays the same until another action changes the token balance again, either in- or decreasing it. The AaveMock is also the aToken of the reference token.",
    "kind": "dev",
    "methods": {
      "allowance(address,address)": {
        "details": "See {IERC20-allowance}."
      },
      "approve(address,uint256)": {
        "details": "See {IERC20-approve}. NOTE: If `amount` is the maximum `uint256`, the allowance is not updated on `transferFrom`. This is semantically equivalent to an infinite approval. Requirements: - `spender` cannot be the zero address."
      },
      "balanceOf(address)": {
        "details": "See {IERC20-balanceOf}."
      },
      "decimals()": {
        "details": "Returns the number of decimals used to get its user representation. For example, if `decimals` equals `2`, a balance of `505` tokens should be displayed to a user as `5.05` (`505 / 10 ** 2`). Tokens usually opt for a value of 18, imitating the relationship between Ether and Wei. This is the value {ERC20} uses, unless this function is overridden; NOTE: This information is only used for _display_ purposes: it in no way affects any of the arithmetic of the contract, including {IERC20-balanceOf} and {IERC20-transfer}."
      },
      "decreaseAllowance(address,uint256)": {
        "details": "Atomically decreases the allowance granted to `spender` by the caller. This is an alternative to {approve} that can be used as a mitigation for problems described in {IERC20-approve}. Emits an {Approval} event indicating the updated allowance. Requirements: - `spender` cannot be the zero address. - `spender` must have allowance for the caller of at least `subtractedValue`."
      },
      "getPool()": {
        "returns": {
          "_0": "The Pool proxy address*"
        }
      },
      "getReserveData(address)": {
        "params": {
          "asset": "The address of the underlying asset of the reserve"
        },
        "returns": {
          "data": "The state and configuration data of the reserve*"
        }
      },
      "increaseAllowance(address,uint256)": {
        "details": "Atomically increases the allowance granted to `spender` by the caller. This is an alternative to {approve} that can be used as a mitigation for problems described in {IERC20-approve}. Emits an {Approval} event indicating the updated allowance. Requirements: - `spender` cannot be the zero address."
      },
      "name()": {
        "details": "Returns the name of the token."
      },
      "owner()": {
        "details": "Returns the address of the current owner."
      },
      "renounceOwnership()": {
        "details": "Leaves the contract without owner. It will not be possible to call `onlyOwner` functions anymore. Can only be called by the current owner. NOTE: Renouncing ownership will leave the contract without an owner, thereby removing any functionality that is only available to the owner."
      },
      "symbol()": {
        "details": "Returns the symbol of the token, usually a shorter version of the name."
      },
      "totalSupply()": {
        "details": "See {IERC20-totalSupply}."
      },
      "transfer(address,uint256)": {
        "details": "See {IERC20-transfer}. Requirements: - `to` cannot be the zero address. - the caller must have a balance of at least `amount`."
      },
      "transferFrom(address,address,uint256)": {
        "details": "See {IERC20-transferFrom}. Emits an {Approval} event indicating the updated allowance. This is not required by the EIP. See the note at the beginning of {ERC20}. NOTE: Does not update the allowance if the current allowance is the maximum `uint256`. Requirements: - `from` and `to` cannot be the zero address. - `from` must have a balance of at least `amount`. - the caller must have allowance for ``from``'s tokens of at least `amount`."
      },
      "transferOwnership(address)": {
        "details": "Transfers ownership of the contract to a new account (`newOwner`). Can only be called by the current owner."
      },
      "withdraw(address,uint256,address)": {
        "params": {
          "amount": "The underlying amount to be withdrawn   - Send the value type(uint256).max in order to withdraw the whole aToken balance",
          "asset": "The address of the underlying asset to withdraw",
          "to": "The address that will receive the underlying, same as msg.sender if the user   wants to receive it on his own wallet, or a different address if the beneficiary is a   different wallet"
        },
        "returns": {
          "_0": "The final amount withdrawn*"
        }
      }
    },
    "title": "AavePool and aToken mock for testnets",
    "version": 1
  },
  "userdoc": {
    "kind": "user",
    "methods": {
      "getPool()": {
        "notice": "Returns the address of the Pool proxy."
      },
      "getReserveData(address)": {
        "notice": "Returns the state and configuration of the reserve"
      },
      "withdraw(address,uint256,address)": {
        "notice": "Withdraws an `amount` of underlying asset from the reserve, burning the equivalent aTokens owned E.g. User has 100 aUSDC, calls withdraw() and receives 100 USDC, burning the 100 aUSDC"
      }
    },
    "notice": "AaveMock mocks the Aave Pool, PoolAddressesProvider and also is the aToken for a single external ERC20 reference token.",
    "version": 1
  },
  "storageLayout": {
    "storage": [
      {
        "astId": 128,
        "contract": "contracts/test/AaveMock.sol:AaveMock",
        "label": "_balances",
        "offset": 0,
        "slot": "0",
        "type": "t_mapping(t_address,t_uint256)"
      },
      {
        "astId": 134,
        "contract": "contracts/test/AaveMock.sol:AaveMock",
        "label": "_allowances",
        "offset": 0,
        "slot": "1",
        "type": "t_mapping(t_address,t_mapping(t_address,t_uint256))"
      },
      {
        "astId": 136,
        "contract": "contracts/test/AaveMock.sol:AaveMock",
        "label": "_totalSupply",
        "offset": 0,
        "slot": "2",
        "type": "t_uint256"
      },
      {
        "astId": 138,
        "contract": "contracts/test/AaveMock.sol:AaveMock",
        "label": "_name",
        "offset": 0,
        "slot": "3",
        "type": "t_string_storage"
      },
      {
        "astId": 140,
        "contract": "contracts/test/AaveMock.sol:AaveMock",
        "label": "_symbol",
        "offset": 0,
        "slot": "4",
        "type": "t_string_storage"
      },
      {
        "astId": 7,
        "contract": "contracts/test/AaveMock.sol:AaveMock",
        "label": "_owner",
        "offset": 0,
        "slot": "5",
        "type": "t_address"
      },
      {
        "astId": 2114,
        "contract": "contracts/test/AaveMock.sol:AaveMock",
        "label": "doublingDuration",
        "offset": 0,
        "slot": "6",
        "type": "t_uint256"
      },
      {
        "astId": 2118,
        "contract": "contracts/test/AaveMock.sol:AaveMock",
        "label": "lastBalanceUpdate",
        "offset": 0,
        "slot": "7",
        "type": "t_mapping(t_address,t_uint256)"
      }
    ],
    "types": {
      "t_address": {
        "encoding": "inplace",
        "label": "address",
        "numberOfBytes": "20"
      },
      "t_mapping(t_address,t_mapping(t_address,t_uint256))": {
        "encoding": "mapping",
        "key": "t_address",
        "label": "mapping(address => mapping(address => uint256))",
        "numberOfBytes": "32",
        "value": "t_mapping(t_address,t_uint256)"
      },
      "t_mapping(t_address,t_uint256)": {
        "encoding": "mapping",
        "key": "t_address",
        "label": "mapping(address => uint256)",
        "numberOfBytes": "32",
        "value": "t_uint256"
      },
      "t_string_storage": {
        "encoding": "bytes",
        "label": "string",
        "numberOfBytes": "32"
      },
      "t_uint256": {
        "encoding": "inplace",
        "label": "uint256",
        "numberOfBytes": "32"
      }
    }
  }
}