{
  "address": "0xb3E8E4050d83095E21E7B64Fa00EA1a8aB221ddf",
  "abi": [
    {
      "anonymous": false,
      "inputs": [
        {
          "indexed": true,
          "internalType": "address",
          "name": "previousOwner",
          "type": "address"
        },
        {
          "indexed": true,
          "internalType": "address",
          "name": "newOwner",
          "type": "address"
        }
      ],
      "name": "OwnershipTransferred",
      "type": "event"
    },
    {
      "anonymous": false,
      "inputs": [
        {
          "indexed": false,
          "internalType": "address",
          "name": "who",
          "type": "address"
        },
        {
          "indexed": false,
          "internalType": "address",
          "name": "poolToken",
          "type": "address"
        },
        {
          "indexed": false,
          "internalType": "address[]",
          "name": "tco2s",
          "type": "address[]"
        },
        {
          "indexed": false,
          "internalType": "uint256[]",
          "name": "amounts",
          "type": "uint256[]"
        }
      ],
      "name": "Redeemed",
      "type": "event"
    },
    {
      "inputs": [
        {
          "internalType": "address",
          "name": "_fromToken",
          "type": "address"
        },
        {
          "internalType": "uint256",
          "name": "_amountToSwap",
          "type": "uint256"
        },
        {
          "internalType": "address",
          "name": "_poolToken",
          "type": "address"
        }
      ],
      "name": "autoOffsetExactInToken",
      "outputs": [
        {
          "internalType": "address[]",
          "name": "tco2s",
          "type": "address[]"
        },
        {
          "internalType": "uint256[]",
          "name": "amounts",
          "type": "uint256[]"
        }
      ],
      "stateMutability": "nonpayable",
      "type": "function"
    },
    {
      "inputs": [
        {
          "internalType": "address",
          "name": "_fromToken",
          "type": "address"
        },
        {
          "internalType": "uint256",
          "name": "_fromAmount",
          "type": "uint256"
        },
        {
          "internalType": "address",
          "name": "",
          "type": "address"
        }
      ],
      "name": "calculateExpectedPoolTokenForToken",
      "outputs": [
        {
          "internalType": "uint256",
          "name": "",
          "type": "uint256"
        }
      ],
      "stateMutability": "view",
      "type": "function"
    },
    {
      "inputs": [],
      "name": "owner",
      "outputs": [
        {
          "internalType": "address",
          "name": "",
          "type": "address"
        }
      ],
      "stateMutability": "view",
      "type": "function"
    },
    {
      "inputs": [],
      "name": "renounceOwnership",
      "outputs": [],
      "stateMutability": "nonpayable",
      "type": "function"
    },
    {
      "inputs": [
        {
          "internalType": "address",
          "name": "token",
          "type": "address"
        },
        {
          "internalType": "uint256",
          "name": "rateMult",
          "type": "uint256"
        },
        {
          "internalType": "uint256",
          "name": "rateDenom",
          "type": "uint256"
        }
      ],
      "name": "setRate",
      "outputs": [],
      "stateMutability": "nonpayable",
      "type": "function"
    },
    {
      "inputs": [
        {
          "internalType": "address",
          "name": "newOwner",
          "type": "address"
        }
      ],
      "name": "transferOwnership",
      "outputs": [],
      "stateMutability": "nonpayable",
      "type": "function"
    }
  ],
  "transactionHash": "0xcad16485fc4e8188811f9d4623b5ed46d0bf7d1352e6a82825df74d06c4c2563",
  "args": [],
  "numDeployments": 1,
  "solcInputHash": "54791209b0293625abf313aa86b4aed2",
  "bytecode": "0x608060405234801561001057600080fd5b5061002d61002261003260201b60201c565b61003a60201b60201c565b6100fe565b600033905090565b60008060009054906101000a900473ffffffffffffffffffffffffffffffffffffffff169050816000806101000a81548173ffffffffffffffffffffffffffffffffffffffff021916908373ffffffffffffffffffffffffffffffffffffffff1602179055508173ffffffffffffffffffffffffffffffffffffffff168173ffffffffffffffffffffffffffffffffffffffff167f8be0079c531659141344cd1fd0a4f28419497f9722a3daafe3b4186f6b6457e060405160405180910390a35050565b6114308061010d6000396000f3fe608060405234801561001057600080fd5b50600436106100625760003560e01c8063226ee4ef14610067578063690c7e3c14610098578063715018a6146100c85780638da5cb5b146100d2578063ad2e163a146100f0578063f2fde38b1461010c575b600080fd5b610081600480360381019061007c9190610b1f565b610128565b60405161008f929190610cee565b60405180910390f35b6100b260048036038101906100ad9190610b1f565b6101bf565b6040516100bf9190610d34565b60405180910390f35b6100d0610260565b005b6100da610274565b6040516100e79190610d5e565b60405180910390f35b61010a60048036038101906101059190610d79565b61029d565b005b61012660048036038101906101219190610dcc565b610315565b005b6060806101583330868873ffffffffffffffffffffffffffffffffffffffff16610399909392919063ffffffff16565b60006101658686866101bf565b90506101718482610422565b80935081945050507f3d29f82a20ec733db9f357c4dc1ae0ee60c572cc4b877384aa4639e4d877b188338585856040516101ae9493929190610df9565b60405180910390a150935093915050565b600080600160008673ffffffffffffffffffffffffffffffffffffffff1673ffffffffffffffffffffffffffffffffffffffff1681526020019081526020016000206040518060400160405290816000820154815260200160018201548152505090506000816000015114156102385783915050610259565b61025581600001518260200151866105e39092919063ffffffff16565b9150505b9392505050565b6102686106bf565b610272600061073d565b565b60008060009054906101000a900473ffffffffffffffffffffffffffffffffffffffff16905090565b6102a56106bf565b604051806040016040528083815260200182815250600160008573ffffffffffffffffffffffffffffffffffffffff1673ffffffffffffffffffffffffffffffffffffffff1681526020019081526020016000206000820151816000015560208201518160010155905050505050565b61031d6106bf565b600073ffffffffffffffffffffffffffffffffffffffff168173ffffffffffffffffffffffffffffffffffffffff16141561038d576040517f08c379a000000000000000000000000000000000000000000000000000000000815260040161038490610ecf565b60405180910390fd5b6103968161073d565b50565b61041c846323b872dd60e01b8585856040516024016103ba93929190610eef565b604051602081830303815290604052907bffffffffffffffffffffffffffffffffffffffffffffffffffffffff19166020820180517bffffffffffffffffffffffffffffffffffffffffffffffffffffffff8381831617835250505050610801565b50505050565b606080600267ffffffffffffffff8111156104405761043f610f26565b5b60405190808252806020026020018201604052801561046e5781602001602082028036833780820191505090505b50600267ffffffffffffffff81111561048a57610489610f26565b5b6040519080825280602002602001820160405280156104b85781602001602082028036833780820191505090505b50809250819350505060008490506001816104d39190610f84565b836000815181106104e7576104e6610fce565b5b602002602001019073ffffffffffffffffffffffffffffffffffffffff16908173ffffffffffffffffffffffffffffffffffffffff168152505060028161052e9190610f84565b8360018151811061054257610541610fce565b5b602002602001019073ffffffffffffffffffffffffffffffffffffffff16908173ffffffffffffffffffffffffffffffffffffffff1681525050600060028561058b919061102c565b905080836000815181106105a2576105a1610fce565b5b60200260200101818152505080856105ba919061105d565b836001815181106105ce576105cd610fce565b5b60200260200101818152505050509250929050565b60008060008019858709858702925082811083820303915050600081141561061f5783828161061557610614610ffd565b5b04925050506106b8565b80841161062b57600080fd5b60008486880990508281118203915080830392506000600186190186169050808604955080840493506001818260000304019050808302841793506000600287600302189050808702600203810290508087026002038102905080870260020381029050808702600203810290508087026002038102905080870260020381029050808502955050505050505b9392505050565b6106c76108c8565b73ffffffffffffffffffffffffffffffffffffffff166106e5610274565b73ffffffffffffffffffffffffffffffffffffffff161461073b576040517f08c379a0000000000000000000000000000000000000000000000000000000008152600401610732906110dd565b60405180910390fd5b565b60008060009054906101000a900473ffffffffffffffffffffffffffffffffffffffff169050816000806101000a81548173ffffffffffffffffffffffffffffffffffffffff021916908373ffffffffffffffffffffffffffffffffffffffff1602179055508173ffffffffffffffffffffffffffffffffffffffff168173ffffffffffffffffffffffffffffffffffffffff167f8be0079c531659141344cd1fd0a4f28419497f9722a3daafe3b4186f6b6457e060405160405180910390a35050565b6000610863826040518060400160405280602081526020017f5361666545524332303a206c6f772d6c6576656c2063616c6c206661696c65648152508573ffffffffffffffffffffffffffffffffffffffff166108d09092919063ffffffff16565b90506000815111156108c357808060200190518101906108839190611135565b6108c2576040517f08c379a00000000000000000000000000000000000000000000000000000000081526004016108b9906111d4565b60405180910390fd5b5b505050565b600033905090565b60606108df84846000856108e8565b90509392505050565b60608247101561092d576040517f08c379a000000000000000000000000000000000000000000000000000000000815260040161092490611266565b60405180910390fd5b610936856109fc565b610975576040517f08c379a000000000000000000000000000000000000000000000000000000000815260040161096c906112d2565b60405180910390fd5b6000808673ffffffffffffffffffffffffffffffffffffffff16858760405161099e919061136c565b60006040518083038185875af1925050503d80600081146109db576040519150601f19603f3d011682016040523d82523d6000602084013e6109e0565b606091505b50915091506109f0828286610a1f565b92505050949350505050565b6000808273ffffffffffffffffffffffffffffffffffffffff163b119050919050565b60608315610a2f57829050610a7f565b600083511115610a425782518084602001fd5b816040517f08c379a0000000000000000000000000000000000000000000000000000000008152600401610a7691906113d8565b60405180910390fd5b9392505050565b600080fd5b600073ffffffffffffffffffffffffffffffffffffffff82169050919050565b6000610ab682610a8b565b9050919050565b610ac681610aab565b8114610ad157600080fd5b50565b600081359050610ae381610abd565b92915050565b6000819050919050565b610afc81610ae9565b8114610b0757600080fd5b50565b600081359050610b1981610af3565b92915050565b600080600060608486031215610b3857610b37610a86565b5b6000610b4686828701610ad4565b9350506020610b5786828701610b0a565b9250506040610b6886828701610ad4565b9150509250925092565b600081519050919050565b600082825260208201905092915050565b6000819050602082019050919050565b610ba781610aab565b82525050565b6000610bb98383610b9e565b60208301905092915050565b6000602082019050919050565b6000610bdd82610b72565b610be78185610b7d565b9350610bf283610b8e565b8060005b83811015610c23578151610c0a8882610bad565b9750610c1583610bc5565b925050600181019050610bf6565b5085935050505092915050565b600081519050919050565b600082825260208201905092915050565b6000819050602082019050919050565b610c6581610ae9565b82525050565b6000610c778383610c5c565b60208301905092915050565b6000602082019050919050565b6000610c9b82610c30565b610ca58185610c3b565b9350610cb083610c4c565b8060005b83811015610ce1578151610cc88882610c6b565b9750610cd383610c83565b925050600181019050610cb4565b5085935050505092915050565b60006040820190508181036000830152610d088185610bd2565b90508181036020830152610d1c8184610c90565b90509392505050565b610d2e81610ae9565b82525050565b6000602082019050610d496000830184610d25565b92915050565b610d5881610aab565b82525050565b6000602082019050610d736000830184610d4f565b92915050565b600080600060608486031215610d9257610d91610a86565b5b6000610da086828701610ad4565b9350506020610db186828701610b0a565b9250506040610dc286828701610b0a565b9150509250925092565b600060208284031215610de257610de1610a86565b5b6000610df084828501610ad4565b91505092915050565b6000608082019050610e0e6000830187610d4f565b610e1b6020830186610d4f565b8181036040830152610e2d8185610bd2565b90508181036060830152610e418184610c90565b905095945050505050565b600082825260208201905092915050565b7f4f776e61626c653a206e6577206f776e657220697320746865207a65726f206160008201527f6464726573730000000000000000000000000000000000000000000000000000602082015250565b6000610eb9602683610e4c565b9150610ec482610e5d565b604082019050919050565b60006020820190508181036000830152610ee881610eac565b9050919050565b6000606082019050610f046000830186610d4f565b610f116020830185610d4f565b610f1e6040830184610d25565b949350505050565b7f4e487b7100000000000000000000000000000000000000000000000000000000600052604160045260246000fd5b7f4e487b7100000000000000000000000000000000000000000000000000000000600052601160045260246000fd5b6000610f8f82610a8b565b9150610f9a83610a8b565b92508273ffffffffffffffffffffffffffffffffffffffff03821115610fc357610fc2610f55565b5b828201905092915050565b7f4e487b7100000000000000000000000000000000000000000000000000000000600052603260045260246000fd5b7f4e487b7100000000000000000000000000000000000000000000000000000000600052601260045260246000fd5b600061103782610ae9565b915061104283610ae9565b92508261105257611051610ffd565b5b828204905092915050565b600061106882610ae9565b915061107383610ae9565b92508282101561108657611085610f55565b5b828203905092915050565b7f4f776e61626c653a2063616c6c6572206973206e6f7420746865206f776e6572600082015250565b60006110c7602083610e4c565b91506110d282611091565b602082019050919050565b600060208201905081810360008301526110f6816110ba565b9050919050565b60008115159050919050565b611112816110fd565b811461111d57600080fd5b50565b60008151905061112f81611109565b92915050565b60006020828403121561114b5761114a610a86565b5b600061115984828501611120565b91505092915050565b7f5361666545524332303a204552433230206f7065726174696f6e20646964206e60008201527f6f74207375636365656400000000000000000000000000000000000000000000602082015250565b60006111be602a83610e4c565b91506111c982611162565b604082019050919050565b600060208201905081810360008301526111ed816111b1565b9050919050565b7f416464726573733a20696e73756666696369656e742062616c616e636520666f60008201527f722063616c6c0000000000000000000000000000000000000000000000000000602082015250565b6000611250602683610e4c565b915061125b826111f4565b604082019050919050565b6000602082019050818103600083015261127f81611243565b9050919050565b7f416464726573733a2063616c6c20746f206e6f6e2d636f6e7472616374000000600082015250565b60006112bc601d83610e4c565b91506112c782611286565b602082019050919050565b600060208201905081810360008301526112eb816112af565b9050919050565b600081519050919050565b600081905092915050565b60005b8381101561132657808201518184015260208101905061130b565b83811115611335576000848401525b50505050565b6000611346826112f2565b61135081856112fd565b9350611360818560208601611308565b80840191505092915050565b6000611378828461133b565b915081905092915050565b600081519050919050565b6000601f19601f8301169050919050565b60006113aa82611383565b6113b48185610e4c565b93506113c4818560208601611308565b6113cd8161138e565b840191505092915050565b600060208201905081810360008301526113f2818461139f565b90509291505056fea26469706673582212204554b94fbb28dbb4587a331b94769005882f60ab298e4889c197f27b61faa43964736f6c634300080a0033",
  "devdoc": {
    "author": "Sebastian Stammler",
    "details": "The contract owner can set rates for individual tokens with setRate. If no rate is set, a default rate of 1 will be used. The Redeemed event will have two TCO2 entries, which the TCO2 addresses being the provided pool token address +1 and +2.",
    "kind": "dev",
    "methods": {
      "autoOffsetExactInToken(address,uint256,address)": {
        "details": "When automatically redeeming pool tokens for the lowest quality TCO2s there are no fees and you receive exactly 1 TCO2 token for 1 pool token.",
        "params": {
          "_amountToSwap": "The amount of ERC20 token to swap into Toucan pool token. Full amount will be used for offsetting.",
          "_fromToken": "The address of the ERC20 token that the user sends (must be one of USDC, WETH, WMATIC)",
          "_poolToken": "The address of the Toucan pool token that the user wants to use, for example, NCT or BCT"
        },
        "returns": {
          "amounts": "An array of the amounts of each TCO2 that were redeemed",
          "tco2s": "An array of the TCO2 addresses that were redeemed"
        }
      },
      "owner()": {
        "details": "Returns the address of the current owner."
      },
      "renounceOwnership()": {
        "details": "Leaves the contract without owner. It will not be possible to call `onlyOwner` functions anymore. Can only be called by the current owner. NOTE: Renouncing ownership will leave the contract without an owner, thereby removing any functionality that is only available to the owner."
      },
      "transferOwnership(address)": {
        "details": "Transfers ownership of the contract to a new account (`newOwner`). Can only be called by the current owner."
      }
    },
    "title": "Toucan OffsetHelper mock",
    "version": 1
  },
  "userdoc": {
    "events": {
      "Redeemed(address,address,address[],uint256[])": {
        "notice": "Emitted upon successful redemption of TCO2 tokens from a Toucan pool token such as BCT or NCT."
      }
    },
    "kind": "user",
    "methods": {
      "autoOffsetExactInToken(address,uint256,address)": {
        "notice": "Retire carbon credits using the lowest quality (oldest) TCO2 tokens available from the specified Toucan token pool by sending ERC20 tokens (USDC, WETH, WMATIC). All provided token is consumed for offsetting. This function: 1. Swaps the ERC20 token sent to the contract for the specified pool token. 2. Redeems the pool token for the poorest quality TCO2 tokens available. 3. Retires the TCO2 tokens. Note: The client must approve the ERC20 token that is sent to the contract."
      }
    },
    "notice": "Mocks offsetting by any token by transferring the token to this contract and then emitting a mock Redeemed event.",
    "version": 1
  },
  "storageLayout": {
    "storage": [
      {
        "astId": 7,
        "contract": "contracts/test/OffsetHelperMock.sol:OffsetHelperMock",
        "label": "_owner",
        "offset": 0,
        "slot": "0",
        "type": "t_address"
      },
      {
        "astId": 2584,
        "contract": "contracts/test/OffsetHelperMock.sol:OffsetHelperMock",
        "label": "rates",
        "offset": 0,
        "slot": "1",
        "type": "t_mapping(t_address,t_struct(Rate)2579_storage)"
      }
    ],
    "types": {
      "t_address": {
        "encoding": "inplace",
        "label": "address",
        "numberOfBytes": "20"
      },
      "t_mapping(t_address,t_struct(Rate)2579_storage)": {
        "encoding": "mapping",
        "key": "t_address",
        "label": "mapping(address => struct OffsetHelperMock.Rate)",
        "numberOfBytes": "32",
        "value": "t_struct(Rate)2579_storage"
      },
      "t_struct(Rate)2579_storage": {
        "encoding": "inplace",
        "label": "struct OffsetHelperMock.Rate",
        "members": [
          {
            "astId": 2576,
            "contract": "contracts/test/OffsetHelperMock.sol:OffsetHelperMock",
            "label": "mult",
            "offset": 0,
            "slot": "0",
            "type": "t_uint256"
          },
          {
            "astId": 2578,
            "contract": "contracts/test/OffsetHelperMock.sol:OffsetHelperMock",
            "label": "denom",
            "offset": 0,
            "slot": "1",
            "type": "t_uint256"
          }
        ],
        "numberOfBytes": "64"
      },
      "t_uint256": {
        "encoding": "inplace",
        "label": "uint256",
        "numberOfBytes": "32"
      }
    }
  }
}