{
  "address": "0x521cDdA5Ef7659A04721dB96Ccce6FA84cb0925E",
  "abi": [
    {
      "inputs": [
        {
          "internalType": "address",
          "name": "_toucanOffsettHelper",
          "type": "address"
        }
      ],
      "stateMutability": "nonpayable",
      "type": "constructor"
    },
    {
      "anonymous": false,
      "inputs": [
        {
          "indexed": true,
          "internalType": "address",
          "name": "token",
          "type": "address"
        },
        {
          "indexed": false,
          "internalType": "uint256",
          "name": "yield",
          "type": "uint256"
        },
        {
          "indexed": true,
          "internalType": "address",
          "name": "offsetToken",
          "type": "address"
        },
        {
          "indexed": false,
          "internalType": "uint256",
          "name": "offset",
          "type": "uint256"
        }
      ],
      "name": "Offset",
      "type": "event"
    },
    {
      "anonymous": false,
      "inputs": [
        {
          "indexed": true,
          "internalType": "bytes32",
          "name": "role",
          "type": "bytes32"
        },
        {
          "indexed": true,
          "internalType": "bytes32",
          "name": "previousAdminRole",
          "type": "bytes32"
        },
        {
          "indexed": true,
          "internalType": "bytes32",
          "name": "newAdminRole",
          "type": "bytes32"
        }
      ],
      "name": "RoleAdminChanged",
      "type": "event"
    },
    {
      "anonymous": false,
      "inputs": [
        {
          "indexed": true,
          "internalType": "bytes32",
          "name": "role",
          "type": "bytes32"
        },
        {
          "indexed": true,
          "internalType": "address",
          "name": "account",
          "type": "address"
        },
        {
          "indexed": true,
          "internalType": "address",
          "name": "sender",
          "type": "address"
        }
      ],
      "name": "RoleGranted",
      "type": "event"
    },
    {
      "anonymous": false,
      "inputs": [
        {
          "indexed": true,
          "internalType": "bytes32",
          "name": "role",
          "type": "bytes32"
        },
        {
          "indexed": true,
          "internalType": "address",
          "name": "account",
          "type": "address"
        },
        {
          "indexed": true,
          "internalType": "address",
          "name": "sender",
          "type": "address"
        }
      ],
      "name": "RoleRevoked",
      "type": "event"
    },
    {
      "anonymous": false,
      "inputs": [
        {
          "indexed": true,
          "internalType": "address",
          "name": "pool",
          "type": "address"
        }
      ],
      "name": "YGPoolSet",
      "type": "event"
    },
    {
      "inputs": [],
      "name": "DEFAULT_ADMIN_ROLE",
      "outputs": [
        {
          "internalType": "bytes32",
          "name": "",
          "type": "bytes32"
        }
      ],
      "stateMutability": "view",
      "type": "function"
    },
    {
      "inputs": [],
      "name": "OFFSET_ROLE",
      "outputs": [
        {
          "internalType": "bytes32",
          "name": "",
          "type": "bytes32"
        }
      ],
      "stateMutability": "view",
      "type": "function"
    },
    {
      "inputs": [
        {
          "internalType": "bytes32",
          "name": "role",
          "type": "bytes32"
        }
      ],
      "name": "getRoleAdmin",
      "outputs": [
        {
          "internalType": "bytes32",
          "name": "",
          "type": "bytes32"
        }
      ],
      "stateMutability": "view",
      "type": "function"
    },
    {
      "inputs": [
        {
          "internalType": "bytes32",
          "name": "role",
          "type": "bytes32"
        },
        {
          "internalType": "address",
          "name": "account",
          "type": "address"
        }
      ],
      "name": "grantRole",
      "outputs": [],
      "stateMutability": "nonpayable",
      "type": "function"
    },
    {
      "inputs": [
        {
          "internalType": "bytes32",
          "name": "role",
          "type": "bytes32"
        },
        {
          "internalType": "address",
          "name": "account",
          "type": "address"
        }
      ],
      "name": "hasRole",
      "outputs": [
        {
          "internalType": "bool",
          "name": "",
          "type": "bool"
        }
      ],
      "stateMutability": "view",
      "type": "function"
    },
    {
      "inputs": [],
      "name": "offsetHelper",
      "outputs": [
        {
          "internalType": "contract IToucanOffsetHelper",
          "name": "",
          "type": "address"
        }
      ],
      "stateMutability": "view",
      "type": "function"
    },
    {
      "inputs": [
        {
          "internalType": "address",
          "name": "token",
          "type": "address"
        },
        {
          "internalType": "address",
          "name": "offsetToken",
          "type": "address"
        }
      ],
      "name": "offsetYield",
      "outputs": [],
      "stateMutability": "nonpayable",
      "type": "function"
    },
    {
      "inputs": [],
      "name": "pool",
      "outputs": [
        {
          "internalType": "contract ITokenPool",
          "name": "",
          "type": "address"
        }
      ],
      "stateMutability": "view",
      "type": "function"
    },
    {
      "inputs": [
        {
          "internalType": "bytes32",
          "name": "role",
          "type": "bytes32"
        },
        {
          "internalType": "address",
          "name": "account",
          "type": "address"
        }
      ],
      "name": "renounceRole",
      "outputs": [],
      "stateMutability": "nonpayable",
      "type": "function"
    },
    {
      "inputs": [
        {
          "internalType": "bytes32",
          "name": "role",
          "type": "bytes32"
        },
        {
          "internalType": "address",
          "name": "account",
          "type": "address"
        }
      ],
      "name": "revokeRole",
      "outputs": [],
      "stateMutability": "nonpayable",
      "type": "function"
    },
    {
      "inputs": [
        {
          "internalType": "address",
          "name": "_pool",
          "type": "address"
        }
      ],
      "name": "setYGPool",
      "outputs": [],
      "stateMutability": "nonpayable",
      "type": "function"
    },
    {
      "inputs": [
        {
          "internalType": "bytes4",
          "name": "interfaceId",
          "type": "bytes4"
        }
      ],
      "name": "supportsInterface",
      "outputs": [
        {
          "internalType": "bool",
          "name": "",
          "type": "bool"
        }
      ],
      "stateMutability": "view",
      "type": "function"
    }
  ],
  "transactionHash": "0x186d177e9c24501a9c71843ea29aad83ac47fc24de2ef6a02dfa3f38d5216c70",
  "args": [
    "0xDC54484c13d9956199cc14A49d07D58be4794D2A"
  ],
  "numDeployments": 1,
  "solcInputHash": "13dd26f8daf12d363c04a6203e43909d",
  "bytecode": "0x60806040523480156200001157600080fd5b50604051620021c7380380620021c7833981810160405281019062000037919062000293565b6200004c6000801b33620000c660201b60201c565b6200007e7f660947821d2a889cb9f8c66687544fd288e28eef07bd2c94605dd70cb9a4452833620000c660201b60201c565b80600260006101000a81548173ffffffffffffffffffffffffffffffffffffffff021916908373ffffffffffffffffffffffffffffffffffffffff16021790555050620002c5565b620000d88282620001b760201b60201c565b620001b357600160008084815260200190815260200160002060000160008373ffffffffffffffffffffffffffffffffffffffff1673ffffffffffffffffffffffffffffffffffffffff16815260200190815260200160002060006101000a81548160ff021916908315150217905550620001586200022160201b60201c565b73ffffffffffffffffffffffffffffffffffffffff168173ffffffffffffffffffffffffffffffffffffffff16837f2f8788117e7eff1d82e926ec794901d17c78024a50270940304540a733656f0d60405160405180910390a45b5050565b600080600084815260200190815260200160002060000160008373ffffffffffffffffffffffffffffffffffffffff1673ffffffffffffffffffffffffffffffffffffffff16815260200190815260200160002060009054906101000a900460ff16905092915050565b600033905090565b600080fd5b600073ffffffffffffffffffffffffffffffffffffffff82169050919050565b60006200025b826200022e565b9050919050565b6200026d816200024e565b81146200027957600080fd5b50565b6000815190506200028d8162000262565b92915050565b600060208284031215620002ac57620002ab62000229565b5b6000620002bc848285016200027c565b91505092915050565b611ef280620002d56000396000f3fe608060405234801561001057600080fd5b50600436106100b45760003560e01c806358d83d471161007157806358d83d471461018b57806391d14854146101a75780639bf35011146101d7578063a1177a21146101f5578063a217fddf14610213578063d547741f14610231576100b4565b806301ffc9a7146100b957806316f0115b146100e9578063248a9ca3146101075780632f2ff15d1461013757806336568abe146101535780633ea048821461016f575b600080fd5b6100d360048036038101906100ce9190611104565b61024d565b6040516100e0919061114c565b60405180910390f35b6100f16102c7565b6040516100fe91906111e6565b60405180910390f35b610121600480360381019061011c9190611237565b6102ed565b60405161012e9190611273565b60405180910390f35b610151600480360381019061014c91906112cc565b61030c565b005b61016d600480360381019061016891906112cc565b61032d565b005b6101896004803603810190610184919061130c565b6103b0565b005b6101a560048036038101906101a0919061134c565b610631565b005b6101c160048036038101906101bc91906112cc565b610649565b6040516101ce919061114c565b60405180910390f35b6101df6106b3565b6040516101ec9190611273565b60405180910390f35b6101fd6106d7565b60405161020a919061139a565b60405180910390f35b61021b6106fd565b6040516102289190611273565b60405180910390f35b61024b600480360381019061024691906112cc565b610704565b005b60007f7965db0b000000000000000000000000000000000000000000000000000000007bffffffffffffffffffffffffffffffffffffffffffffffffffffffff1916827bffffffffffffffffffffffffffffffffffffffffffffffffffffffff191614806102c057506102bf82610725565b5b9050919050565b600160009054906101000a900473ffffffffffffffffffffffffffffffffffffffff1681565b6000806000838152602001908152602001600020600101549050919050565b610315826102ed565b61031e8161078f565b61032883836107a3565b505050565b610335610883565b73ffffffffffffffffffffffffffffffffffffffff168173ffffffffffffffffffffffffffffffffffffffff16146103a2576040517f08c379a000000000000000000000000000000000000000000000000000000000815260040161039990611438565b60405180910390fd5b6103ac828261088b565b5050565b7f660947821d2a889cb9f8c66687544fd288e28eef07bd2c94605dd70cb9a445286103da8161078f565b6000600160009054906101000a900473ffffffffffffffffffffffffffffffffffffffff1673ffffffffffffffffffffffffffffffffffffffff16631e83409a856040518263ffffffff1660e01b81526004016104379190611467565b6020604051808303816000875af1158015610456573d6000803e3d6000fd5b505050506040513d601f19601f8201168201806040525081019061047a91906114b8565b90506104c9600260009054906101000a900473ffffffffffffffffffffffffffffffffffffffff16828673ffffffffffffffffffffffffffffffffffffffff1661096c9092919063ffffffff16565b6000600260009054906101000a900473ffffffffffffffffffffffffffffffffffffffff1673ffffffffffffffffffffffffffffffffffffffff1663226ee4ef8684876040518463ffffffff1660e01b815260040161052a939291906114f4565b6000604051808303816000875af1158015610549573d6000803e3d6000fd5b505050506040513d6000823e3d601f19601f82011682018060405250810190610572919061175c565b915050600080600090505b82518110156105c157828181518110610599576105986117d4565b5b6020026020010151826105ac9190611832565b915080806105b990611888565b91505061057d565b508473ffffffffffffffffffffffffffffffffffffffff168673ffffffffffffffffffffffffffffffffffffffff167fe1475176e5614054770e151b6c05cf3e4136103268af5a0888f70339bff1408685846040516106219291906118d1565b60405180910390a3505050505050565b61063d6000801b61078f565b61064681610abb565b50565b600080600084815260200190815260200160002060000160008373ffffffffffffffffffffffffffffffffffffffff1673ffffffffffffffffffffffffffffffffffffffff16815260200190815260200160002060009054906101000a900460ff16905092915050565b7f660947821d2a889cb9f8c66687544fd288e28eef07bd2c94605dd70cb9a4452881565b600260009054906101000a900473ffffffffffffffffffffffffffffffffffffffff1681565b6000801b81565b61070d826102ed565b6107168161078f565b610720838361088b565b505050565b60007f01ffc9a7000000000000000000000000000000000000000000000000000000007bffffffffffffffffffffffffffffffffffffffffffffffffffffffff1916827bffffffffffffffffffffffffffffffffffffffffffffffffffffffff1916149050919050565b6107a08161079b610883565b610b42565b50565b6107ad8282610649565b61087f57600160008084815260200190815260200160002060000160008373ffffffffffffffffffffffffffffffffffffffff1673ffffffffffffffffffffffffffffffffffffffff16815260200190815260200160002060006101000a81548160ff021916908315150217905550610824610883565b73ffffffffffffffffffffffffffffffffffffffff168173ffffffffffffffffffffffffffffffffffffffff16837f2f8788117e7eff1d82e926ec794901d17c78024a50270940304540a733656f0d60405160405180910390a45b5050565b600033905090565b6108958282610649565b1561096857600080600084815260200190815260200160002060000160008373ffffffffffffffffffffffffffffffffffffffff1673ffffffffffffffffffffffffffffffffffffffff16815260200190815260200160002060006101000a81548160ff02191690831515021790555061090d610883565b73ffffffffffffffffffffffffffffffffffffffff168173ffffffffffffffffffffffffffffffffffffffff16837ff6391f5c32d9c69d2a47ea670b442974b53935d1edc7fd64eb21e047a839171b60405160405180910390a45b5050565b60008114806109f6575060008373ffffffffffffffffffffffffffffffffffffffff1663dd62ed3e30856040518363ffffffff1660e01b81526004016109b39291906118fa565b602060405180830381865afa1580156109d0573d6000803e3d6000fd5b505050506040513d601f19601f820116820180604052508101906109f491906114b8565b145b610a35576040517f08c379a0000000000000000000000000000000000000000000000000000000008152600401610a2c90611995565b60405180910390fd5b610ab68363095ea7b360e01b8484604051602401610a549291906119b5565b604051602081830303815290604052907bffffffffffffffffffffffffffffffffffffffffffffffffffffffff19166020820180517bffffffffffffffffffffffffffffffffffffffffffffffffffffffff8381831617835250505050610bdf565b505050565b80600160006101000a81548173ffffffffffffffffffffffffffffffffffffffff021916908373ffffffffffffffffffffffffffffffffffffffff1602179055508073ffffffffffffffffffffffffffffffffffffffff167fc7235dcf43dbd54eb21709340c56c565a81a20f8e0cf4bed52e612fdab9d3bc960405160405180910390a250565b610b4c8282610649565b610bdb57610b718173ffffffffffffffffffffffffffffffffffffffff166014610ca6565b610b7f8360001c6020610ca6565b604051602001610b90929190611af0565b6040516020818303038152906040526040517f08c379a0000000000000000000000000000000000000000000000000000000008152600401610bd29190611b63565b60405180910390fd5b5050565b6000610c41826040518060400160405280602081526020017f5361666545524332303a206c6f772d6c6576656c2063616c6c206661696c65648152508573ffffffffffffffffffffffffffffffffffffffff16610ee29092919063ffffffff16565b9050600081511115610ca15780806020019051810190610c619190611bb1565b610ca0576040517f08c379a0000000000000000000000000000000000000000000000000000000008152600401610c9790611c50565b60405180910390fd5b5b505050565b606060006002836002610cb99190611c70565b610cc39190611832565b67ffffffffffffffff811115610cdc57610cdb611541565b5b6040519080825280601f01601f191660200182016040528015610d0e5781602001600182028036833780820191505090505b5090507f300000000000000000000000000000000000000000000000000000000000000081600081518110610d4657610d456117d4565b5b60200101907effffffffffffffffffffffffffffffffffffffffffffffffffffffffffffff1916908160001a9053507f780000000000000000000000000000000000000000000000000000000000000081600181518110610daa57610da96117d4565b5b60200101907effffffffffffffffffffffffffffffffffffffffffffffffffffffffffffff1916908160001a90535060006001846002610dea9190611c70565b610df49190611832565b90505b6001811115610e94577f3031323334353637383961626364656600000000000000000000000000000000600f861660108110610e3657610e356117d4565b5b1a60f81b828281518110610e4d57610e4c6117d4565b5b60200101907effffffffffffffffffffffffffffffffffffffffffffffffffffffffffffff1916908160001a905350600485901c945080610e8d90611cca565b9050610df7565b5060008414610ed8576040517f08c379a0000000000000000000000000000000000000000000000000000000008152600401610ecf90611d40565b60405180910390fd5b8091505092915050565b6060610ef18484600085610efa565b90509392505050565b606082471015610f3f576040517f08c379a0000000000000000000000000000000000000000000000000000000008152600401610f3690611dd2565b60405180910390fd5b610f488561100e565b610f87576040517f08c379a0000000000000000000000000000000000000000000000000000000008152600401610f7e90611e3e565b60405180910390fd5b6000808673ffffffffffffffffffffffffffffffffffffffff168587604051610fb09190611ea5565b60006040518083038185875af1925050503d8060008114610fed576040519150601f19603f3d011682016040523d82523d6000602084013e610ff2565b606091505b5091509150611002828286611031565b92505050949350505050565b6000808273ffffffffffffffffffffffffffffffffffffffff163b119050919050565b6060831561104157829050611091565b6000835111156110545782518084602001fd5b816040517f08c379a00000000000000000000000000000000000000000000000000000000081526004016110889190611b63565b60405180910390fd5b9392505050565b6000604051905090565b600080fd5b600080fd5b60007fffffffff0000000000000000000000000000000000000000000000000000000082169050919050565b6110e1816110ac565b81146110ec57600080fd5b50565b6000813590506110fe816110d8565b92915050565b60006020828403121561111a576111196110a2565b5b6000611128848285016110ef565b91505092915050565b60008115159050919050565b61114681611131565b82525050565b6000602082019050611161600083018461113d565b92915050565b600073ffffffffffffffffffffffffffffffffffffffff82169050919050565b6000819050919050565b60006111ac6111a76111a284611167565b611187565b611167565b9050919050565b60006111be82611191565b9050919050565b60006111d0826111b3565b9050919050565b6111e0816111c5565b82525050565b60006020820190506111fb60008301846111d7565b92915050565b6000819050919050565b61121481611201565b811461121f57600080fd5b50565b6000813590506112318161120b565b92915050565b60006020828403121561124d5761124c6110a2565b5b600061125b84828501611222565b91505092915050565b61126d81611201565b82525050565b60006020820190506112886000830184611264565b92915050565b600061129982611167565b9050919050565b6112a98161128e565b81146112b457600080fd5b50565b6000813590506112c6816112a0565b92915050565b600080604083850312156112e3576112e26110a2565b5b60006112f185828601611222565b9250506020611302858286016112b7565b9150509250929050565b60008060408385031215611323576113226110a2565b5b6000611331858286016112b7565b9250506020611342858286016112b7565b9150509250929050565b600060208284031215611362576113616110a2565b5b6000611370848285016112b7565b91505092915050565b6000611384826111b3565b9050919050565b61139481611379565b82525050565b60006020820190506113af600083018461138b565b92915050565b600082825260208201905092915050565b7f416363657373436f6e74726f6c3a2063616e206f6e6c792072656e6f756e636560008201527f20726f6c657320666f722073656c660000000000000000000000000000000000602082015250565b6000611422602f836113b5565b915061142d826113c6565b604082019050919050565b6000602082019050818103600083015261145181611415565b9050919050565b6114618161128e565b82525050565b600060208201905061147c6000830184611458565b92915050565b6000819050919050565b61149581611482565b81146114a057600080fd5b50565b6000815190506114b28161148c565b92915050565b6000602082840312156114ce576114cd6110a2565b5b60006114dc848285016114a3565b91505092915050565b6114ee81611482565b82525050565b60006060820190506115096000830186611458565b61151660208301856114e5565b6115236040830184611458565b949350505050565b600080fd5b6000601f19601f8301169050919050565b7f4e487b7100000000000000000000000000000000000000000000000000000000600052604160045260246000fd5b61157982611530565b810181811067ffffffffffffffff8211171561159857611597611541565b5b80604052505050565b60006115ab611098565b90506115b78282611570565b919050565b600067ffffffffffffffff8211156115d7576115d6611541565b5b602082029050602081019050919050565b600080fd5b6000815190506115fc816112a0565b92915050565b6000611615611610846115bc565b6115a1565b90508083825260208201905060208402830185811115611638576116376115e8565b5b835b81811015611661578061164d88826115ed565b84526020840193505060208101905061163a565b5050509392505050565b600082601f8301126116805761167f61152b565b5b8151611690848260208601611602565b91505092915050565b600067ffffffffffffffff8211156116b4576116b3611541565b5b602082029050602081019050919050565b60006116d86116d384611699565b6115a1565b905080838252602082019050602084028301858111156116fb576116fa6115e8565b5b835b81811015611724578061171088826114a3565b8452602084019350506020810190506116fd565b5050509392505050565b600082601f8301126117435761174261152b565b5b81516117538482602086016116c5565b91505092915050565b60008060408385031215611773576117726110a2565b5b600083015167ffffffffffffffff811115611791576117906110a7565b5b61179d8582860161166b565b925050602083015167ffffffffffffffff8111156117be576117bd6110a7565b5b6117ca8582860161172e565b9150509250929050565b7f4e487b7100000000000000000000000000000000000000000000000000000000600052603260045260246000fd5b7f4e487b7100000000000000000000000000000000000000000000000000000000600052601160045260246000fd5b600061183d82611482565b915061184883611482565b9250827fffffffffffffffffffffffffffffffffffffffffffffffffffffffffffffffff0382111561187d5761187c611803565b5b828201905092915050565b600061189382611482565b91507fffffffffffffffffffffffffffffffffffffffffffffffffffffffffffffffff8214156118c6576118c5611803565b5b600182019050919050565b60006040820190506118e660008301856114e5565b6118f360208301846114e5565b9392505050565b600060408201905061190f6000830185611458565b61191c6020830184611458565b9392505050565b7f5361666545524332303a20617070726f76652066726f6d206e6f6e2d7a65726f60008201527f20746f206e6f6e2d7a65726f20616c6c6f77616e636500000000000000000000602082015250565b600061197f6036836113b5565b915061198a82611923565b604082019050919050565b600060208201905081810360008301526119ae81611972565b9050919050565b60006040820190506119ca6000830185611458565b6119d760208301846114e5565b9392505050565b600081905092915050565b7f416363657373436f6e74726f6c3a206163636f756e7420000000000000000000600082015250565b6000611a1f6017836119de565b9150611a2a826119e9565b601782019050919050565b600081519050919050565b60005b83811015611a5e578082015181840152602081019050611a43565b83811115611a6d576000848401525b50505050565b6000611a7e82611a35565b611a8881856119de565b9350611a98818560208601611a40565b80840191505092915050565b7f206973206d697373696e6720726f6c6520000000000000000000000000000000600082015250565b6000611ada6011836119de565b9150611ae582611aa4565b601182019050919050565b6000611afb82611a12565b9150611b078285611a73565b9150611b1282611acd565b9150611b1e8284611a73565b91508190509392505050565b6000611b3582611a35565b611b3f81856113b5565b9350611b4f818560208601611a40565b611b5881611530565b840191505092915050565b60006020820190508181036000830152611b7d8184611b2a565b905092915050565b611b8e81611131565b8114611b9957600080fd5b50565b600081519050611bab81611b85565b92915050565b600060208284031215611bc757611bc66110a2565b5b6000611bd584828501611b9c565b91505092915050565b7f5361666545524332303a204552433230206f7065726174696f6e20646964206e60008201527f6f74207375636365656400000000000000000000000000000000000000000000602082015250565b6000611c3a602a836113b5565b9150611c4582611bde565b604082019050919050565b60006020820190508181036000830152611c6981611c2d565b9050919050565b6000611c7b82611482565b9150611c8683611482565b9250817fffffffffffffffffffffffffffffffffffffffffffffffffffffffffffffffff0483118215151615611cbf57611cbe611803565b5b828202905092915050565b6000611cd582611482565b91506000821415611ce957611ce8611803565b5b600182039050919050565b7f537472696e67733a20686578206c656e67746820696e73756666696369656e74600082015250565b6000611d2a6020836113b5565b9150611d3582611cf4565b602082019050919050565b60006020820190508181036000830152611d5981611d1d565b9050919050565b7f416464726573733a20696e73756666696369656e742062616c616e636520666f60008201527f722063616c6c0000000000000000000000000000000000000000000000000000602082015250565b6000611dbc6026836113b5565b9150611dc782611d60565b604082019050919050565b60006020820190508181036000830152611deb81611daf565b9050919050565b7f416464726573733a2063616c6c20746f206e6f6e2d636f6e7472616374000000600082015250565b6000611e28601d836113b5565b9150611e3382611df2565b602082019050919050565b60006020820190508181036000830152611e5781611e1b565b9050919050565b600081519050919050565b600081905092915050565b6000611e7f82611e5e565b611e898185611e69565b9350611e99818560208601611a40565b80840191505092915050565b6000611eb18284611e74565b91508190509291505056fea2646970667358221220f40aa7e3d7fc78911c0662dca6f472f068a4c73f92d1db323581e0dac4ab107d64736f6c634300080a0033",
  "devdoc": {
    "author": "Sebastian Stammler",
    "details": "The beneficiary is set at deployment of a TokenPool. For that reason, the ToucanOffsetter has to be deployed first, then the TokenPool with the just deployed ToucanOffsetter as beneficiary and then finally the TokenPool has to be set using setYGPool. The alternative constructors of ToucanOffsetterPoolDeployment or ToucanOffsetterPoolDeploymentApproval can be used to automate this process within a single deployment transaction.",
    "events": {
      "Offset(address,uint256,address,uint256)": {
        "details": "The last parameter offset only contains the sum of all offset TCO2s. If individual TCO2s and amounts are of interest to the application, read the Redeemed event emitted by the Toucan OffsetHelper.",
        "params": {
          "offset": "Total sum of TCO2s that got offset.",
          "offsetToken": "Toucan offset token that got redeemed.",
          "token": "Address of input token that got swapped into Toucan offset token.",
          "yield": "Amount of yield that got swapped."
        }
      },
      "YGPoolSet(address)": {
        "params": {
          "pool": "Address of Yieldgate pool."
        }
      }
    },
    "kind": "dev",
    "methods": {
      "constructor": {
        "details": "TokenPool has to be deployed afterwards, setting this ToucanOffsetter as beneficiary. Then setYGPool has to be called with the TokenPool's address. ToucanOffsetterPoolDeployment can be used instead to bundle this behavior. The deployer is set as admin and also granted the offsetter role.",
        "params": {
          "_toucanOffsettHelper": "Address of Toucan OffsetHelper."
        }
      },
      "getRoleAdmin(bytes32)": {
        "details": "Returns the admin role that controls `role`. See {grantRole} and {revokeRole}. To change a role's admin, use {_setRoleAdmin}."
      },
      "grantRole(bytes32,address)": {
        "details": "Grants `role` to `account`. If `account` had not been already granted `role`, emits a {RoleGranted} event. Requirements: - the caller must have ``role``'s admin role. May emit a {RoleGranted} event."
      },
      "hasRole(bytes32,address)": {
        "details": "Returns `true` if `account` has been granted `role`."
      },
      "offsetYield(address,address)": {
        "details": "Emits an Offset event. Caller must have OFFSET_ROLE.",
        "params": {
          "offsetToken": "Toucan offset token to use for offsetting (BCT, NCT, ...).",
          "token": "Token to claim yield for from the TokenPool."
        }
      },
      "renounceRole(bytes32,address)": {
        "details": "Revokes `role` from the calling account. Roles are often managed via {grantRole} and {revokeRole}: this function's purpose is to provide a mechanism for accounts to lose their privileges if they are compromised (such as when a trusted device is misplaced). If the calling account had been revoked `role`, emits a {RoleRevoked} event. Requirements: - the caller must be `account`. May emit a {RoleRevoked} event."
      },
      "revokeRole(bytes32,address)": {
        "details": "Revokes `role` from `account`. If `account` had been granted `role`, emits a {RoleRevoked} event. Requirements: - the caller must have ``role``'s admin role. May emit a {RoleRevoked} event."
      },
      "setYGPool(address)": {
        "details": "Can only be set by the admin.",
        "params": {
          "_pool": "TokenPool address."
        }
      },
      "supportsInterface(bytes4)": {
        "details": "See {IERC165-supportsInterface}."
      }
    },
    "title": "Yieldgate Toucan Offsetter",
    "version": 1
  },
  "userdoc": {
    "events": {
      "Offset(address,uint256,address,uint256)": {
        "notice": "Offset is emitted when yield has been claimed from the TokenPool and used for offsetting via Toucan offset tokens."
      },
      "YGPoolSet(address)": {
        "notice": "YGPoolSet is emitted when the yieldgate pool is (re)set."
      }
    },
    "kind": "user",
    "methods": {
      "OFFSET_ROLE()": {
        "notice": "Offsetters are allowed to call offsetYield. Only this contract's   admin can grant this role to new addresses."
      },
      "constructor": {
        "notice": "Deploys the ToucanOffsetter with given Toucan OffsetHelper."
      },
      "offsetHelper()": {
        "notice": "Toucan OffsetHelper contract that is used for offsetting claimed yield."
      },
      "offsetYield(address,address)": {
        "notice": "offsetYield claims all accrued yield from the TokenPool and then uses the OffsetHelper to swap and retire the yield into Toucan offset token."
      },
      "pool()": {
        "notice": "TokenPool from which yield is claimed."
      },
      "setYGPool(address)": {
        "notice": "Sets the Yieldgate TokenPool."
      }
    },
    "notice": "The Toucan Offsetter contract is designed to be the beneficiary of a Yieldgate TokenPool, forwarding all generated yield to Toucan for carbon offsetting.",
    "version": 1
  },
  "storageLayout": {
    "storage": [
      {
        "astId": 24,
        "contract": "contracts/ToucanOffsetter.sol:ToucanOffsetter",
        "label": "_roles",
        "offset": 0,
        "slot": "0",
        "type": "t_mapping(t_bytes32,t_struct(RoleData)19_storage)"
      },
      {
        "astId": 2544,
        "contract": "contracts/ToucanOffsetter.sol:ToucanOffsetter",
        "label": "pool",
        "offset": 0,
        "slot": "1",
        "type": "t_contract(ITokenPool)3645"
      },
      {
        "astId": 2548,
        "contract": "contracts/ToucanOffsetter.sol:ToucanOffsetter",
        "label": "offsetHelper",
        "offset": 0,
        "slot": "2",
        "type": "t_contract(IToucanOffsetHelper)3568"
      }
    ],
    "types": {
      "t_address": {
        "encoding": "inplace",
        "label": "address",
        "numberOfBytes": "20"
      },
      "t_bool": {
        "encoding": "inplace",
        "label": "bool",
        "numberOfBytes": "1"
      },
      "t_bytes32": {
        "encoding": "inplace",
        "label": "bytes32",
        "numberOfBytes": "32"
      },
      "t_contract(ITokenPool)3645": {
        "encoding": "inplace",
        "label": "contract ITokenPool",
        "numberOfBytes": "20"
      },
      "t_contract(IToucanOffsetHelper)3568": {
        "encoding": "inplace",
        "label": "contract IToucanOffsetHelper",
        "numberOfBytes": "20"
      },
      "t_mapping(t_address,t_bool)": {
        "encoding": "mapping",
        "key": "t_address",
        "label": "mapping(address => bool)",
        "numberOfBytes": "32",
        "value": "t_bool"
      },
      "t_mapping(t_bytes32,t_struct(RoleData)19_storage)": {
        "encoding": "mapping",
        "key": "t_bytes32",
        "label": "mapping(bytes32 => struct AccessControl.RoleData)",
        "numberOfBytes": "32",
        "value": "t_struct(RoleData)19_storage"
      },
      "t_struct(RoleData)19_storage": {
        "encoding": "inplace",
        "label": "struct AccessControl.RoleData",
        "members": [
          {
            "astId": 16,
            "contract": "contracts/ToucanOffsetter.sol:ToucanOffsetter",
            "label": "members",
            "offset": 0,
            "slot": "0",
            "type": "t_mapping(t_address,t_bool)"
          },
          {
            "astId": 18,
            "contract": "contracts/ToucanOffsetter.sol:ToucanOffsetter",
            "label": "adminRole",
            "offset": 0,
            "slot": "1",
            "type": "t_bytes32"
          }
        ],
        "numberOfBytes": "64"
      }
    }
  }
}